{
  "_format": "hh-sol-artifact-1",
  "contractName": "promptNFT",
  "sourceName": "contracts/promptNFT.sol",
  "abi": [
    {
      "inputs": [
        {
          "internalType": "string",
          "name": "name_",
          "type": "string"
        },
        {
          "internalType": "string",
          "name": "symbol_",
          "type": "string"
        },
        {
          "internalType": "address payable",
          "name": "rentMarketContractAddress_",
          "type": "address"
        }
      ],
      "stateMutability": "nonpayable",
      "type": "constructor"
    },
    {
      "anonymous": false,
      "inputs": [
        {
          "indexed": true,
          "internalType": "address",
          "name": "owner",
          "type": "address"
        },
        {
          "indexed": true,
          "internalType": "address",
          "name": "approved",
          "type": "address"
        },
        {
          "indexed": true,
          "internalType": "uint256",
          "name": "tokenId",
          "type": "uint256"
        }
      ],
      "name": "Approval",
      "type": "event"
    },
    {
      "anonymous": false,
      "inputs": [
        {
          "indexed": true,
          "internalType": "address",
          "name": "owner",
          "type": "address"
        },
        {
          "indexed": true,
          "internalType": "address",
          "name": "operator",
          "type": "address"
        },
        {
          "indexed": false,
          "internalType": "bool",
          "name": "approved",
          "type": "bool"
        }
      ],
      "name": "ApprovalForAll",
      "type": "event"
    },
    {
      "anonymous": false,
      "inputs": [
        {
          "indexed": false,
          "internalType": "address",
          "name": "account",
          "type": "address"
        }
      ],
      "name": "Paused",
      "type": "event"
    },
    {
      "anonymous": false,
      "inputs": [
        {
          "indexed": true,
          "internalType": "bytes32",
          "name": "role",
          "type": "bytes32"
        },
        {
          "indexed": true,
          "internalType": "bytes32",
          "name": "previousAdminRole",
          "type": "bytes32"
        },
        {
          "indexed": true,
          "internalType": "bytes32",
          "name": "newAdminRole",
          "type": "bytes32"
        }
      ],
      "name": "RoleAdminChanged",
      "type": "event"
    },
    {
      "anonymous": false,
      "inputs": [
        {
          "indexed": true,
          "internalType": "bytes32",
          "name": "role",
          "type": "bytes32"
        },
        {
          "indexed": true,
          "internalType": "address",
          "name": "account",
          "type": "address"
        },
        {
          "indexed": true,
          "internalType": "address",
          "name": "sender",
          "type": "address"
        }
      ],
      "name": "RoleGranted",
      "type": "event"
    },
    {
      "anonymous": false,
      "inputs": [
        {
          "indexed": true,
          "internalType": "bytes32",
          "name": "role",
          "type": "bytes32"
        },
        {
          "indexed": true,
          "internalType": "address",
          "name": "account",
          "type": "address"
        },
        {
          "indexed": true,
          "internalType": "address",
          "name": "sender",
          "type": "address"
        }
      ],
      "name": "RoleRevoked",
      "type": "event"
    },
    {
      "anonymous": false,
      "inputs": [
        {
          "indexed": true,
          "internalType": "address",
          "name": "from",
          "type": "address"
        },
        {
          "indexed": true,
          "internalType": "address",
          "name": "to",
          "type": "address"
        },
        {
          "indexed": true,
          "internalType": "uint256",
          "name": "tokenId",
          "type": "uint256"
        }
      ],
      "name": "Transfer",
      "type": "event"
    },
    {
      "anonymous": false,
      "inputs": [
        {
          "indexed": false,
          "internalType": "address",
          "name": "account",
          "type": "address"
        }
      ],
      "name": "Unpaused",
      "type": "event"
    },
    {
      "inputs": [],
      "name": "CHANGER_ROLE",
      "outputs": [
        {
          "internalType": "bytes32",
          "name": "",
          "type": "bytes32"
        }
      ],
      "stateMutability": "view",
      "type": "function"
    },
    {
      "inputs": [],
      "name": "DEFAULT_ADMIN_ROLE",
      "outputs": [
        {
          "internalType": "bytes32",
          "name": "",
          "type": "bytes32"
        }
      ],
      "stateMutability": "view",
      "type": "function"
    },
    {
      "inputs": [],
      "name": "PAUSER_ROLE",
      "outputs": [
        {
          "internalType": "bytes32",
          "name": "",
          "type": "bytes32"
        }
      ],
      "stateMutability": "view",
      "type": "function"
    },
    {
      "inputs": [],
      "name": "PROMPTER_ROLE",
      "outputs": [
        {
          "internalType": "bytes32",
          "name": "",
          "type": "bytes32"
        }
      ],
      "stateMutability": "view",
      "type": "function"
    },
    {
      "inputs": [],
      "name": "VERSION",
      "outputs": [
        {
          "internalType": "string",
          "name": "",
          "type": "string"
        }
      ],
      "stateMutability": "view",
      "type": "function"
    },
    {
      "inputs": [
        {
          "internalType": "address",
          "name": "to",
          "type": "address"
        },
        {
          "internalType": "uint256",
          "name": "tokenId",
          "type": "uint256"
        }
      ],
      "name": "approve",
      "outputs": [],
      "stateMutability": "nonpayable",
      "type": "function"
    },
    {
      "inputs": [
        {
          "internalType": "address",
          "name": "owner",
          "type": "address"
        }
      ],
      "name": "balanceOf",
      "outputs": [
        {
          "internalType": "uint256",
          "name": "",
          "type": "uint256"
        }
      ],
      "stateMutability": "view",
      "type": "function"
    },
    {
      "inputs": [
        {
          "internalType": "uint256",
          "name": "tokenId",
          "type": "uint256"
        }
      ],
      "name": "burn",
      "outputs": [],
      "stateMutability": "nonpayable",
      "type": "function"
    },
    {
      "inputs": [
        {
          "internalType": "address payable",
          "name": "rentMarketContractAddress_",
          "type": "address"
        }
      ],
      "name": "changeRentMarketContract",
      "outputs": [],
      "stateMutability": "nonpayable",
      "type": "function"
    },
    {
      "inputs": [
        {
          "internalType": "uint256",
          "name": "tokenId",
          "type": "uint256"
        },
        {
          "components": [
            {
              "internalType": "string",
              "name": "version",
              "type": "string"
            },
            {
              "internalType": "string",
              "name": "ephemPublicKey",
              "type": "string"
            },
            {
              "internalType": "string",
              "name": "nonce",
              "type": "string"
            },
            {
              "internalType": "string",
              "name": "ciphertext",
              "type": "string"
            }
          ],
          "internalType": "struct promptNFT.encryptData",
          "name": "contractOwnerEncryptPromptData",
          "type": "tuple"
        },
        {
          "components": [
            {
              "internalType": "string",
              "name": "version",
              "type": "string"
            },
            {
              "internalType": "string",
              "name": "ephemPublicKey",
              "type": "string"
            },
            {
              "internalType": "string",
              "name": "nonce",
              "type": "string"
            },
            {
              "internalType": "string",
              "name": "ciphertext",
              "type": "string"
            }
          ],
          "internalType": "struct promptNFT.encryptData",
          "name": "contractOwnerEncryptNegativePromptData",
          "type": "tuple"
        }
      ],
      "name": "claimContractOwnerPrompt",
      "outputs": [],
      "stateMutability": "nonpayable",
      "type": "function"
    },
    {
      "inputs": [
        {
          "internalType": "uint256",
          "name": "tokenId",
          "type": "uint256"
        },
        {
          "components": [
            {
              "internalType": "string",
              "name": "version",
              "type": "string"
            },
            {
              "internalType": "string",
              "name": "ephemPublicKey",
              "type": "string"
            },
            {
              "internalType": "string",
              "name": "nonce",
              "type": "string"
            },
            {
              "internalType": "string",
              "name": "ciphertext",
              "type": "string"
            }
          ],
          "internalType": "struct promptNFT.encryptData",
          "name": "tokenOwnerEncryptPromptData",
          "type": "tuple"
        },
        {
          "components": [
            {
              "internalType": "string",
              "name": "version",
              "type": "string"
            },
            {
              "internalType": "string",
              "name": "ephemPublicKey",
              "type": "string"
            },
            {
              "internalType": "string",
              "name": "nonce",
              "type": "string"
            },
            {
              "internalType": "string",
              "name": "ciphertext",
              "type": "string"
            }
          ],
          "internalType": "struct promptNFT.encryptData",
          "name": "tokenOwnerEncryptNegativePromptData",
          "type": "tuple"
        }
      ],
      "name": "claimTokenOwnerPrompt",
      "outputs": [],
      "stateMutability": "nonpayable",
      "type": "function"
    },
    {
      "inputs": [
        {
          "internalType": "uint256",
          "name": "tokenId",
          "type": "uint256"
        }
      ],
      "name": "getApproved",
      "outputs": [
        {
          "internalType": "address",
          "name": "",
          "type": "address"
        }
      ],
      "stateMutability": "view",
      "type": "function"
    },
    {
      "inputs": [
        {
          "internalType": "uint256",
          "name": "tokenId",
          "type": "uint256"
        }
      ],
      "name": "getContractOwnerPrompt",
      "outputs": [
        {
          "components": [
            {
              "internalType": "string",
              "name": "version",
              "type": "string"
            },
            {
              "internalType": "string",
              "name": "ephemPublicKey",
              "type": "string"
            },
            {
              "internalType": "string",
              "name": "nonce",
              "type": "string"
            },
            {
              "internalType": "string",
              "name": "ciphertext",
              "type": "string"
            }
          ],
          "internalType": "struct promptNFT.encryptData",
          "name": "",
          "type": "tuple"
        },
        {
          "components": [
            {
              "internalType": "string",
              "name": "version",
              "type": "string"
            },
            {
              "internalType": "string",
              "name": "ephemPublicKey",
              "type": "string"
            },
            {
              "internalType": "string",
              "name": "nonce",
              "type": "string"
            },
            {
              "internalType": "string",
              "name": "ciphertext",
              "type": "string"
            }
          ],
          "internalType": "struct promptNFT.encryptData",
          "name": "",
          "type": "tuple"
        }
      ],
      "stateMutability": "view",
      "type": "function"
    },
    {
      "inputs": [
        {
          "internalType": "uint256",
          "name": "tokenId",
          "type": "uint256"
        }
      ],
      "name": "getModelName",
      "outputs": [
        {
          "internalType": "string",
          "name": "",
          "type": "string"
        }
      ],
      "stateMutability": "view",
      "type": "function"
    },
    {
      "inputs": [
        {
          "internalType": "bytes32",
          "name": "role",
          "type": "bytes32"
        }
      ],
      "name": "getRoleAdmin",
      "outputs": [
        {
          "internalType": "bytes32",
          "name": "",
          "type": "bytes32"
        }
      ],
      "stateMutability": "view",
      "type": "function"
    },
    {
      "inputs": [
        {
          "internalType": "uint256",
          "name": "tokenId",
          "type": "uint256"
        }
      ],
      "name": "getTokenOwnerPrompt",
      "outputs": [
        {
          "components": [
            {
              "internalType": "string",
              "name": "version",
              "type": "string"
            },
            {
              "internalType": "string",
              "name": "ephemPublicKey",
              "type": "string"
            },
            {
              "internalType": "string",
              "name": "nonce",
              "type": "string"
            },
            {
              "internalType": "string",
              "name": "ciphertext",
              "type": "string"
            }
          ],
          "internalType": "struct promptNFT.encryptData",
          "name": "",
          "type": "tuple"
        },
        {
          "components": [
            {
              "internalType": "string",
              "name": "version",
              "type": "string"
            },
            {
              "internalType": "string",
              "name": "ephemPublicKey",
              "type": "string"
            },
            {
              "internalType": "string",
              "name": "nonce",
              "type": "string"
            },
            {
              "internalType": "string",
              "name": "ciphertext",
              "type": "string"
            }
          ],
          "internalType": "struct promptNFT.encryptData",
          "name": "",
          "type": "tuple"
        }
      ],
      "stateMutability": "view",
      "type": "function"
    },
    {
      "inputs": [
        {
          "internalType": "bytes32",
          "name": "role",
          "type": "bytes32"
        },
        {
          "internalType": "address",
          "name": "account",
          "type": "address"
        }
      ],
      "name": "grantRole",
      "outputs": [],
      "stateMutability": "nonpayable",
      "type": "function"
    },
    {
      "inputs": [
        {
          "internalType": "bytes32",
          "name": "role",
          "type": "bytes32"
        },
        {
          "internalType": "address",
          "name": "account",
          "type": "address"
        }
      ],
      "name": "hasRole",
      "outputs": [
        {
          "internalType": "bool",
          "name": "",
          "type": "bool"
        }
      ],
      "stateMutability": "view",
      "type": "function"
    },
    {
      "inputs": [
        {
          "internalType": "address",
          "name": "owner",
          "type": "address"
        },
        {
          "internalType": "address",
          "name": "operator",
          "type": "address"
        }
      ],
      "name": "isApprovedForAll",
      "outputs": [
        {
          "internalType": "bool",
          "name": "",
          "type": "bool"
        }
      ],
      "stateMutability": "view",
      "type": "function"
    },
    {
      "inputs": [],
      "name": "name",
      "outputs": [
        {
          "internalType": "string",
          "name": "",
          "type": "string"
        }
      ],
      "stateMutability": "view",
      "type": "function"
    },
    {
      "inputs": [
        {
          "internalType": "uint256",
          "name": "tokenId",
          "type": "uint256"
        }
      ],
      "name": "ownerOf",
      "outputs": [
        {
          "internalType": "address",
          "name": "",
          "type": "address"
        }
      ],
      "stateMutability": "view",
      "type": "function"
    },
    {
      "inputs": [],
      "name": "pause",
      "outputs": [],
      "stateMutability": "nonpayable",
      "type": "function"
    },
    {
      "inputs": [],
      "name": "paused",
      "outputs": [
        {
          "internalType": "bool",
          "name": "",
          "type": "bool"
        }
      ],
      "stateMutability": "view",
      "type": "function"
    },
    {
      "inputs": [
        {
          "internalType": "bytes32",
          "name": "role",
          "type": "bytes32"
        },
        {
          "internalType": "address",
          "name": "account",
          "type": "address"
        }
      ],
      "name": "renounceRole",
      "outputs": [],
      "stateMutability": "nonpayable",
      "type": "function"
    },
    {
      "inputs": [
        {
          "internalType": "bytes32",
          "name": "role",
          "type": "bytes32"
        },
        {
          "internalType": "address",
          "name": "account",
          "type": "address"
        }
      ],
      "name": "revokeRole",
      "outputs": [],
      "stateMutability": "nonpayable",
      "type": "function"
    },
    {
      "inputs": [
        {
          "internalType": "address",
          "name": "to_",
          "type": "address"
        },
        {
          "internalType": "string",
          "name": "uri_",
          "type": "string"
        },
        {
          "internalType": "string",
          "name": "modelName_",
          "type": "string"
        },
        {
          "components": [
            {
              "internalType": "string",
              "name": "version",
              "type": "string"
            },
            {
              "internalType": "string",
              "name": "ephemPublicKey",
              "type": "string"
            },
            {
              "internalType": "string",
              "name": "nonce",
              "type": "string"
            },
            {
              "internalType": "string",
              "name": "ciphertext",
              "type": "string"
            }
          ],
          "internalType": "struct promptNFT.encryptData",
          "name": "tokenOwnerEncryptPromptData_",
          "type": "tuple"
        },
        {
          "components": [
            {
              "internalType": "string",
              "name": "version",
              "type": "string"
            },
            {
              "internalType": "string",
              "name": "ephemPublicKey",
              "type": "string"
            },
            {
              "internalType": "string",
              "name": "nonce",
              "type": "string"
            },
            {
              "internalType": "string",
              "name": "ciphertext",
              "type": "string"
            }
          ],
          "internalType": "struct promptNFT.encryptData",
          "name": "tokenOwnerEncryptNegativePromptData_",
          "type": "tuple"
        },
        {
          "components": [
            {
              "internalType": "string",
              "name": "version",
              "type": "string"
            },
            {
              "internalType": "string",
              "name": "ephemPublicKey",
              "type": "string"
            },
            {
              "internalType": "string",
              "name": "nonce",
              "type": "string"
            },
            {
              "internalType": "string",
              "name": "ciphertext",
              "type": "string"
            }
          ],
          "internalType": "struct promptNFT.encryptData",
          "name": "contractOwnerEncryptPromptData_",
          "type": "tuple"
        },
        {
          "components": [
            {
              "internalType": "string",
              "name": "version",
              "type": "string"
            },
            {
              "internalType": "string",
              "name": "ephemPublicKey",
              "type": "string"
            },
            {
              "internalType": "string",
              "name": "nonce",
              "type": "string"
            },
            {
              "internalType": "string",
              "name": "ciphertext",
              "type": "string"
            }
          ],
          "internalType": "struct promptNFT.encryptData",
          "name": "contractOwnerEncryptNegativePromptData_",
          "type": "tuple"
        }
      ],
      "name": "safeMint",
      "outputs": [
        {
          "internalType": "uint256",
          "name": "",
          "type": "uint256"
        }
      ],
      "stateMutability": "nonpayable",
      "type": "function"
    },
    {
      "inputs": [
        {
          "internalType": "address",
          "name": "from",
          "type": "address"
        },
        {
          "internalType": "address",
          "name": "to",
          "type": "address"
        },
        {
          "internalType": "uint256",
          "name": "tokenId",
          "type": "uint256"
        }
      ],
      "name": "safeTransferFrom",
      "outputs": [],
      "stateMutability": "nonpayable",
      "type": "function"
    },
    {
      "inputs": [
        {
          "internalType": "address",
          "name": "from",
          "type": "address"
        },
        {
          "internalType": "address",
          "name": "to",
          "type": "address"
        },
        {
          "internalType": "uint256",
          "name": "tokenId",
          "type": "uint256"
        },
        {
          "internalType": "bytes",
          "name": "data",
          "type": "bytes"
        }
      ],
      "name": "safeTransferFrom",
      "outputs": [],
      "stateMutability": "nonpayable",
      "type": "function"
    },
    {
      "inputs": [
        {
          "internalType": "address",
          "name": "operator",
          "type": "address"
        },
        {
          "internalType": "bool",
          "name": "approved",
          "type": "bool"
        }
      ],
      "name": "setApprovalForAll",
      "outputs": [],
      "stateMutability": "nonpayable",
      "type": "function"
    },
    {
      "inputs": [
        {
          "internalType": "bytes4",
          "name": "interfaceId",
          "type": "bytes4"
        }
      ],
      "name": "supportsInterface",
      "outputs": [
        {
          "internalType": "bool",
          "name": "",
          "type": "bool"
        }
      ],
      "stateMutability": "view",
      "type": "function"
    },
    {
      "inputs": [],
      "name": "symbol",
      "outputs": [
        {
          "internalType": "string",
          "name": "",
          "type": "string"
        }
      ],
      "stateMutability": "view",
      "type": "function"
    },
    {
      "inputs": [
        {
          "internalType": "uint256",
          "name": "index",
          "type": "uint256"
        }
      ],
      "name": "tokenByIndex",
      "outputs": [
        {
          "internalType": "uint256",
          "name": "",
          "type": "uint256"
        }
      ],
      "stateMutability": "view",
      "type": "function"
    },
    {
      "inputs": [
        {
          "internalType": "address",
          "name": "owner",
          "type": "address"
        },
        {
          "internalType": "uint256",
          "name": "index",
          "type": "uint256"
        }
      ],
      "name": "tokenOfOwnerByIndex",
      "outputs": [
        {
          "internalType": "uint256",
          "name": "",
          "type": "uint256"
        }
      ],
      "stateMutability": "view",
      "type": "function"
    },
    {
      "inputs": [
        {
          "internalType": "uint256",
          "name": "tokenId",
          "type": "uint256"
        }
      ],
      "name": "tokenURI",
      "outputs": [
        {
          "internalType": "string",
          "name": "",
          "type": "string"
        }
      ],
      "stateMutability": "view",
      "type": "function"
    },
    {
      "inputs": [],
      "name": "totalSupply",
      "outputs": [
        {
          "internalType": "uint256",
          "name": "",
          "type": "uint256"
        }
      ],
      "stateMutability": "view",
      "type": "function"
    },
    {
      "inputs": [
        {
          "internalType": "address",
          "name": "from",
          "type": "address"
        },
        {
          "internalType": "address",
          "name": "to",
          "type": "address"
        },
        {
          "internalType": "uint256",
          "name": "tokenId",
          "type": "uint256"
        }
      ],
      "name": "transferFrom",
      "outputs": [],
      "stateMutability": "nonpayable",
      "type": "function"
    },
    {
      "inputs": [],
      "name": "unpause",
      "outputs": [],
      "stateMutability": "nonpayable",
      "type": "function"
    }
  ],
  "bytecode": "0x60c06040526005608081905264302e302e3560d81b60a09081526200002891600d9190620001c3565b503480156200003657600080fd5b5060405162003e5a38038062003e5a833981016040819052620000599162000336565b82518390839062000072906000906020850190620001c3565b50805162000088906001906020840190620001c3565b5050600b805460ff1916905550600f80546001600160a01b0319166001600160a01b038316179055620000bd6000336200011e565b620000e97f65d7a28e3265b37a6474929f336521b332c1681b933f6cb9f3376673440d862a336200011e565b620001157fd0643f51bd184a6a394cdade44604c05442b11e696dabba32ec676f5e962b835336200011e565b50505062000400565b6000828152600c602090815260408083206001600160a01b038516845290915290205460ff16620001bf576000828152600c602090815260408083206001600160a01b03851684529091529020805460ff191660011790556200017e3390565b6001600160a01b0316816001600160a01b0316837f2f8788117e7eff1d82e926ec794901d17c78024a50270940304540a733656f0d60405160405180910390a45b5050565b828054620001d190620003c3565b90600052602060002090601f016020900481019282620001f5576000855562000240565b82601f106200021057805160ff191683800117855562000240565b8280016001018555821562000240579182015b828111156200024057825182559160200191906001019062000223565b506200024e92915062000252565b5090565b5b808211156200024e576000815560010162000253565b634e487b7160e01b600052604160045260246000fd5b600082601f8301126200029157600080fd5b81516001600160401b0380821115620002ae57620002ae62000269565b604051601f8301601f19908116603f01168101908282118183101715620002d957620002d962000269565b81604052838152602092508683858801011115620002f657600080fd5b600091505b838210156200031a5785820183015181830184015290820190620002fb565b838211156200032c5760008385830101525b9695505050505050565b6000806000606084860312156200034c57600080fd5b83516001600160401b03808211156200036457600080fd5b62000372878388016200027f565b945060208601519150808211156200038957600080fd5b5062000398868287016200027f565b604086015190935090506001600160a01b0381168114620003b857600080fd5b809150509250925092565b600181811c90821680620003d857607f821691505b60208210811415620003fa57634e487b7160e01b600052602260045260246000fd5b50919050565b613a4a80620004106000396000f3fe608060405234801561001057600080fd5b50600436106101b75760003560e01c806301ffc9a7146101bc57806306e54ceb146101e457806306fdde0314610205578063081812fc1461021a578063095ea7b31461023a57806318160ddd1461024f5780631827b9551461026157806323b872dd14610276578063248a9ca314610289578063289f6e331461029c5780632f2ff15d146102af5780632f745c59146102c257806336568abe146102d55780633f4ba83a146102e857806342842e0e146102f057806342966c68146103035780634f6ccce7146103165780635c975abb146103295780636352211e1461033457806370a08231146103475780638456cb591461035a57806391d148541461036257806395d89b41146103755780639a6ee03b1461037d5780639cac21b4146103905780639d58729e146103a3578063a217fddf146103b6578063a22cb465146103be578063b7ff6487146103d1578063b88d4fde146103e4578063c87b56dd146103f7578063d547741f1461040a578063e63ab1e91461041d578063e985e9c514610432578063fab4fcc514610445578063fd4d49681461045a578063ffa1ad741461046d575b600080fd5b6101cf6101ca366004613047565b610475565b60405190151581526020015b60405180910390f35b6101f76101f2366004613064565b610486565b6040516101db929190613140565b61020d610980565b6040516101db9190613165565b61022d610228366004613064565b610a12565b6040516101db9190613178565b61024d6102483660046131b1565b610a39565b005b6008545b6040519081526020016101db565b61025360008051602061399583398151915281565b61024d6102843660046131dd565b610b54565b610253610297366004613064565b610b86565b61024d6102aa36600461321e565b610b9b565b61024d6102bd36600461323b565b610bd6565b6102536102d03660046131b1565b610bf2565b61024d6102e336600461323b565b610c88565b61024d610d06565b61024d6102fe3660046131dd565b610d29565b61024d610311366004613064565b610d44565b610253610324366004613064565b610d72565b600b5460ff166101cf565b61022d610342366004613064565b610e05565b61025361035536600461321e565b610e39565b61024d610ebf565b6101cf61037036600461323b565b610edf565b61020d610f0a565b61020d61038b366004613064565b610f19565b6101f761039e366004613064565b610fbb565b61024d6103b13660046133f6565b611518565b610253600081565b61024d6103cc366004613470565b611628565b61024d6103df3660046133f6565b611633565b61024d6103f236600461349e565b61179c565b61020d610405366004613064565b6117d4565b61024d61041836600461323b565b6117df565b6102536000805160206139d583398151915281565b6101cf61044036600461351d565b6117fb565b6102536000805160206139b583398151915281565b61025361046836600461354b565b611829565b61020d611b62565b600061048082611bf0565b92915050565b61048e612f3a565b610496612f3a565b6000805160206139958339815191526104ae81611c15565b60008481526013602090815260408083206014909252918290208251608081019093528154919290918390829082906104e690613651565b80601f016020809104026020016040519081016040528092919081815260200182805461051290613651565b801561055f5780601f106105345761010080835404028352916020019161055f565b820191906000526020600020905b81548152906001019060200180831161054257829003601f168201915b5050505050815260200160018201805461057890613651565b80601f01602080910402602001604051908101604052809291908181526020018280546105a490613651565b80156105f15780601f106105c6576101008083540402835291602001916105f1565b820191906000526020600020905b8154815290600101906020018083116105d457829003601f168201915b5050505050815260200160028201805461060a90613651565b80601f016020809104026020016040519081016040528092919081815260200182805461063690613651565b80156106835780601f1061065857610100808354040283529160200191610683565b820191906000526020600020905b81548152906001019060200180831161066657829003601f168201915b5050505050815260200160038201805461069c90613651565b80601f01602080910402602001604051908101604052809291908181526020018280546106c890613651565b80156107155780601f106106ea57610100808354040283529160200191610715565b820191906000526020600020905b8154815290600101906020018083116106f857829003601f168201915b50505050508152505091508060405180608001604052908160008201805461073c90613651565b80601f016020809104026020016040519081016040528092919081815260200182805461076890613651565b80156107b55780601f1061078a576101008083540402835291602001916107b5565b820191906000526020600020905b81548152906001019060200180831161079857829003601f168201915b505050505081526020016001820180546107ce90613651565b80601f01602080910402602001604051908101604052809291908181526020018280546107fa90613651565b80156108475780601f1061081c57610100808354040283529160200191610847565b820191906000526020600020905b81548152906001019060200180831161082a57829003601f168201915b5050505050815260200160028201805461086090613651565b80601f016020809104026020016040519081016040528092919081815260200182805461088c90613651565b80156108d95780601f106108ae576101008083540402835291602001916108d9565b820191906000526020600020905b8154815290600101906020018083116108bc57829003601f168201915b505050505081526020016003820180546108f290613651565b80601f016020809104026020016040519081016040528092919081815260200182805461091e90613651565b801561096b5780601f106109405761010080835404028352916020019161096b565b820191906000526020600020905b81548152906001019060200180831161094e57829003601f168201915b50505050508152505090509250925050915091565b60606000805461098f90613651565b80601f01602080910402602001604051908101604052809291908181526020018280546109bb90613651565b8015610a085780601f106109dd57610100808354040283529160200191610a08565b820191906000526020600020905b8154815290600101906020018083116109eb57829003601f168201915b5050505050905090565b6000610a1d82611c1f565b506000908152600460205260409020546001600160a01b031690565b6000610a4482610e05565b9050806001600160a01b0316836001600160a01b03161415610ab75760405162461bcd60e51b815260206004820152602160248201527f4552433732313a20617070726f76616c20746f2063757272656e74206f776e656044820152603960f91b60648201526084015b60405180910390fd5b336001600160a01b0382161480610ad35750610ad381336117fb565b610b455760405162461bcd60e51b815260206004820152603d60248201527f4552433732313a20617070726f76652063616c6c6572206973206e6f7420746f60448201527f6b656e206f776e6572206f7220617070726f76656420666f7220616c6c0000006064820152608401610aae565b610b4f8383611c44565b505050565b610b5f335b82611cb2565b610b7b5760405162461bcd60e51b8152600401610aae9061368c565b610b4f838383611d11565b6000908152600c602052604090206001015490565b6000805160206139b5833981519152610bb381611c15565b50600f80546001600160a01b0319166001600160a01b0392909216919091179055565b610bdf82610b86565b610be881611c15565b610b4f8383611e78565b6000610bfd83610e39565b8210610c5f5760405162461bcd60e51b815260206004820152602b60248201527f455243373231456e756d657261626c653a206f776e657220696e646578206f7560448201526a74206f6620626f756e647360a81b6064820152608401610aae565b506001600160a01b03919091166000908152600660209081526040808320938352929052205490565b6001600160a01b0381163314610cf85760405162461bcd60e51b815260206004820152602f60248201527f416363657373436f6e74726f6c3a2063616e206f6e6c792072656e6f756e636560448201526e103937b632b9903337b91039b2b63360891b6064820152608401610aae565b610d028282611efe565b5050565b6000805160206139d5833981519152610d1e81611c15565b610d26611f65565b50565b610b4f8383836040518060200160405280600081525061179c565b610d4d33610b59565b610d695760405162461bcd60e51b8152600401610aae9061368c565b610d2681611fb1565b6000610d7d60085490565b8210610de05760405162461bcd60e51b815260206004820152602c60248201527f455243373231456e756d657261626c653a20676c6f62616c20696e646578206f60448201526b7574206f6620626f756e647360a01b6064820152608401610aae565b60088281548110610df357610df36136d9565b90600052602060002001549050919050565b600080610e1183612042565b90506001600160a01b0381166104805760405162461bcd60e51b8152600401610aae906136ef565b60006001600160a01b038216610ea35760405162461bcd60e51b815260206004820152602960248201527f4552433732313a2061646472657373207a65726f206973206e6f7420612076616044820152683634b21037bbb732b960b91b6064820152608401610aae565b506001600160a01b031660009081526003602052604090205490565b6000805160206139d5833981519152610ed781611c15565b610d2661205d565b6000918252600c602090815260408084206001600160a01b0393909316845291905290205460ff1690565b60606001805461098f90613651565b6000818152601060205260409020805460609190610f3690613651565b80601f0160208091040260200160405190810160405280929190818152602001828054610f6290613651565b8015610faf5780601f10610f8457610100808354040283529160200191610faf565b820191906000526020600020905b815481529060010190602001808311610f9257829003601f168201915b50505050509050919050565b610fc3612f3a565b610fcb612f3a565b610fd6335b84611cb2565b6110475760405162461bcd60e51b815260206004820152603c60248201527f4552433732313a20676574546f6b656e4f776e657250726f6d70742063616c6c60448201527b195c881a5cc81b9bdd081bdddb995c881b9bdc88185c1c1c9bdd995960221b6064820152608401610aae565b600083815260116020908152604080832060129092529182902082516080810190935281549192909183908290829061107f90613651565b80601f01602080910402602001604051908101604052809291908181526020018280546110ab90613651565b80156110f85780601f106110cd576101008083540402835291602001916110f8565b820191906000526020600020905b8154815290600101906020018083116110db57829003601f168201915b5050505050815260200160018201805461111190613651565b80601f016020809104026020016040519081016040528092919081815260200182805461113d90613651565b801561118a5780601f1061115f5761010080835404028352916020019161118a565b820191906000526020600020905b81548152906001019060200180831161116d57829003601f168201915b505050505081526020016002820180546111a390613651565b80601f01602080910402602001604051908101604052809291908181526020018280546111cf90613651565b801561121c5780601f106111f15761010080835404028352916020019161121c565b820191906000526020600020905b8154815290600101906020018083116111ff57829003601f168201915b5050505050815260200160038201805461123590613651565b80601f016020809104026020016040519081016040528092919081815260200182805461126190613651565b80156112ae5780601f10611283576101008083540402835291602001916112ae565b820191906000526020600020905b81548152906001019060200180831161129157829003601f168201915b5050505050815250509150806040518060800160405290816000820180546112d590613651565b80601f016020809104026020016040519081016040528092919081815260200182805461130190613651565b801561134e5780601f106113235761010080835404028352916020019161134e565b820191906000526020600020905b81548152906001019060200180831161133157829003601f168201915b5050505050815260200160018201805461136790613651565b80601f016020809104026020016040519081016040528092919081815260200182805461139390613651565b80156113e05780601f106113b5576101008083540402835291602001916113e0565b820191906000526020600020905b8154815290600101906020018083116113c357829003601f168201915b505050505081526020016002820180546113f990613651565b80601f016020809104026020016040519081016040528092919081815260200182805461142590613651565b80156114725780601f1061144757610100808354040283529160200191611472565b820191906000526020600020905b81548152906001019060200180831161145557829003601f168201915b5050505050815260200160038201805461148b90613651565b80601f01602080910402602001604051908101604052809291908181526020018280546114b790613651565b80156115045780601f106114d957610100808354040283529160200191611504565b820191906000526020600020905b8154815290600101906020018083116114e757829003601f168201915b505050505081525050905091509150915091565b60008051602061399583398151915261153081611c15565b6000848152601360209081526040909120845180518693611555928492910190612f62565b50602082810151805161156e9260018501920190612f62565b506040820151805161158a916002840191602090910190612f62565b50606082015180516115a6916003840191602090910190612f62565b50505060008481526014602090815260409091208351805185936115ce928492910190612f62565b5060208281015180516115e79260018501920190612f62565b5060408201518051611603916002840191602090910190612f62565b506060820151805161161f916003840191602090910190612f62565b50505050505050565b610d0233838361209a565b61163c33610fd0565b6116a55760405162461bcd60e51b815260206004820152603460248201527f4552433732313a20636c61696d50726f6d70742063616c6c6572206973206e6f6044820152731d081bdddb995c881b9bdc88185c1c1c9bdd995960621b6064820152608401610aae565b60008381526011602090815260409091208351805185936116ca928492910190612f62565b5060208281015180516116e39260018501920190612f62565b50604082015180516116ff916002840191602090910190612f62565b506060820151805161171b916003840191602090910190612f62565b5050506000838152601260209081526040909120825180518493611743928492910190612f62565b50602082810151805161175c9260018501920190612f62565b5060408201518051611778916002840191602090910190612f62565b5060608201518051611794916003840191602090910190612f62565b505050505050565b6117a63383611cb2565b6117c25760405162461bcd60e51b8152600401610aae9061368c565b6117ce84848484612165565b50505050565b606061048082612198565b6117e882610b86565b6117f181611c15565b610b4f8383611efe565b6001600160a01b03918216600090815260056020908152604080832093909416825291909152205460ff1690565b6000611839600e80546001019055565b6000611844600e5490565b905061185089826122a1565b61185a81896122bb565b60008181526010602090815260409091208851611879928a0190612f62565b50600081815260116020908152604090912087518051899361189f928492910190612f62565b5060208281015180516118b89260018501920190612f62565b50604082015180516118d4916002840191602090910190612f62565b50606082015180516118f0916003840191602090910190612f62565b5050506000818152601260209081526040909120865180518893611918928492910190612f62565b5060208281015180516119319260018501920190612f62565b506040820151805161194d916002840191602090910190612f62565b5060608201518051611969916003840191602090910190612f62565b5050506000818152601360209081526040909120855180518793611991928492910190612f62565b5060208281015180516119aa9260018501920190612f62565b50604082015180516119c6916002840191602090910190612f62565b50606082015180516119e2916003840191602090910190612f62565b5050506000818152601460209081526040909120845180518693611a0a928492910190612f62565b506020828101518051611a239260018501920190612f62565b5060408201518051611a3f916002840191602090910190612f62565b5060608201518051611a5b916003840191602090910190612f62565b5050600f546040516317a6b60960e01b815230600482015260248101849052600092506001600160a01b03909116906317a6b60990604401602060405180830381600087803b158015611aad57600080fd5b505af1158015611ac1573d6000803e3d6000fd5b505050506040513d601f19601f82011682018060405250810190611ae59190613721565b905080611b555760405162461bcd60e51b815260206004820152603860248201527f43616c6c2072656769737465724e46542066756e6374696f6e206f662072656e6044820152773a26b0b935b2ba1031b7b73a3930b1ba103330b4b632b21760411b6064820152608401610aae565b5098975050505050505050565b600d8054611b6f90613651565b80601f0160208091040260200160405190810160405280929190818152602001828054611b9b90613651565b8015611be85780601f10611bbd57610100808354040283529160200191611be8565b820191906000526020600020905b815481529060010190602001808311611bcb57829003601f168201915b505050505081565b60006001600160e01b03198216637965db0b60e01b1480610480575061048082612346565b610d26813361236b565b611c28816123c4565b610d265760405162461bcd60e51b8152600401610aae906136ef565b600081815260046020526040902080546001600160a01b0319166001600160a01b0384169081179091558190611c7982610e05565b6001600160a01b03167f8c5be1e5ebec7d5bd14f71427d1e84f3dd0314c0f7b2291e5b200ac8c7c3b92560405160405180910390a45050565b600080611cbe83610e05565b9050806001600160a01b0316846001600160a01b03161480611ce55750611ce581856117fb565b80611d095750836001600160a01b0316611cfe84610a12565b6001600160a01b0316145b949350505050565b826001600160a01b0316611d2482610e05565b6001600160a01b031614611d4a5760405162461bcd60e51b8152600401610aae9061373e565b6001600160a01b038216611dac5760405162461bcd60e51b8152602060048201526024808201527f4552433732313a207472616e7366657220746f20746865207a65726f206164646044820152637265737360e01b6064820152608401610aae565b611db983838360016123e1565b826001600160a01b0316611dcc82610e05565b6001600160a01b031614611df25760405162461bcd60e51b8152600401610aae9061373e565b600081815260046020908152604080832080546001600160a01b03199081169091556001600160a01b0387811680865260038552838620805460001901905590871680865283862080546001019055868652600290945282852080549092168417909155905184936000805160206139f583398151915291a4610b4f83838360016123f5565b611e828282610edf565b610d02576000828152600c602090815260408083206001600160a01b03851684529091529020805460ff19166001179055611eba3390565b6001600160a01b0316816001600160a01b0316837f2f8788117e7eff1d82e926ec794901d17c78024a50270940304540a733656f0d60405160405180910390a45050565b611f088282610edf565b15610d02576000828152600c602090815260408083206001600160a01b0385168085529252808320805460ff1916905551339285917ff6391f5c32d9c69d2a47ea670b442974b53935d1edc7fd64eb21e047a839171b9190a45050565b611f6d612440565b600b805460ff191690557f5db9ee0a495bf2e6ff9c91a7834c1ba4fdd244a5e8aa4e537bd38aeae4b073aa335b604051611fa79190613178565b60405180910390a1565b611fba8161248b565b600081815260116020526040812090611fd38282612fe6565b611fe1600183016000612fe6565b611fef600283016000612fe6565b611ffd600383016000612fe6565b50506000818152601360205260408120906120188282612fe6565b612026600183016000612fe6565b612034600283016000612fe6565b610b4f600383016000612fe6565b6000908152600260205260409020546001600160a01b031690565b6120656124cb565b600b805460ff191660011790557f62e78cea01bee320cd4e420270b5ea74000d11b0c9f74754ebdbfc544b05a258611f9a3390565b816001600160a01b0316836001600160a01b031614156120f85760405162461bcd60e51b815260206004820152601960248201527822a9219b99189d1030b8383937bb32903a379031b0b63632b960391b6044820152606401610aae565b6001600160a01b03838116600081815260056020908152604080832094871680845294825291829020805460ff191686151590811790915591519182527f17307eab39ab6107e8899845ad3d59bd9653f200f220920489ca2b5937696c31910160405180910390a3505050565b612170848484611d11565b61217c84848484612511565b6117ce5760405162461bcd60e51b8152600401610aae90613783565b60606121a382611c1f565b6000828152600a6020526040812080546121bc90613651565b80601f01602080910402602001604051908101604052809291908181526020018280546121e890613651565b80156122355780601f1061220a57610100808354040283529160200191612235565b820191906000526020600020905b81548152906001019060200180831161221857829003601f168201915b50505050509050600061225360408051602081019091526000815290565b9050805160001415612266575092915050565b8151156122985780826040516020016122809291906137d5565b60405160208183030381529060405292505050919050565b611d098461261e565b610d02828260405180602001604052806000815250612692565b6122c4826123c4565b6123275760405162461bcd60e51b815260206004820152602e60248201527f45524337323155524953746f726167653a2055524920736574206f66206e6f6e60448201526d32bc34b9ba32b73a103a37b5b2b760911b6064820152608401610aae565b6000828152600a602090815260409091208251610b4f92840190612f62565b60006001600160e01b0319821663780e9d6360e01b14806104805750610480826126c5565b6123758282610edf565b610d025761238281612715565b61238d836020612727565b60405160200161239e929190613804565b60408051601f198184030181529082905262461bcd60e51b8252610aae91600401613165565b6000806123d083612042565b6001600160a01b0316141592915050565b6123e96124cb565b6117ce848484846128c2565b6123fd6124cb565b6000828152601160205260408120906124168282612fe6565b612424600183016000612fe6565b612432600283016000612fe6565b611794600383016000612fe6565b600b5460ff166124895760405162461bcd60e51b815260206004820152601460248201527314185d5cd8589b194e881b9bdd081c185d5cd95960621b6044820152606401610aae565b565b61249481612a02565b6000818152600a6020526040902080546124ad90613651565b159050610d26576000818152600a60205260408120610d2691612fe6565b600b5460ff16156124895760405162461bcd60e51b815260206004820152601060248201526f14185d5cd8589b194e881c185d5cd95960821b6044820152606401610aae565b60006001600160a01b0384163b1561261357604051630a85bd0160e11b81526001600160a01b0385169063150b7a0290612555903390899088908890600401613873565b602060405180830381600087803b15801561256f57600080fd5b505af192505050801561259f575060408051601f3d908101601f1916820190925261259c918101906138b0565b60015b6125f9573d8080156125cd576040519150601f19603f3d011682016040523d82523d6000602084013e6125d2565b606091505b5080516125f15760405162461bcd60e51b8152600401610aae90613783565b805181602001fd5b6001600160e01b031916630a85bd0160e11b149050611d09565b506001949350505050565b606061262982611c1f565b600061264060408051602081019091526000815290565b90506000815111612660576040518060200160405280600081525061268b565b8061266a84612a9d565b60405160200161267b9291906137d5565b6040516020818303038152906040525b9392505050565b61269c8383612b39565b6126a96000848484612511565b610b4f5760405162461bcd60e51b8152600401610aae90613783565b60006001600160e01b031982166380ac58cd60e01b14806126f657506001600160e01b03198216635b5e139f60e01b145b8061048057506301ffc9a760e01b6001600160e01b0319831614610480565b60606104806001600160a01b03831660145b606060006127368360026138e3565b612741906002613902565b6001600160401b038111156127585761275861326b565b6040519080825280601f01601f191660200182016040528015612782576020820181803683370190505b509050600360fc1b8160008151811061279d5761279d6136d9565b60200101906001600160f81b031916908160001a905350600f60fb1b816001815181106127cc576127cc6136d9565b60200101906001600160f81b031916908160001a90535060006127f08460026138e3565b6127fb906001613902565b90505b6001811115612873576f181899199a1a9b1b9c1cb0b131b232b360811b85600f166010811061282f5761282f6136d9565b1a60f81b828281518110612845576128456136d9565b60200101906001600160f81b031916908160001a90535060049490941c9361286c8161391a565b90506127fe565b50831561268b5760405162461bcd60e51b815260206004820181905260248201527f537472696e67733a20686578206c656e67746820696e73756666696369656e746044820152606401610aae565b6128ce84848484612c4c565b600181111561293d5760405162461bcd60e51b815260206004820152603560248201527f455243373231456e756d657261626c653a20636f6e7365637574697665207472604482015274185b9cd9995c9cc81b9bdd081cdd5c1c1bdc9d1959605a1b6064820152608401610aae565b816001600160a01b0385166129995761299481600880546000838152600960205260408120829055600182018355919091527ff3f7a9fe364faab93b216da50a3214154f22a0a2b415b23a84c8169e8b636ee30155565b6129bc565b836001600160a01b0316856001600160a01b0316146129bc576129bc8582612cd4565b6001600160a01b0384166129d8576129d381612d71565b6129fb565b846001600160a01b0316846001600160a01b0316146129fb576129fb8482612e20565b5050505050565b6000612a0d82610e05565b9050612a1d8160008460016123e1565b612a2682610e05565b600083815260046020908152604080832080546001600160a01b03199081169091556001600160a01b0385168085526003845282852080546000190190558785526002909352818420805490911690555192935084926000805160206139f5833981519152908390a4610d028160008460016123f5565b60606000612aaa83612e64565b60010190506000816001600160401b03811115612ac957612ac961326b565b6040519080825280601f01601f191660200182016040528015612af3576020820181803683370190505b5090508181016020015b600019016f181899199a1a9b1b9c1cb0b131b232b360811b600a86061a8153600a8504945084612b2c57612b31565b612afd565b509392505050565b6001600160a01b038216612b8f5760405162461bcd60e51b815260206004820181905260248201527f4552433732313a206d696e7420746f20746865207a65726f20616464726573736044820152606401610aae565b612b98816123c4565b15612bb55760405162461bcd60e51b8152600401610aae90613931565b612bc36000838360016123e1565b612bcc816123c4565b15612be95760405162461bcd60e51b8152600401610aae90613931565b6001600160a01b038216600081815260036020908152604080832080546001019055848352600290915280822080546001600160a01b0319168417905551839291906000805160206139f5833981519152908290a4610d026000838360016123f5565b60018111156117ce576001600160a01b03841615612c92576001600160a01b03841660009081526003602052604081208054839290612c8c908490613967565b90915550505b6001600160a01b038316156117ce576001600160a01b03831660009081526003602052604081208054839290612cc9908490613902565b909155505050505050565b60006001612ce184610e39565b612ceb9190613967565b600083815260076020526040902054909150808214612d3e576001600160a01b03841660009081526006602090815260408083208584528252808320548484528184208190558352600790915290208190555b5060009182526007602090815260408084208490556001600160a01b039094168352600681528383209183525290812055565b600854600090612d8390600190613967565b60008381526009602052604081205460088054939450909284908110612dab57612dab6136d9565b906000526020600020015490508060088381548110612dcc57612dcc6136d9565b6000918252602080832090910192909255828152600990915260408082208490558582528120556008805480612e0457612e0461397e565b6001900381819060005260206000200160009055905550505050565b6000612e2b83610e39565b6001600160a01b039093166000908152600660209081526040808320868452825280832085905593825260079052919091209190915550565b60008072184f03e93ff9f4daa797ed6e38ed64bf6a1f0160401b8310612ea35772184f03e93ff9f4daa797ed6e38ed64bf6a1f0160401b830492506040015b6904ee2d6d415b85acef8160201b8310612ecd576904ee2d6d415b85acef8160201b830492506020015b662386f26fc100008310612eeb57662386f26fc10000830492506010015b6305f5e1008310612f03576305f5e100830492506008015b6127108310612f1757612710830492506004015b60648310612f29576064830492506002015b600a83106104805760010192915050565b6040518060800160405280606081526020016060815260200160608152602001606081525090565b828054612f6e90613651565b90600052602060002090601f016020900481019282612f905760008555612fd6565b82601f10612fa957805160ff1916838001178555612fd6565b82800160010185558215612fd6579182015b82811115612fd6578251825591602001919060010190612fbb565b50612fe292915061301c565b5090565b508054612ff290613651565b6000825580601f10613002575050565b601f016020900490600052602060002090810190610d2691905b5b80821115612fe2576000815560010161301d565b6001600160e01b031981168114610d2657600080fd5b60006020828403121561305957600080fd5b813561268b81613031565b60006020828403121561307657600080fd5b5035919050565b60005b83811015613098578181015183820152602001613080565b838111156117ce5750506000910152565b600081518084526130c181602086016020860161307d565b601f01601f19169290920160200192915050565b60008151608084526130ea60808501826130a9565b90506020830151848203602086015261310382826130a9565b9150506040830151848203604086015261311d82826130a9565b9150506060830151848203606086015261313782826130a9565b95945050505050565b60408152600061315360408301856130d5565b828103602084015261313781856130d5565b60208152600061268b60208301846130a9565b6001600160a01b0391909116815260200190565b6001600160a01b0381168114610d2657600080fd5b80356131ac8161318c565b919050565b600080604083850312156131c457600080fd5b82356131cf8161318c565b946020939093013593505050565b6000806000606084860312156131f257600080fd5b83356131fd8161318c565b9250602084013561320d8161318c565b929592945050506040919091013590565b60006020828403121561323057600080fd5b813561268b8161318c565b6000806040838503121561324e57600080fd5b8235915060208301356132608161318c565b809150509250929050565b634e487b7160e01b600052604160045260246000fd5b604051608081016001600160401b03811182821017156132a3576132a361326b565b60405290565b60006001600160401b03808411156132c3576132c361326b565b604051601f8501601f19908116603f011681019082821181831017156132eb576132eb61326b565b8160405280935085815286868601111561330457600080fd5b858560208301376000602087830101525050509392505050565b600082601f83011261332f57600080fd5b61268b838335602085016132a9565b60006080828403121561335057600080fd5b613358613281565b905081356001600160401b038082111561337157600080fd5b61337d8583860161331e565b8352602084013591508082111561339357600080fd5b61339f8583860161331e565b602084015260408401359150808211156133b857600080fd5b6133c48583860161331e565b604084015260608401359150808211156133dd57600080fd5b506133ea8482850161331e565b60608301525092915050565b60008060006060848603121561340b57600080fd5b8335925060208401356001600160401b038082111561342957600080fd5b6134358783880161333e565b9350604086013591508082111561344b57600080fd5b506134588682870161333e565b9150509250925092565b8015158114610d2657600080fd5b6000806040838503121561348357600080fd5b823561348e8161318c565b9150602083013561326081613462565b600080600080608085870312156134b457600080fd5b84356134bf8161318c565b935060208501356134cf8161318c565b92506040850135915060608501356001600160401b038111156134f157600080fd5b8501601f8101871361350257600080fd5b613511878235602084016132a9565b91505092959194509250565b6000806040838503121561353057600080fd5b823561353b8161318c565b915060208301356132608161318c565b600080600080600080600060e0888a03121561356657600080fd5b61356f886131a1565b965060208801356001600160401b038082111561358b57600080fd5b6135978b838c0161331e565b975060408a01359150808211156135ad57600080fd5b6135b98b838c0161331e565b965060608a01359150808211156135cf57600080fd5b6135db8b838c0161333e565b955060808a01359150808211156135f157600080fd5b6135fd8b838c0161333e565b945060a08a013591508082111561361357600080fd5b61361f8b838c0161333e565b935060c08a013591508082111561363557600080fd5b506136428a828b0161333e565b91505092959891949750929550565b600181811c9082168061366557607f821691505b6020821081141561368657634e487b7160e01b600052602260045260246000fd5b50919050565b6020808252602d908201527f4552433732313a2063616c6c6572206973206e6f7420746f6b656e206f776e6560408201526c1c881bdc88185c1c1c9bdd9959609a1b606082015260800190565b634e487b7160e01b600052603260045260246000fd5b602080825260189082015277115490cdcc8c4e881a5b9d985b1a59081d1bdad95b88125160421b604082015260600190565b60006020828403121561373357600080fd5b815161268b81613462565b60208082526025908201527f4552433732313a207472616e736665722066726f6d20696e636f72726563742060408201526437bbb732b960d91b606082015260800190565b60208082526032908201527f4552433732313a207472616e7366657220746f206e6f6e20455243373231526560408201527131b2b4bb32b91034b6b83632b6b2b73a32b960711b606082015260800190565b600083516137e781846020880161307d565b8351908301906137fb81836020880161307d565b01949350505050565b76020b1b1b2b9b9a1b7b73a3937b61d1030b1b1b7bab73a1604d1b81526000835161383681601785016020880161307d565b7001034b99036b4b9b9b4b733903937b6329607d1b601791840191820152835161386781602884016020880161307d565b01602801949350505050565b6001600160a01b03858116825284166020820152604081018390526080606082018190526000906138a6908301846130a9565b9695505050505050565b6000602082840312156138c257600080fd5b815161268b81613031565b634e487b7160e01b600052601160045260246000fd5b60008160001904831182151516156138fd576138fd6138cd565b500290565b60008219821115613915576139156138cd565b500190565b600081613929576139296138cd565b506000190190565b6020808252601c908201527b115490cdcc8c4e881d1bdad95b88185b1c9958591e481b5a5b9d195960221b604082015260600190565b600082821015613979576139796138cd565b500390565b634e487b7160e01b600052603160045260246000fdfed0643f51bd184a6a394cdade44604c05442b11e696dabba32ec676f5e962b8356310cf9c937bcad92df0897b8ab11d37ff788bec126c5807fb57fb0423e3f40d65d7a28e3265b37a6474929f336521b332c1681b933f6cb9f3376673440d862addf252ad1be2c89b69c2b068fc378daa952ba7f163c4a11628f55a4df523b3efa264697066735822122020c28955b369ad9d7a7e89e93b24c1e152c78fcda7cdb7241980605af3898e7f64736f6c63430008090033",
  "linkReferences": {},
  "deployedLinkReferences": {}
}