{
  "_format": "hh-sol-artifact-1",
  "contractName": "promptNFT",
  "sourceName": "contracts/promptNFT.sol",
  "abi": [
    {
      "inputs": [
        {
          "internalType": "string",
          "name": "name_",
          "type": "string"
        },
        {
          "internalType": "string",
          "name": "symbol_",
          "type": "string"
        },
        {
          "internalType": "address payable",
          "name": "rentMarketContractAddress_",
          "type": "address"
        }
      ],
      "stateMutability": "nonpayable",
      "type": "constructor"
    },
    {
      "anonymous": false,
      "inputs": [
        {
          "indexed": true,
          "internalType": "address",
          "name": "owner",
          "type": "address"
        },
        {
          "indexed": true,
          "internalType": "address",
          "name": "approved",
          "type": "address"
        },
        {
          "indexed": true,
          "internalType": "uint256",
          "name": "tokenId",
          "type": "uint256"
        }
      ],
      "name": "Approval",
      "type": "event"
    },
    {
      "anonymous": false,
      "inputs": [
        {
          "indexed": true,
          "internalType": "address",
          "name": "owner",
          "type": "address"
        },
        {
          "indexed": true,
          "internalType": "address",
          "name": "operator",
          "type": "address"
        },
        {
          "indexed": false,
          "internalType": "bool",
          "name": "approved",
          "type": "bool"
        }
      ],
      "name": "ApprovalForAll",
      "type": "event"
    },
    {
      "anonymous": false,
      "inputs": [
        {
          "indexed": false,
          "internalType": "address",
          "name": "account",
          "type": "address"
        }
      ],
      "name": "Paused",
      "type": "event"
    },
    {
      "anonymous": false,
      "inputs": [
        {
          "indexed": true,
          "internalType": "bytes32",
          "name": "role",
          "type": "bytes32"
        },
        {
          "indexed": true,
          "internalType": "bytes32",
          "name": "previousAdminRole",
          "type": "bytes32"
        },
        {
          "indexed": true,
          "internalType": "bytes32",
          "name": "newAdminRole",
          "type": "bytes32"
        }
      ],
      "name": "RoleAdminChanged",
      "type": "event"
    },
    {
      "anonymous": false,
      "inputs": [
        {
          "indexed": true,
          "internalType": "bytes32",
          "name": "role",
          "type": "bytes32"
        },
        {
          "indexed": true,
          "internalType": "address",
          "name": "account",
          "type": "address"
        },
        {
          "indexed": true,
          "internalType": "address",
          "name": "sender",
          "type": "address"
        }
      ],
      "name": "RoleGranted",
      "type": "event"
    },
    {
      "anonymous": false,
      "inputs": [
        {
          "indexed": true,
          "internalType": "bytes32",
          "name": "role",
          "type": "bytes32"
        },
        {
          "indexed": true,
          "internalType": "address",
          "name": "account",
          "type": "address"
        },
        {
          "indexed": true,
          "internalType": "address",
          "name": "sender",
          "type": "address"
        }
      ],
      "name": "RoleRevoked",
      "type": "event"
    },
    {
      "anonymous": false,
      "inputs": [
        {
          "indexed": true,
          "internalType": "address",
          "name": "from",
          "type": "address"
        },
        {
          "indexed": true,
          "internalType": "address",
          "name": "to",
          "type": "address"
        },
        {
          "indexed": true,
          "internalType": "uint256",
          "name": "tokenId",
          "type": "uint256"
        }
      ],
      "name": "Transfer",
      "type": "event"
    },
    {
      "anonymous": false,
      "inputs": [
        {
          "indexed": false,
          "internalType": "address",
          "name": "account",
          "type": "address"
        }
      ],
      "name": "Unpaused",
      "type": "event"
    },
    {
      "inputs": [],
      "name": "CHANGER_ROLE",
      "outputs": [
        {
          "internalType": "bytes32",
          "name": "",
          "type": "bytes32"
        }
      ],
      "stateMutability": "view",
      "type": "function"
    },
    {
      "inputs": [],
      "name": "DEFAULT_ADMIN_ROLE",
      "outputs": [
        {
          "internalType": "bytes32",
          "name": "",
          "type": "bytes32"
        }
      ],
      "stateMutability": "view",
      "type": "function"
    },
    {
      "inputs": [],
      "name": "PAUSER_ROLE",
      "outputs": [
        {
          "internalType": "bytes32",
          "name": "",
          "type": "bytes32"
        }
      ],
      "stateMutability": "view",
      "type": "function"
    },
    {
      "inputs": [],
      "name": "PROMPTER_ROLE",
      "outputs": [
        {
          "internalType": "bytes32",
          "name": "",
          "type": "bytes32"
        }
      ],
      "stateMutability": "view",
      "type": "function"
    },
    {
      "inputs": [
        {
          "internalType": "address",
          "name": "to",
          "type": "address"
        },
        {
          "internalType": "uint256",
          "name": "tokenId",
          "type": "uint256"
        }
      ],
      "name": "approve",
      "outputs": [],
      "stateMutability": "nonpayable",
      "type": "function"
    },
    {
      "inputs": [
        {
          "internalType": "address",
          "name": "owner",
          "type": "address"
        }
      ],
      "name": "balanceOf",
      "outputs": [
        {
          "internalType": "uint256",
          "name": "",
          "type": "uint256"
        }
      ],
      "stateMutability": "view",
      "type": "function"
    },
    {
      "inputs": [
        {
          "internalType": "uint256",
          "name": "tokenId",
          "type": "uint256"
        }
      ],
      "name": "burn",
      "outputs": [],
      "stateMutability": "nonpayable",
      "type": "function"
    },
    {
      "inputs": [
        {
          "internalType": "address payable",
          "name": "rentMarketContractAddress_",
          "type": "address"
        }
      ],
      "name": "changeRentMarketContract",
      "outputs": [],
      "stateMutability": "nonpayable",
      "type": "function"
    },
    {
      "inputs": [
        {
          "internalType": "uint256",
          "name": "tokenId",
          "type": "uint256"
        },
        {
          "components": [
            {
              "internalType": "string",
              "name": "version",
              "type": "string"
            },
            {
              "internalType": "string",
              "name": "ephemPublicKey",
              "type": "string"
            },
            {
              "internalType": "string",
              "name": "nonce",
              "type": "string"
            },
            {
              "internalType": "string",
              "name": "ciphertext",
              "type": "string"
            }
          ],
          "internalType": "struct promptNFT.encryptData",
          "name": "contractOwnerEncryptPromptData",
          "type": "tuple"
        },
        {
          "components": [
            {
              "internalType": "string",
              "name": "version",
              "type": "string"
            },
            {
              "internalType": "string",
              "name": "ephemPublicKey",
              "type": "string"
            },
            {
              "internalType": "string",
              "name": "nonce",
              "type": "string"
            },
            {
              "internalType": "string",
              "name": "ciphertext",
              "type": "string"
            }
          ],
          "internalType": "struct promptNFT.encryptData",
          "name": "contractOwnerEncryptNegativePromptData",
          "type": "tuple"
        }
      ],
      "name": "claimContractOwnerPrompt",
      "outputs": [],
      "stateMutability": "nonpayable",
      "type": "function"
    },
    {
      "inputs": [
        {
          "internalType": "uint256",
          "name": "tokenId",
          "type": "uint256"
        },
        {
          "components": [
            {
              "internalType": "string",
              "name": "version",
              "type": "string"
            },
            {
              "internalType": "string",
              "name": "ephemPublicKey",
              "type": "string"
            },
            {
              "internalType": "string",
              "name": "nonce",
              "type": "string"
            },
            {
              "internalType": "string",
              "name": "ciphertext",
              "type": "string"
            }
          ],
          "internalType": "struct promptNFT.encryptData",
          "name": "tokenOwnerEncryptPromptData",
          "type": "tuple"
        },
        {
          "components": [
            {
              "internalType": "string",
              "name": "version",
              "type": "string"
            },
            {
              "internalType": "string",
              "name": "ephemPublicKey",
              "type": "string"
            },
            {
              "internalType": "string",
              "name": "nonce",
              "type": "string"
            },
            {
              "internalType": "string",
              "name": "ciphertext",
              "type": "string"
            }
          ],
          "internalType": "struct promptNFT.encryptData",
          "name": "tokenOwnerEncryptNegativePromptData",
          "type": "tuple"
        }
      ],
      "name": "claimTokenOwnerPrompt",
      "outputs": [],
      "stateMutability": "nonpayable",
      "type": "function"
    },
    {
      "inputs": [
        {
          "internalType": "uint256",
          "name": "tokenId",
          "type": "uint256"
        }
      ],
      "name": "getApproved",
      "outputs": [
        {
          "internalType": "address",
          "name": "",
          "type": "address"
        }
      ],
      "stateMutability": "view",
      "type": "function"
    },
    {
      "inputs": [
        {
          "internalType": "uint256",
          "name": "tokenId",
          "type": "uint256"
        }
      ],
      "name": "getContractOwnerPrompt",
      "outputs": [
        {
          "components": [
            {
              "internalType": "string",
              "name": "version",
              "type": "string"
            },
            {
              "internalType": "string",
              "name": "ephemPublicKey",
              "type": "string"
            },
            {
              "internalType": "string",
              "name": "nonce",
              "type": "string"
            },
            {
              "internalType": "string",
              "name": "ciphertext",
              "type": "string"
            }
          ],
          "internalType": "struct promptNFT.encryptData",
          "name": "",
          "type": "tuple"
        },
        {
          "components": [
            {
              "internalType": "string",
              "name": "version",
              "type": "string"
            },
            {
              "internalType": "string",
              "name": "ephemPublicKey",
              "type": "string"
            },
            {
              "internalType": "string",
              "name": "nonce",
              "type": "string"
            },
            {
              "internalType": "string",
              "name": "ciphertext",
              "type": "string"
            }
          ],
          "internalType": "struct promptNFT.encryptData",
          "name": "",
          "type": "tuple"
        }
      ],
      "stateMutability": "view",
      "type": "function"
    },
    {
      "inputs": [
        {
          "internalType": "bytes32",
          "name": "role",
          "type": "bytes32"
        }
      ],
      "name": "getRoleAdmin",
      "outputs": [
        {
          "internalType": "bytes32",
          "name": "",
          "type": "bytes32"
        }
      ],
      "stateMutability": "view",
      "type": "function"
    },
    {
      "inputs": [
        {
          "internalType": "uint256",
          "name": "tokenId",
          "type": "uint256"
        }
      ],
      "name": "getTokenOwnerPrompt",
      "outputs": [
        {
          "components": [
            {
              "internalType": "string",
              "name": "version",
              "type": "string"
            },
            {
              "internalType": "string",
              "name": "ephemPublicKey",
              "type": "string"
            },
            {
              "internalType": "string",
              "name": "nonce",
              "type": "string"
            },
            {
              "internalType": "string",
              "name": "ciphertext",
              "type": "string"
            }
          ],
          "internalType": "struct promptNFT.encryptData",
          "name": "",
          "type": "tuple"
        },
        {
          "components": [
            {
              "internalType": "string",
              "name": "version",
              "type": "string"
            },
            {
              "internalType": "string",
              "name": "ephemPublicKey",
              "type": "string"
            },
            {
              "internalType": "string",
              "name": "nonce",
              "type": "string"
            },
            {
              "internalType": "string",
              "name": "ciphertext",
              "type": "string"
            }
          ],
          "internalType": "struct promptNFT.encryptData",
          "name": "",
          "type": "tuple"
        }
      ],
      "stateMutability": "view",
      "type": "function"
    },
    {
      "inputs": [
        {
          "internalType": "bytes32",
          "name": "role",
          "type": "bytes32"
        },
        {
          "internalType": "address",
          "name": "account",
          "type": "address"
        }
      ],
      "name": "grantRole",
      "outputs": [],
      "stateMutability": "nonpayable",
      "type": "function"
    },
    {
      "inputs": [
        {
          "internalType": "bytes32",
          "name": "role",
          "type": "bytes32"
        },
        {
          "internalType": "address",
          "name": "account",
          "type": "address"
        }
      ],
      "name": "hasRole",
      "outputs": [
        {
          "internalType": "bool",
          "name": "",
          "type": "bool"
        }
      ],
      "stateMutability": "view",
      "type": "function"
    },
    {
      "inputs": [
        {
          "internalType": "address",
          "name": "owner",
          "type": "address"
        },
        {
          "internalType": "address",
          "name": "operator",
          "type": "address"
        }
      ],
      "name": "isApprovedForAll",
      "outputs": [
        {
          "internalType": "bool",
          "name": "",
          "type": "bool"
        }
      ],
      "stateMutability": "view",
      "type": "function"
    },
    {
      "inputs": [],
      "name": "name",
      "outputs": [
        {
          "internalType": "string",
          "name": "",
          "type": "string"
        }
      ],
      "stateMutability": "view",
      "type": "function"
    },
    {
      "inputs": [
        {
          "internalType": "uint256",
          "name": "tokenId",
          "type": "uint256"
        }
      ],
      "name": "ownerOf",
      "outputs": [
        {
          "internalType": "address",
          "name": "",
          "type": "address"
        }
      ],
      "stateMutability": "view",
      "type": "function"
    },
    {
      "inputs": [],
      "name": "pause",
      "outputs": [],
      "stateMutability": "nonpayable",
      "type": "function"
    },
    {
      "inputs": [],
      "name": "paused",
      "outputs": [
        {
          "internalType": "bool",
          "name": "",
          "type": "bool"
        }
      ],
      "stateMutability": "view",
      "type": "function"
    },
    {
      "inputs": [
        {
          "internalType": "bytes32",
          "name": "role",
          "type": "bytes32"
        },
        {
          "internalType": "address",
          "name": "account",
          "type": "address"
        }
      ],
      "name": "renounceRole",
      "outputs": [],
      "stateMutability": "nonpayable",
      "type": "function"
    },
    {
      "inputs": [
        {
          "internalType": "bytes32",
          "name": "role",
          "type": "bytes32"
        },
        {
          "internalType": "address",
          "name": "account",
          "type": "address"
        }
      ],
      "name": "revokeRole",
      "outputs": [],
      "stateMutability": "nonpayable",
      "type": "function"
    },
    {
      "inputs": [
        {
          "internalType": "address",
          "name": "to_",
          "type": "address"
        },
        {
          "internalType": "string",
          "name": "uri_",
          "type": "string"
        },
        {
          "components": [
            {
              "internalType": "string",
              "name": "version",
              "type": "string"
            },
            {
              "internalType": "string",
              "name": "ephemPublicKey",
              "type": "string"
            },
            {
              "internalType": "string",
              "name": "nonce",
              "type": "string"
            },
            {
              "internalType": "string",
              "name": "ciphertext",
              "type": "string"
            }
          ],
          "internalType": "struct promptNFT.encryptData",
          "name": "tokenOwnerEncryptPromptData_",
          "type": "tuple"
        },
        {
          "components": [
            {
              "internalType": "string",
              "name": "version",
              "type": "string"
            },
            {
              "internalType": "string",
              "name": "ephemPublicKey",
              "type": "string"
            },
            {
              "internalType": "string",
              "name": "nonce",
              "type": "string"
            },
            {
              "internalType": "string",
              "name": "ciphertext",
              "type": "string"
            }
          ],
          "internalType": "struct promptNFT.encryptData",
          "name": "tokenOwnerEncryptNegativePromptData_",
          "type": "tuple"
        },
        {
          "components": [
            {
              "internalType": "string",
              "name": "version",
              "type": "string"
            },
            {
              "internalType": "string",
              "name": "ephemPublicKey",
              "type": "string"
            },
            {
              "internalType": "string",
              "name": "nonce",
              "type": "string"
            },
            {
              "internalType": "string",
              "name": "ciphertext",
              "type": "string"
            }
          ],
          "internalType": "struct promptNFT.encryptData",
          "name": "contractOwnerEncryptPromptData_",
          "type": "tuple"
        },
        {
          "components": [
            {
              "internalType": "string",
              "name": "version",
              "type": "string"
            },
            {
              "internalType": "string",
              "name": "ephemPublicKey",
              "type": "string"
            },
            {
              "internalType": "string",
              "name": "nonce",
              "type": "string"
            },
            {
              "internalType": "string",
              "name": "ciphertext",
              "type": "string"
            }
          ],
          "internalType": "struct promptNFT.encryptData",
          "name": "contractOwnerEncryptNegativePromptData_",
          "type": "tuple"
        }
      ],
      "name": "safeMint",
      "outputs": [
        {
          "internalType": "uint256",
          "name": "",
          "type": "uint256"
        }
      ],
      "stateMutability": "nonpayable",
      "type": "function"
    },
    {
      "inputs": [
        {
          "internalType": "address",
          "name": "from",
          "type": "address"
        },
        {
          "internalType": "address",
          "name": "to",
          "type": "address"
        },
        {
          "internalType": "uint256",
          "name": "tokenId",
          "type": "uint256"
        }
      ],
      "name": "safeTransferFrom",
      "outputs": [],
      "stateMutability": "nonpayable",
      "type": "function"
    },
    {
      "inputs": [
        {
          "internalType": "address",
          "name": "from",
          "type": "address"
        },
        {
          "internalType": "address",
          "name": "to",
          "type": "address"
        },
        {
          "internalType": "uint256",
          "name": "tokenId",
          "type": "uint256"
        },
        {
          "internalType": "bytes",
          "name": "data",
          "type": "bytes"
        }
      ],
      "name": "safeTransferFrom",
      "outputs": [],
      "stateMutability": "nonpayable",
      "type": "function"
    },
    {
      "inputs": [
        {
          "internalType": "address",
          "name": "operator",
          "type": "address"
        },
        {
          "internalType": "bool",
          "name": "approved",
          "type": "bool"
        }
      ],
      "name": "setApprovalForAll",
      "outputs": [],
      "stateMutability": "nonpayable",
      "type": "function"
    },
    {
      "inputs": [
        {
          "internalType": "bytes4",
          "name": "interfaceId",
          "type": "bytes4"
        }
      ],
      "name": "supportsInterface",
      "outputs": [
        {
          "internalType": "bool",
          "name": "",
          "type": "bool"
        }
      ],
      "stateMutability": "view",
      "type": "function"
    },
    {
      "inputs": [],
      "name": "symbol",
      "outputs": [
        {
          "internalType": "string",
          "name": "",
          "type": "string"
        }
      ],
      "stateMutability": "view",
      "type": "function"
    },
    {
      "inputs": [
        {
          "internalType": "uint256",
          "name": "index",
          "type": "uint256"
        }
      ],
      "name": "tokenByIndex",
      "outputs": [
        {
          "internalType": "uint256",
          "name": "",
          "type": "uint256"
        }
      ],
      "stateMutability": "view",
      "type": "function"
    },
    {
      "inputs": [
        {
          "internalType": "address",
          "name": "owner",
          "type": "address"
        },
        {
          "internalType": "uint256",
          "name": "index",
          "type": "uint256"
        }
      ],
      "name": "tokenOfOwnerByIndex",
      "outputs": [
        {
          "internalType": "uint256",
          "name": "",
          "type": "uint256"
        }
      ],
      "stateMutability": "view",
      "type": "function"
    },
    {
      "inputs": [
        {
          "internalType": "uint256",
          "name": "tokenId",
          "type": "uint256"
        }
      ],
      "name": "tokenURI",
      "outputs": [
        {
          "internalType": "string",
          "name": "",
          "type": "string"
        }
      ],
      "stateMutability": "view",
      "type": "function"
    },
    {
      "inputs": [],
      "name": "totalSupply",
      "outputs": [
        {
          "internalType": "uint256",
          "name": "",
          "type": "uint256"
        }
      ],
      "stateMutability": "view",
      "type": "function"
    },
    {
      "inputs": [
        {
          "internalType": "address",
          "name": "from",
          "type": "address"
        },
        {
          "internalType": "address",
          "name": "to",
          "type": "address"
        },
        {
          "internalType": "uint256",
          "name": "tokenId",
          "type": "uint256"
        }
      ],
      "name": "transferFrom",
      "outputs": [],
      "stateMutability": "nonpayable",
      "type": "function"
    },
    {
      "inputs": [],
      "name": "unpause",
      "outputs": [],
      "stateMutability": "nonpayable",
      "type": "function"
    }
  ],
  "bytecode": "0x60806040523480156200001157600080fd5b506040516200645138038062006451833981810160405281019062000037919062000562565b8282816000908051906020019062000051929190620002b0565b5080600190805190602001906200006a929190620002b0565b5050506000600b60006101000a81548160ff02191690831515021790555080600e60006101000a81548173ffffffffffffffffffffffffffffffffffffffff021916908373ffffffffffffffffffffffffffffffffffffffff160217905550620000de6000801b336200014b60201b60201c565b620001107f65d7a28e3265b37a6474929f336521b332c1681b933f6cb9f3376673440d862a336200014b60201b60201c565b620001427fd0643f51bd184a6a394cdade44604c05442b11e696dabba32ec676f5e962b835336200014b60201b60201c565b50505062000661565b6200015d82826200023d60201b60201c565b62000239576001600c600084815260200190815260200160002060000160008373ffffffffffffffffffffffffffffffffffffffff1673ffffffffffffffffffffffffffffffffffffffff16815260200190815260200160002060006101000a81548160ff021916908315150217905550620001de620002a860201b60201c565b73ffffffffffffffffffffffffffffffffffffffff168173ffffffffffffffffffffffffffffffffffffffff16837f2f8788117e7eff1d82e926ec794901d17c78024a50270940304540a733656f0d60405160405180910390a45b5050565b6000600c600084815260200190815260200160002060000160008373ffffffffffffffffffffffffffffffffffffffff1673ffffffffffffffffffffffffffffffffffffffff16815260200190815260200160002060009054906101000a900460ff16905092915050565b600033905090565b828054620002be906200062b565b90600052602060002090601f016020900481019282620002e257600085556200032e565b82601f10620002fd57805160ff19168380011785556200032e565b828001600101855582156200032e579182015b828111156200032d57825182559160200191906001019062000310565b5b5090506200033d919062000341565b5090565b5b808211156200035c57600081600090555060010162000342565b5090565b6000604051905090565b600080fd5b600080fd5b600080fd5b600080fd5b6000601f19601f8301169050919050565b7f4e487b7100000000000000000000000000000000000000000000000000000000600052604160045260246000fd5b620003c9826200037e565b810181811067ffffffffffffffff82111715620003eb57620003ea6200038f565b5b80604052505050565b60006200040062000360565b90506200040e8282620003be565b919050565b600067ffffffffffffffff8211156200043157620004306200038f565b5b6200043c826200037e565b9050602081019050919050565b60005b83811015620004695780820151818401526020810190506200044c565b8381111562000479576000848401525b50505050565b600062000496620004908462000413565b620003f4565b905082815260208101848484011115620004b557620004b462000379565b5b620004c284828562000449565b509392505050565b600082601f830112620004e257620004e162000374565b5b8151620004f48482602086016200047f565b91505092915050565b600073ffffffffffffffffffffffffffffffffffffffff82169050919050565b60006200052a82620004fd565b9050919050565b6200053c816200051d565b81146200054857600080fd5b50565b6000815190506200055c8162000531565b92915050565b6000806000606084860312156200057e576200057d6200036a565b5b600084015167ffffffffffffffff8111156200059f576200059e6200036f565b5b620005ad86828701620004ca565b935050602084015167ffffffffffffffff811115620005d157620005d06200036f565b5b620005df86828701620004ca565b9250506040620005f2868287016200054b565b9150509250925092565b7f4e487b7100000000000000000000000000000000000000000000000000000000600052602260045260246000fd5b600060028204905060018216806200064457607f821691505b602082108114156200065b576200065a620005fc565b5b50919050565b615de080620006716000396000f3fe608060405234801561001057600080fd5b50600436106102115760003560e01c80635c975abb11610125578063a22cb465116100ad578063d236a7751161007c578063d236a77514610624578063d547741f14610654578063e63ab1e914610670578063e985e9c51461068e578063fab4fcc5146106be57610211565b8063a22cb465146105a0578063b7ff6487146105bc578063b88d4fde146105d8578063c87b56dd146105f457610211565b806391d14854116100f457806391d14854146104e757806395d89b41146105175780639cac21b4146105355780639d58729e14610566578063a217fddf1461058257610211565b80635c975abb1461045f5780636352211e1461047d57806370a08231146104ad5780638456cb59146104dd57610211565b8063248a9ca3116101a857806336568abe1161017757806336568abe146103d15780633f4ba83a146103ed57806342842e0e146103f757806342966c68146104135780634f6ccce71461042f57610211565b8063248a9ca314610339578063289f6e33146103695780632f2ff15d146103855780632f745c59146103a157610211565b8063095ea7b3116101e4578063095ea7b3146102c557806318160ddd146102e15780631827b955146102ff57806323b872dd1461031d57610211565b806301ffc9a71461021657806306e54ceb1461024657806306fdde0314610277578063081812fc14610295575b600080fd5b610230600480360381019061022b91906142be565b6106dc565b60405161023d9190614306565b60405180910390f35b610260600480360381019061025b9190614357565b6106ee565b60405161026e929190614495565b60405180910390f35b61027f610c04565b60405161028c9190614516565b60405180910390f35b6102af60048036038101906102aa9190614357565b610c96565b6040516102bc9190614579565b60405180910390f35b6102df60048036038101906102da91906145c0565b610cdc565b005b6102e9610df4565b6040516102f6919061460f565b60405180910390f35b610307610e01565b6040516103149190614643565b60405180910390f35b6103376004803603810190610332919061465e565b610e25565b005b610353600480360381019061034e91906146dd565b610e85565b6040516103609190614643565b60405180910390f35b610383600480360381019061037e9190614748565b610ea5565b005b61039f600480360381019061039a9190614775565b610f14565b005b6103bb60048036038101906103b691906145c0565b610f35565b6040516103c8919061460f565b60405180910390f35b6103eb60048036038101906103e69190614775565b610fda565b005b6103f561105d565b005b610411600480360381019061040c919061465e565b611092565b005b61042d60048036038101906104289190614357565b6110b2565b005b61044960048036038101906104449190614357565b61110e565b604051610456919061460f565b60405180910390f35b61046761117f565b6040516104749190614306565b60405180910390f35b61049760048036038101906104929190614357565b611196565b6040516104a49190614579565b60405180910390f35b6104c760048036038101906104c291906147b5565b61121d565b6040516104d4919061460f565b60405180910390f35b6104e56112d5565b005b61050160048036038101906104fc9190614775565b61130a565b60405161050e9190614306565b60405180910390f35b61051f611375565b60405161052c9190614516565b60405180910390f35b61054f600480360381019061054a9190614357565b611407565b60405161055d929190614495565b60405180910390f35b610580600480360381019061057b9190614a09565b611942565b005b61058a611a88565b6040516105979190614643565b60405180910390f35b6105ba60048036038101906105b59190614ac0565b611a8f565b005b6105d660048036038101906105d19190614a09565b611aa5565b005b6105f260048036038101906105ed9190614ba1565b611c10565b005b61060e60048036038101906106099190614357565b611c72565b60405161061b9190614516565b60405180910390f35b61063e60048036038101906106399190614c24565b611c84565b60405161064b919061460f565b60405180910390f35b61066e60048036038101906106699190614775565b611fef565b005b610678612010565b6040516106859190614643565b60405180910390f35b6106a860048036038101906106a39190614d3d565b612034565b6040516106b59190614306565b60405180910390f35b6106c66120c8565b6040516106d39190614643565b60405180910390f35b60006106e7826120ec565b9050919050565b6106f6614147565b6106fe614147565b7fd0643f51bd184a6a394cdade44604c05442b11e696dabba32ec676f5e962b83561072881612166565b60116000858152602001908152602001600020601260008681526020019081526020016000208160405180608001604052908160008201805461076a90614dac565b80601f016020809104026020016040519081016040528092919081815260200182805461079690614dac565b80156107e35780601f106107b8576101008083540402835291602001916107e3565b820191906000526020600020905b8154815290600101906020018083116107c657829003601f168201915b505050505081526020016001820180546107fc90614dac565b80601f016020809104026020016040519081016040528092919081815260200182805461082890614dac565b80156108755780601f1061084a57610100808354040283529160200191610875565b820191906000526020600020905b81548152906001019060200180831161085857829003601f168201915b5050505050815260200160028201805461088e90614dac565b80601f01602080910402602001604051908101604052809291908181526020018280546108ba90614dac565b80156109075780601f106108dc57610100808354040283529160200191610907565b820191906000526020600020905b8154815290600101906020018083116108ea57829003601f168201915b5050505050815260200160038201805461092090614dac565b80601f016020809104026020016040519081016040528092919081815260200182805461094c90614dac565b80156109995780601f1061096e57610100808354040283529160200191610999565b820191906000526020600020905b81548152906001019060200180831161097c57829003601f168201915b5050505050815250509150806040518060800160405290816000820180546109c090614dac565b80601f01602080910402602001604051908101604052809291908181526020018280546109ec90614dac565b8015610a395780601f10610a0e57610100808354040283529160200191610a39565b820191906000526020600020905b815481529060010190602001808311610a1c57829003601f168201915b50505050508152602001600182018054610a5290614dac565b80601f0160208091040260200160405190810160405280929190818152602001828054610a7e90614dac565b8015610acb5780601f10610aa057610100808354040283529160200191610acb565b820191906000526020600020905b815481529060010190602001808311610aae57829003601f168201915b50505050508152602001600282018054610ae490614dac565b80601f0160208091040260200160405190810160405280929190818152602001828054610b1090614dac565b8015610b5d5780601f10610b3257610100808354040283529160200191610b5d565b820191906000526020600020905b815481529060010190602001808311610b4057829003601f168201915b50505050508152602001600382018054610b7690614dac565b80601f0160208091040260200160405190810160405280929190818152602001828054610ba290614dac565b8015610bef5780601f10610bc457610100808354040283529160200191610bef565b820191906000526020600020905b815481529060010190602001808311610bd257829003601f168201915b50505050508152505090509250925050915091565b606060008054610c1390614dac565b80601f0160208091040260200160405190810160405280929190818152602001828054610c3f90614dac565b8015610c8c5780601f10610c6157610100808354040283529160200191610c8c565b820191906000526020600020905b815481529060010190602001808311610c6f57829003601f168201915b5050505050905090565b6000610ca18261217a565b6004600083815260200190815260200160002060009054906101000a900473ffffffffffffffffffffffffffffffffffffffff169050919050565b6000610ce782611196565b90508073ffffffffffffffffffffffffffffffffffffffff168373ffffffffffffffffffffffffffffffffffffffff161415610d58576040517f08c379a0000000000000000000000000000000000000000000000000000000008152600401610d4f90614e50565b60405180910390fd5b8073ffffffffffffffffffffffffffffffffffffffff16610d776121c5565b73ffffffffffffffffffffffffffffffffffffffff161480610da65750610da581610da06121c5565b612034565b5b610de5576040517f08c379a0000000000000000000000000000000000000000000000000000000008152600401610ddc90614ee2565b60405180910390fd5b610def83836121cd565b505050565b6000600880549050905090565b7fd0643f51bd184a6a394cdade44604c05442b11e696dabba32ec676f5e962b83581565b610e36610e306121c5565b82612286565b610e75576040517f08c379a0000000000000000000000000000000000000000000000000000000008152600401610e6c90614f74565b60405180910390fd5b610e8083838361231b565b505050565b6000600c6000838152602001908152602001600020600101549050919050565b7f6310cf9c937bcad92df0897b8ab11d37ff788bec126c5807fb57fb0423e3f40d610ecf81612166565b81600e60006101000a81548173ffffffffffffffffffffffffffffffffffffffff021916908373ffffffffffffffffffffffffffffffffffffffff1602179055505050565b610f1d82610e85565b610f2681612166565b610f308383612615565b505050565b6000610f408361121d565b8210610f81576040517f08c379a0000000000000000000000000000000000000000000000000000000008152600401610f7890615006565b60405180910390fd5b600660008473ffffffffffffffffffffffffffffffffffffffff1673ffffffffffffffffffffffffffffffffffffffff168152602001908152602001600020600083815260200190815260200160002054905092915050565b610fe26121c5565b73ffffffffffffffffffffffffffffffffffffffff168173ffffffffffffffffffffffffffffffffffffffff161461104f576040517f08c379a000000000000000000000000000000000000000000000000000000000815260040161104690615098565b60405180910390fd5b61105982826126f6565b5050565b7f65d7a28e3265b37a6474929f336521b332c1681b933f6cb9f3376673440d862a61108781612166565b61108f6127d8565b50565b6110ad83838360405180602001604052806000815250611c10565b505050565b6110c36110bd6121c5565b82612286565b611102576040517f08c379a00000000000000000000000000000000000000000000000000000000081526004016110f990614f74565b60405180910390fd5b61110b8161283b565b50565b6000611118610df4565b8210611159576040517f08c379a00000000000000000000000000000000000000000000000000000000081526004016111509061512a565b60405180910390fd5b6008828154811061116d5761116c61514a565b5b90600052602060002001549050919050565b6000600b60009054906101000a900460ff16905090565b6000806111a2836128f3565b9050600073ffffffffffffffffffffffffffffffffffffffff168173ffffffffffffffffffffffffffffffffffffffff161415611214576040517f08c379a000000000000000000000000000000000000000000000000000000000815260040161120b906151c5565b60405180910390fd5b80915050919050565b60008073ffffffffffffffffffffffffffffffffffffffff168273ffffffffffffffffffffffffffffffffffffffff16141561128e576040517f08c379a000000000000000000000000000000000000000000000000000000000815260040161128590615257565b60405180910390fd5b600360008373ffffffffffffffffffffffffffffffffffffffff1673ffffffffffffffffffffffffffffffffffffffff168152602001908152602001600020549050919050565b7f65d7a28e3265b37a6474929f336521b332c1681b933f6cb9f3376673440d862a6112ff81612166565b611307612930565b50565b6000600c600084815260200190815260200160002060000160008373ffffffffffffffffffffffffffffffffffffffff1673ffffffffffffffffffffffffffffffffffffffff16815260200190815260200160002060009054906101000a900460ff16905092915050565b60606001805461138490614dac565b80601f01602080910402602001604051908101604052809291908181526020018280546113b090614dac565b80156113fd5780601f106113d2576101008083540402835291602001916113fd565b820191906000526020600020905b8154815290600101906020018083116113e057829003601f168201915b5050505050905090565b61140f614147565b611417614147565b6114286114226121c5565b84612286565b611467576040517f08c379a000000000000000000000000000000000000000000000000000000000815260040161145e906152e9565b60405180910390fd5b600f600084815260200190815260200160002060106000858152602001908152602001600020816040518060800160405290816000820180546114a990614dac565b80601f01602080910402602001604051908101604052809291908181526020018280546114d590614dac565b80156115225780601f106114f757610100808354040283529160200191611522565b820191906000526020600020905b81548152906001019060200180831161150557829003601f168201915b5050505050815260200160018201805461153b90614dac565b80601f016020809104026020016040519081016040528092919081815260200182805461156790614dac565b80156115b45780601f10611589576101008083540402835291602001916115b4565b820191906000526020600020905b81548152906001019060200180831161159757829003601f168201915b505050505081526020016002820180546115cd90614dac565b80601f01602080910402602001604051908101604052809291908181526020018280546115f990614dac565b80156116465780601f1061161b57610100808354040283529160200191611646565b820191906000526020600020905b81548152906001019060200180831161162957829003601f168201915b5050505050815260200160038201805461165f90614dac565b80601f016020809104026020016040519081016040528092919081815260200182805461168b90614dac565b80156116d85780601f106116ad576101008083540402835291602001916116d8565b820191906000526020600020905b8154815290600101906020018083116116bb57829003601f168201915b5050505050815250509150806040518060800160405290816000820180546116ff90614dac565b80601f016020809104026020016040519081016040528092919081815260200182805461172b90614dac565b80156117785780601f1061174d57610100808354040283529160200191611778565b820191906000526020600020905b81548152906001019060200180831161175b57829003601f168201915b5050505050815260200160018201805461179190614dac565b80601f01602080910402602001604051908101604052809291908181526020018280546117bd90614dac565b801561180a5780601f106117df5761010080835404028352916020019161180a565b820191906000526020600020905b8154815290600101906020018083116117ed57829003601f168201915b5050505050815260200160028201805461182390614dac565b80601f016020809104026020016040519081016040528092919081815260200182805461184f90614dac565b801561189c5780601f106118715761010080835404028352916020019161189c565b820191906000526020600020905b81548152906001019060200180831161187f57829003601f168201915b505050505081526020016003820180546118b590614dac565b80601f01602080910402602001604051908101604052809291908181526020018280546118e190614dac565b801561192e5780601f106119035761010080835404028352916020019161192e565b820191906000526020600020905b81548152906001019060200180831161191157829003601f168201915b505050505081525050905091509150915091565b7fd0643f51bd184a6a394cdade44604c05442b11e696dabba32ec676f5e962b83561196c81612166565b8260116000868152602001908152602001600020600082015181600001908051906020019061199c92919061416f565b5060208201518160010190805190602001906119b992919061416f565b5060408201518160020190805190602001906119d692919061416f565b5060608201518160030190805190602001906119f392919061416f565b5090505081601260008681526020019081526020016000206000820151816000019080519060200190611a2792919061416f565b506020820151816001019080519060200190611a4492919061416f565b506040820151816002019080519060200190611a6192919061416f565b506060820151816003019080519060200190611a7e92919061416f565b5090505050505050565b6000801b81565b611aa1611a9a6121c5565b8383612993565b5050565b611ab6611ab06121c5565b84612286565b611af5576040517f08c379a0000000000000000000000000000000000000000000000000000000008152600401611aec9061537b565b60405180910390fd5b81600f60008581526020019081526020016000206000820151816000019080519060200190611b2592919061416f565b506020820151816001019080519060200190611b4292919061416f565b506040820151816002019080519060200190611b5f92919061416f565b506060820151816003019080519060200190611b7c92919061416f565b5090505080601060008581526020019081526020016000206000820151816000019080519060200190611bb092919061416f565b506020820151816001019080519060200190611bcd92919061416f565b506040820151816002019080519060200190611bea92919061416f565b506060820151816003019080519060200190611c0792919061416f565b50905050505050565b611c21611c1b6121c5565b83612286565b611c60576040517f08c379a0000000000000000000000000000000000000000000000000000000008152600401611c5790614f74565b60405180910390fd5b611c6c84848484612b00565b50505050565b6060611c7d82612b5c565b9050919050565b6000611c90600d612c6f565b6000611c9c600d612c85565b9050611ca88882612c93565b611cb28188612cb1565b85600f60008381526020019081526020016000206000820151816000019080519060200190611ce292919061416f565b506020820151816001019080519060200190611cff92919061416f565b506040820151816002019080519060200190611d1c92919061416f565b506060820151816003019080519060200190611d3992919061416f565b5090505084601060008381526020019081526020016000206000820151816000019080519060200190611d6d92919061416f565b506020820151816001019080519060200190611d8a92919061416f565b506040820151816002019080519060200190611da792919061416f565b506060820151816003019080519060200190611dc492919061416f565b5090505083601160008381526020019081526020016000206000820151816000019080519060200190611df892919061416f565b506020820151816001019080519060200190611e1592919061416f565b506040820151816002019080519060200190611e3292919061416f565b506060820151816003019080519060200190611e4f92919061416f565b5090505082601260008381526020019081526020016000206000820151816000019080519060200190611e8392919061416f565b506020820151816001019080519060200190611ea092919061416f565b506040820151816002019080519060200190611ebd92919061416f565b506060820151816003019080519060200190611eda92919061416f565b509050506000600e60009054906101000a900473ffffffffffffffffffffffffffffffffffffffff1673ffffffffffffffffffffffffffffffffffffffff166317a6b60930846040518363ffffffff1660e01b8152600401611f3d92919061539b565b602060405180830381600087803b158015611f5757600080fd5b505af1158015611f6b573d6000803e3d6000fd5b505050506040513d601f19601f82011682018060405250810190611f8f91906153d9565b9050600015158115151415611fe0576000611fdf576040517f08c379a0000000000000000000000000000000000000000000000000000000008152600401611fd690615478565b60405180910390fd5b5b81925050509695505050505050565b611ff882610e85565b61200181612166565b61200b83836126f6565b505050565b7f65d7a28e3265b37a6474929f336521b332c1681b933f6cb9f3376673440d862a81565b6000600560008473ffffffffffffffffffffffffffffffffffffffff1673ffffffffffffffffffffffffffffffffffffffff16815260200190815260200160002060008373ffffffffffffffffffffffffffffffffffffffff1673ffffffffffffffffffffffffffffffffffffffff16815260200190815260200160002060009054906101000a900460ff16905092915050565b7f6310cf9c937bcad92df0897b8ab11d37ff788bec126c5807fb57fb0423e3f40d81565b60007f7965db0b000000000000000000000000000000000000000000000000000000007bffffffffffffffffffffffffffffffffffffffffffffffffffffffff1916827bffffffffffffffffffffffffffffffffffffffffffffffffffffffff1916148061215f575061215e82612d25565b5b9050919050565b612177816121726121c5565b612d9f565b50565b61218381612e24565b6121c2576040517f08c379a00000000000000000000000000000000000000000000000000000000081526004016121b9906151c5565b60405180910390fd5b50565b600033905090565b816004600083815260200190815260200160002060006101000a81548173ffffffffffffffffffffffffffffffffffffffff021916908373ffffffffffffffffffffffffffffffffffffffff160217905550808273ffffffffffffffffffffffffffffffffffffffff1661224083611196565b73ffffffffffffffffffffffffffffffffffffffff167f8c5be1e5ebec7d5bd14f71427d1e84f3dd0314c0f7b2291e5b200ac8c7c3b92560405160405180910390a45050565b60008061229283611196565b90508073ffffffffffffffffffffffffffffffffffffffff168473ffffffffffffffffffffffffffffffffffffffff1614806122d457506122d38185612034565b5b8061231257508373ffffffffffffffffffffffffffffffffffffffff166122fa84610c96565b73ffffffffffffffffffffffffffffffffffffffff16145b91505092915050565b8273ffffffffffffffffffffffffffffffffffffffff1661233b82611196565b73ffffffffffffffffffffffffffffffffffffffff1614612391576040517f08c379a00000000000000000000000000000000000000000000000000000000081526004016123889061550a565b60405180910390fd5b600073ffffffffffffffffffffffffffffffffffffffff168273ffffffffffffffffffffffffffffffffffffffff161415612401576040517f08c379a00000000000000000000000000000000000000000000000000000000081526004016123f89061559c565b60405180910390fd5b61240e8383836001612e65565b8273ffffffffffffffffffffffffffffffffffffffff1661242e82611196565b73ffffffffffffffffffffffffffffffffffffffff1614612484576040517f08c379a000000000000000000000000000000000000000000000000000000000815260040161247b9061550a565b60405180910390fd5b6004600082815260200190815260200160002060006101000a81549073ffffffffffffffffffffffffffffffffffffffff02191690556001600360008573ffffffffffffffffffffffffffffffffffffffff1673ffffffffffffffffffffffffffffffffffffffff168152602001908152602001600020600082825403925050819055506001600360008473ffffffffffffffffffffffffffffffffffffffff1673ffffffffffffffffffffffffffffffffffffffff16815260200190815260200160002060008282540192505081905550816002600083815260200190815260200160002060006101000a81548173ffffffffffffffffffffffffffffffffffffffff021916908373ffffffffffffffffffffffffffffffffffffffff160217905550808273ffffffffffffffffffffffffffffffffffffffff168473ffffffffffffffffffffffffffffffffffffffff167fddf252ad1be2c89b69c2b068fc378daa952ba7f163c4a11628f55a4df523b3ef60405160405180910390a46126108383836001612e7f565b505050565b61261f828261130a565b6126f2576001600c600084815260200190815260200160002060000160008373ffffffffffffffffffffffffffffffffffffffff1673ffffffffffffffffffffffffffffffffffffffff16815260200190815260200160002060006101000a81548160ff0219169083151502179055506126976121c5565b73ffffffffffffffffffffffffffffffffffffffff168173ffffffffffffffffffffffffffffffffffffffff16837f2f8788117e7eff1d82e926ec794901d17c78024a50270940304540a733656f0d60405160405180910390a45b5050565b612700828261130a565b156127d4576000600c600084815260200190815260200160002060000160008373ffffffffffffffffffffffffffffffffffffffff1673ffffffffffffffffffffffffffffffffffffffff16815260200190815260200160002060006101000a81548160ff0219169083151502179055506127796121c5565b73ffffffffffffffffffffffffffffffffffffffff168173ffffffffffffffffffffffffffffffffffffffff16837ff6391f5c32d9c69d2a47ea670b442974b53935d1edc7fd64eb21e047a839171b60405160405180910390a45b5050565b6127e0612eef565b6000600b60006101000a81548160ff0219169083151502179055507f5db9ee0a495bf2e6ff9c91a7834c1ba4fdd244a5e8aa4e537bd38aeae4b073aa6128246121c5565b6040516128319190614579565b60405180910390a1565b61284481612f38565b600f60008281526020019081526020016000206000808201600061286891906141f5565b60018201600061287891906141f5565b60028201600061288891906141f5565b60038201600061289891906141f5565b505060116000828152602001908152602001600020600080820160006128be91906141f5565b6001820160006128ce91906141f5565b6002820160006128de91906141f5565b6003820160006128ee91906141f5565b505050565b60006002600083815260200190815260200160002060009054906101000a900473ffffffffffffffffffffffffffffffffffffffff169050919050565b612938612f8b565b6001600b60006101000a81548160ff0219169083151502179055507f62e78cea01bee320cd4e420270b5ea74000d11b0c9f74754ebdbfc544b05a25861297c6121c5565b6040516129899190614579565b60405180910390a1565b8173ffffffffffffffffffffffffffffffffffffffff168373ffffffffffffffffffffffffffffffffffffffff161415612a02576040517f08c379a00000000000000000000000000000000000000000000000000000000081526004016129f990615608565b60405180910390fd5b80600560008573ffffffffffffffffffffffffffffffffffffffff1673ffffffffffffffffffffffffffffffffffffffff16815260200190815260200160002060008473ffffffffffffffffffffffffffffffffffffffff1673ffffffffffffffffffffffffffffffffffffffff16815260200190815260200160002060006101000a81548160ff0219169083151502179055508173ffffffffffffffffffffffffffffffffffffffff168373ffffffffffffffffffffffffffffffffffffffff167f17307eab39ab6107e8899845ad3d59bd9653f200f220920489ca2b5937696c3183604051612af39190614306565b60405180910390a3505050565b612b0b84848461231b565b612b1784848484612fd5565b612b56576040517f08c379a0000000000000000000000000000000000000000000000000000000008152600401612b4d9061569a565b60405180910390fd5b50505050565b6060612b678261217a565b6000600a60008481526020019081526020016000208054612b8790614dac565b80601f0160208091040260200160405190810160405280929190818152602001828054612bb390614dac565b8015612c005780601f10612bd557610100808354040283529160200191612c00565b820191906000526020600020905b815481529060010190602001808311612be357829003601f168201915b505050505090506000612c1161316c565b9050600081511415612c27578192505050612c6a565b600082511115612c5c578082604051602001612c449291906156f6565b60405160208183030381529060405292505050612c6a565b612c6584613183565b925050505b919050565b6001816000016000828254019250508190555050565b600081600001549050919050565b612cad8282604051806020016040528060008152506131eb565b5050565b612cba82612e24565b612cf9576040517f08c379a0000000000000000000000000000000000000000000000000000000008152600401612cf09061578c565b60405180910390fd5b80600a60008481526020019081526020016000209080519060200190612d2092919061416f565b505050565b60007f780e9d63000000000000000000000000000000000000000000000000000000007bffffffffffffffffffffffffffffffffffffffffffffffffffffffff1916827bffffffffffffffffffffffffffffffffffffffffffffffffffffffff19161480612d985750612d9782613246565b5b9050919050565b612da9828261130a565b612e2057612db681613328565b612dc48360001c6020613355565b604051602001612dd5929190615844565b6040516020818303038152906040526040517f08c379a0000000000000000000000000000000000000000000000000000000008152600401612e179190614516565b60405180910390fd5b5050565b60008073ffffffffffffffffffffffffffffffffffffffff16612e46836128f3565b73ffffffffffffffffffffffffffffffffffffffff1614159050919050565b612e6d612f8b565b612e7984848484613591565b50505050565b612e87612f8b565b612e93848484846136f1565b600f600083815260200190815260200160002060008082016000612eb791906141f5565b600182016000612ec791906141f5565b600282016000612ed791906141f5565b600382016000612ee791906141f5565b505050505050565b612ef761117f565b612f36576040517f08c379a0000000000000000000000000000000000000000000000000000000008152600401612f2d906158ca565b60405180910390fd5b565b612f41816136f7565b6000600a60008381526020019081526020016000208054612f6190614dac565b905014612f8857600a60008281526020019081526020016000206000612f8791906141f5565b5b50565b612f9361117f565b15612fd3576040517f08c379a0000000000000000000000000000000000000000000000000000000008152600401612fca90615936565b60405180910390fd5b565b6000612ff68473ffffffffffffffffffffffffffffffffffffffff16613845565b1561315f578373ffffffffffffffffffffffffffffffffffffffff1663150b7a0261301f6121c5565b8786866040518563ffffffff1660e01b815260040161304194939291906159ab565b602060405180830381600087803b15801561305b57600080fd5b505af192505050801561308c57506040513d601f19601f820116820180604052508101906130899190615a0c565b60015b61310f573d80600081146130bc576040519150601f19603f3d011682016040523d82523d6000602084013e6130c1565b606091505b50600081511415613107576040517f08c379a00000000000000000000000000000000000000000000000000000000081526004016130fe9061569a565b60405180910390fd5b805181602001fd5b63150b7a0260e01b7bffffffffffffffffffffffffffffffffffffffffffffffffffffffff1916817bffffffffffffffffffffffffffffffffffffffffffffffffffffffff191614915050613164565b600190505b949350505050565b606060405180602001604052806000815250905090565b606061318e8261217a565b600061319861316c565b905060008151116131b857604051806020016040528060008152506131e3565b806131c284613868565b6040516020016131d39291906156f6565b6040516020818303038152906040525b915050919050565b6131f58383613940565b6132026000848484612fd5565b613241576040517f08c379a00000000000000000000000000000000000000000000000000000000081526004016132389061569a565b60405180910390fd5b505050565b60007f80ac58cd000000000000000000000000000000000000000000000000000000007bffffffffffffffffffffffffffffffffffffffffffffffffffffffff1916827bffffffffffffffffffffffffffffffffffffffffffffffffffffffff1916148061331157507f5b5e139f000000000000000000000000000000000000000000000000000000007bffffffffffffffffffffffffffffffffffffffffffffffffffffffff1916827bffffffffffffffffffffffffffffffffffffffffffffffffffffffff1916145b80613321575061332082613b5e565b5b9050919050565b606061334e8273ffffffffffffffffffffffffffffffffffffffff16601460ff16613355565b9050919050565b6060600060028360026133689190615a68565b6133729190615ac2565b67ffffffffffffffff81111561338b5761338a6147e7565b5b6040519080825280601f01601f1916602001820160405280156133bd5781602001600182028036833780820191505090505b5090507f3000000000000000000000000000000000000000000000000000000000000000816000815181106133f5576133f461514a565b5b60200101907effffffffffffffffffffffffffffffffffffffffffffffffffffffffffffff1916908160001a9053507f7800000000000000000000000000000000000000000000000000000000000000816001815181106134595761345861514a565b5b60200101907effffffffffffffffffffffffffffffffffffffffffffffffffffffffffffff1916908160001a905350600060018460026134999190615a68565b6134a39190615ac2565b90505b6001811115613543577f3031323334353637383961626364656600000000000000000000000000000000600f8616601081106134e5576134e461514a565b5b1a60f81b8282815181106134fc576134fb61514a565b5b60200101907effffffffffffffffffffffffffffffffffffffffffffffffffffffffffffff1916908160001a905350600485901c94508061353c90615b18565b90506134a6565b5060008414613587576040517f08c379a000000000000000000000000000000000000000000000000000000000815260040161357e90615b8e565b60405180910390fd5b8091505092915050565b61359d84848484613bc8565b60018111156135e1576040517f08c379a00000000000000000000000000000000000000000000000000000000081526004016135d890615c20565b60405180910390fd5b6000829050600073ffffffffffffffffffffffffffffffffffffffff168573ffffffffffffffffffffffffffffffffffffffff1614156136295761362481613cee565b613668565b8373ffffffffffffffffffffffffffffffffffffffff168573ffffffffffffffffffffffffffffffffffffffff1614613667576136668582613d37565b5b5b600073ffffffffffffffffffffffffffffffffffffffff168473ffffffffffffffffffffffffffffffffffffffff1614156136ab576136a681613ea4565b6136ea565b8473ffffffffffffffffffffffffffffffffffffffff168473ffffffffffffffffffffffffffffffffffffffff16146136e9576136e88482613f75565b5b5b5050505050565b50505050565b600061370282611196565b9050613712816000846001612e65565b61371b82611196565b90506004600083815260200190815260200160002060006101000a81549073ffffffffffffffffffffffffffffffffffffffff02191690556001600360008373ffffffffffffffffffffffffffffffffffffffff1673ffffffffffffffffffffffffffffffffffffffff168152602001908152602001600020600082825403925050819055506002600083815260200190815260200160002060006101000a81549073ffffffffffffffffffffffffffffffffffffffff021916905581600073ffffffffffffffffffffffffffffffffffffffff168273ffffffffffffffffffffffffffffffffffffffff167fddf252ad1be2c89b69c2b068fc378daa952ba7f163c4a11628f55a4df523b3ef60405160405180910390a4613841816000846001612e7f565b5050565b6000808273ffffffffffffffffffffffffffffffffffffffff163b119050919050565b60606000600161387784613ff4565b01905060008167ffffffffffffffff811115613896576138956147e7565b5b6040519080825280601f01601f1916602001820160405280156138c85781602001600182028036833780820191505090505b509050600082602001820190505b600115613935578080600190039150507f3031323334353637383961626364656600000000000000000000000000000000600a86061a8153600a858161391f5761391e615c40565b5b049450600085141561393057613935565b6138d6565b819350505050919050565b600073ffffffffffffffffffffffffffffffffffffffff168273ffffffffffffffffffffffffffffffffffffffff1614156139b0576040517f08c379a00000000000000000000000000000000000000000000000000000000081526004016139a790615cbb565b60405180910390fd5b6139b981612e24565b156139f9576040517f08c379a00000000000000000000000000000000000000000000000000000000081526004016139f090615d27565b60405180910390fd5b613a07600083836001612e65565b613a1081612e24565b15613a50576040517f08c379a0000000000000000000000000000000000000000000000000000000008152600401613a4790615d27565b60405180910390fd5b6001600360008473ffffffffffffffffffffffffffffffffffffffff1673ffffffffffffffffffffffffffffffffffffffff16815260200190815260200160002060008282540192505081905550816002600083815260200190815260200160002060006101000a81548173ffffffffffffffffffffffffffffffffffffffff021916908373ffffffffffffffffffffffffffffffffffffffff160217905550808273ffffffffffffffffffffffffffffffffffffffff16600073ffffffffffffffffffffffffffffffffffffffff167fddf252ad1be2c89b69c2b068fc378daa952ba7f163c4a11628f55a4df523b3ef60405160405180910390a4613b5a600083836001612e7f565b5050565b60007f01ffc9a7000000000000000000000000000000000000000000000000000000007bffffffffffffffffffffffffffffffffffffffffffffffffffffffff1916827bffffffffffffffffffffffffffffffffffffffffffffffffffffffff1916149050919050565b6001811115613ce857600073ffffffffffffffffffffffffffffffffffffffff168473ffffffffffffffffffffffffffffffffffffffff1614613c5c5780600360008673ffffffffffffffffffffffffffffffffffffffff1673ffffffffffffffffffffffffffffffffffffffff1681526020019081526020016000206000828254613c549190615d47565b925050819055505b600073ffffffffffffffffffffffffffffffffffffffff168373ffffffffffffffffffffffffffffffffffffffff1614613ce75780600360008573ffffffffffffffffffffffffffffffffffffffff1673ffffffffffffffffffffffffffffffffffffffff1681526020019081526020016000206000828254613cdf9190615ac2565b925050819055505b5b50505050565b6008805490506009600083815260200190815260200160002081905550600881908060018154018082558091505060019003906000526020600020016000909190919091505550565b60006001613d448461121d565b613d4e9190615d47565b9050600060076000848152602001908152602001600020549050818114613e33576000600660008673ffffffffffffffffffffffffffffffffffffffff1673ffffffffffffffffffffffffffffffffffffffff168152602001908152602001600020600084815260200190815260200160002054905080600660008773ffffffffffffffffffffffffffffffffffffffff1673ffffffffffffffffffffffffffffffffffffffff168152602001908152602001600020600084815260200190815260200160002081905550816007600083815260200190815260200160002081905550505b6007600084815260200190815260200160002060009055600660008573ffffffffffffffffffffffffffffffffffffffff1673ffffffffffffffffffffffffffffffffffffffff16815260200190815260200160002060008381526020019081526020016000206000905550505050565b60006001600880549050613eb89190615d47565b9050600060096000848152602001908152602001600020549050600060088381548110613ee857613ee761514a565b5b906000526020600020015490508060088381548110613f0a57613f0961514a565b5b906000526020600020018190555081600960008381526020019081526020016000208190555060096000858152602001908152602001600020600090556008805480613f5957613f58615d7b565b5b6001900381819060005260206000200160009055905550505050565b6000613f808361121d565b905081600660008573ffffffffffffffffffffffffffffffffffffffff1673ffffffffffffffffffffffffffffffffffffffff168152602001908152602001600020600083815260200190815260200160002081905550806007600084815260200190815260200160002081905550505050565b600080600090507a184f03e93ff9f4daa797ed6e38ed64bf6a1f0100000000000000008310614052577a184f03e93ff9f4daa797ed6e38ed64bf6a1f010000000000000000838161404857614047615c40565b5b0492506040810190505b6d04ee2d6d415b85acef8100000000831061408f576d04ee2d6d415b85acef8100000000838161408557614084615c40565b5b0492506020810190505b662386f26fc1000083106140be57662386f26fc1000083816140b4576140b3615c40565b5b0492506010810190505b6305f5e10083106140e7576305f5e10083816140dd576140dc615c40565b5b0492506008810190505b612710831061410c57612710838161410257614101615c40565b5b0492506004810190505b6064831061412f576064838161412557614124615c40565b5b0492506002810190505b600a831061413e576001810190505b80915050919050565b6040518060800160405280606081526020016060815260200160608152602001606081525090565b82805461417b90614dac565b90600052602060002090601f01602090048101928261419d57600085556141e4565b82601f106141b657805160ff19168380011785556141e4565b828001600101855582156141e4579182015b828111156141e35782518255916020019190600101906141c8565b5b5090506141f19190614235565b5090565b50805461420190614dac565b6000825580601f106142135750614232565b601f0160209004906000526020600020908101906142319190614235565b5b50565b5b8082111561424e576000816000905550600101614236565b5090565b6000604051905090565b600080fd5b600080fd5b60007fffffffff0000000000000000000000000000000000000000000000000000000082169050919050565b61429b81614266565b81146142a657600080fd5b50565b6000813590506142b881614292565b92915050565b6000602082840312156142d4576142d361425c565b5b60006142e2848285016142a9565b91505092915050565b60008115159050919050565b614300816142eb565b82525050565b600060208201905061431b60008301846142f7565b92915050565b6000819050919050565b61433481614321565b811461433f57600080fd5b50565b6000813590506143518161432b565b92915050565b60006020828403121561436d5761436c61425c565b5b600061437b84828501614342565b91505092915050565b600081519050919050565b600082825260208201905092915050565b60005b838110156143be5780820151818401526020810190506143a3565b838111156143cd576000848401525b50505050565b6000601f19601f8301169050919050565b60006143ef82614384565b6143f9818561438f565b93506144098185602086016143a0565b614412816143d3565b840191505092915050565b6000608083016000830151848203600086015261443a82826143e4565b9150506020830151848203602086015261445482826143e4565b9150506040830151848203604086015261446e82826143e4565b9150506060830151848203606086015261448882826143e4565b9150508091505092915050565b600060408201905081810360008301526144af818561441d565b905081810360208301526144c3818461441d565b90509392505050565b600082825260208201905092915050565b60006144e882614384565b6144f281856144cc565b93506145028185602086016143a0565b61450b816143d3565b840191505092915050565b6000602082019050818103600083015261453081846144dd565b905092915050565b600073ffffffffffffffffffffffffffffffffffffffff82169050919050565b600061456382614538565b9050919050565b61457381614558565b82525050565b600060208201905061458e600083018461456a565b92915050565b61459d81614558565b81146145a857600080fd5b50565b6000813590506145ba81614594565b92915050565b600080604083850312156145d7576145d661425c565b5b60006145e5858286016145ab565b92505060206145f685828601614342565b9150509250929050565b61460981614321565b82525050565b60006020820190506146246000830184614600565b92915050565b6000819050919050565b61463d8161462a565b82525050565b60006020820190506146586000830184614634565b92915050565b6000806000606084860312156146775761467661425c565b5b6000614685868287016145ab565b9350506020614696868287016145ab565b92505060406146a786828701614342565b9150509250925092565b6146ba8161462a565b81146146c557600080fd5b50565b6000813590506146d7816146b1565b92915050565b6000602082840312156146f3576146f261425c565b5b6000614701848285016146c8565b91505092915050565b600061471582614538565b9050919050565b6147258161470a565b811461473057600080fd5b50565b6000813590506147428161471c565b92915050565b60006020828403121561475e5761475d61425c565b5b600061476c84828501614733565b91505092915050565b6000806040838503121561478c5761478b61425c565b5b600061479a858286016146c8565b92505060206147ab858286016145ab565b9150509250929050565b6000602082840312156147cb576147ca61425c565b5b60006147d9848285016145ab565b91505092915050565b600080fd5b7f4e487b7100000000000000000000000000000000000000000000000000000000600052604160045260246000fd5b61481f826143d3565b810181811067ffffffffffffffff8211171561483e5761483d6147e7565b5b80604052505050565b6000614851614252565b905061485d8282614816565b919050565b600080fd5b600080fd5b600080fd5b600067ffffffffffffffff82111561488c5761488b6147e7565b5b614895826143d3565b9050602081019050919050565b82818337600083830152505050565b60006148c46148bf84614871565b614847565b9050828152602081018484840111156148e0576148df61486c565b5b6148eb8482856148a2565b509392505050565b600082601f83011261490857614907614867565b5b81356149188482602086016148b1565b91505092915050565b600060808284031215614937576149366147e2565b5b6149416080614847565b9050600082013567ffffffffffffffff81111561496157614960614862565b5b61496d848285016148f3565b600083015250602082013567ffffffffffffffff81111561499157614990614862565b5b61499d848285016148f3565b602083015250604082013567ffffffffffffffff8111156149c1576149c0614862565b5b6149cd848285016148f3565b604083015250606082013567ffffffffffffffff8111156149f1576149f0614862565b5b6149fd848285016148f3565b60608301525092915050565b600080600060608486031215614a2257614a2161425c565b5b6000614a3086828701614342565b935050602084013567ffffffffffffffff811115614a5157614a50614261565b5b614a5d86828701614921565b925050604084013567ffffffffffffffff811115614a7e57614a7d614261565b5b614a8a86828701614921565b9150509250925092565b614a9d816142eb565b8114614aa857600080fd5b50565b600081359050614aba81614a94565b92915050565b60008060408385031215614ad757614ad661425c565b5b6000614ae5858286016145ab565b9250506020614af685828601614aab565b9150509250929050565b600067ffffffffffffffff821115614b1b57614b1a6147e7565b5b614b24826143d3565b9050602081019050919050565b6000614b44614b3f84614b00565b614847565b905082815260208101848484011115614b6057614b5f61486c565b5b614b6b8482856148a2565b509392505050565b600082601f830112614b8857614b87614867565b5b8135614b98848260208601614b31565b91505092915050565b60008060008060808587031215614bbb57614bba61425c565b5b6000614bc9878288016145ab565b9450506020614bda878288016145ab565b9350506040614beb87828801614342565b925050606085013567ffffffffffffffff811115614c0c57614c0b614261565b5b614c1887828801614b73565b91505092959194509250565b60008060008060008060c08789031215614c4157614c4061425c565b5b6000614c4f89828a016145ab565b965050602087013567ffffffffffffffff811115614c7057614c6f614261565b5b614c7c89828a016148f3565b955050604087013567ffffffffffffffff811115614c9d57614c9c614261565b5b614ca989828a01614921565b945050606087013567ffffffffffffffff811115614cca57614cc9614261565b5b614cd689828a01614921565b935050608087013567ffffffffffffffff811115614cf757614cf6614261565b5b614d0389828a01614921565b92505060a087013567ffffffffffffffff811115614d2457614d23614261565b5b614d3089828a01614921565b9150509295509295509295565b60008060408385031215614d5457614d5361425c565b5b6000614d62858286016145ab565b9250506020614d73858286016145ab565b9150509250929050565b7f4e487b7100000000000000000000000000000000000000000000000000000000600052602260045260246000fd5b60006002820490506001821680614dc457607f821691505b60208210811415614dd857614dd7614d7d565b5b50919050565b7f4552433732313a20617070726f76616c20746f2063757272656e74206f776e6560008201527f7200000000000000000000000000000000000000000000000000000000000000602082015250565b6000614e3a6021836144cc565b9150614e4582614dde565b604082019050919050565b60006020820190508181036000830152614e6981614e2d565b9050919050565b7f4552433732313a20617070726f76652063616c6c6572206973206e6f7420746f60008201527f6b656e206f776e6572206f7220617070726f76656420666f7220616c6c000000602082015250565b6000614ecc603d836144cc565b9150614ed782614e70565b604082019050919050565b60006020820190508181036000830152614efb81614ebf565b9050919050565b7f4552433732313a2063616c6c6572206973206e6f7420746f6b656e206f776e6560008201527f72206f7220617070726f76656400000000000000000000000000000000000000602082015250565b6000614f5e602d836144cc565b9150614f6982614f02565b604082019050919050565b60006020820190508181036000830152614f8d81614f51565b9050919050565b7f455243373231456e756d657261626c653a206f776e657220696e646578206f7560008201527f74206f6620626f756e6473000000000000000000000000000000000000000000602082015250565b6000614ff0602b836144cc565b9150614ffb82614f94565b604082019050919050565b6000602082019050818103600083015261501f81614fe3565b9050919050565b7f416363657373436f6e74726f6c3a2063616e206f6e6c792072656e6f756e636560008201527f20726f6c657320666f722073656c660000000000000000000000000000000000602082015250565b6000615082602f836144cc565b915061508d82615026565b604082019050919050565b600060208201905081810360008301526150b181615075565b9050919050565b7f455243373231456e756d657261626c653a20676c6f62616c20696e646578206f60008201527f7574206f6620626f756e64730000000000000000000000000000000000000000602082015250565b6000615114602c836144cc565b915061511f826150b8565b604082019050919050565b6000602082019050818103600083015261514381615107565b9050919050565b7f4e487b7100000000000000000000000000000000000000000000000000000000600052603260045260246000fd5b7f4552433732313a20696e76616c696420746f6b656e2049440000000000000000600082015250565b60006151af6018836144cc565b91506151ba82615179565b602082019050919050565b600060208201905081810360008301526151de816151a2565b9050919050565b7f4552433732313a2061646472657373207a65726f206973206e6f74206120766160008201527f6c6964206f776e65720000000000000000000000000000000000000000000000602082015250565b60006152416029836144cc565b915061524c826151e5565b604082019050919050565b6000602082019050818103600083015261527081615234565b9050919050565b7f4552433732313a20676574546f6b656e4f776e657250726f6d70742063616c6c60008201527f6572206973206e6f74206f776e6572206e6f7220617070726f76656400000000602082015250565b60006152d3603c836144cc565b91506152de82615277565b604082019050919050565b60006020820190508181036000830152615302816152c6565b9050919050565b7f4552433732313a20636c61696d50726f6d70742063616c6c6572206973206e6f60008201527f74206f776e6572206e6f7220617070726f766564000000000000000000000000602082015250565b60006153656034836144cc565b915061537082615309565b604082019050919050565b6000602082019050818103600083015261539481615358565b9050919050565b60006040820190506153b0600083018561456a565b6153bd6020830184614600565b9392505050565b6000815190506153d381614a94565b92915050565b6000602082840312156153ef576153ee61425c565b5b60006153fd848285016153c4565b91505092915050565b7f43616c6c2072656769737465724e46542066756e6374696f6e206f662072656e60008201527f744d61726b657420636f6e7472616374206661696c65642e0000000000000000602082015250565b60006154626038836144cc565b915061546d82615406565b604082019050919050565b6000602082019050818103600083015261549181615455565b9050919050565b7f4552433732313a207472616e736665722066726f6d20696e636f72726563742060008201527f6f776e6572000000000000000000000000000000000000000000000000000000602082015250565b60006154f46025836144cc565b91506154ff82615498565b604082019050919050565b60006020820190508181036000830152615523816154e7565b9050919050565b7f4552433732313a207472616e7366657220746f20746865207a65726f2061646460008201527f7265737300000000000000000000000000000000000000000000000000000000602082015250565b60006155866024836144cc565b91506155918261552a565b604082019050919050565b600060208201905081810360008301526155b581615579565b9050919050565b7f4552433732313a20617070726f766520746f2063616c6c657200000000000000600082015250565b60006155f26019836144cc565b91506155fd826155bc565b602082019050919050565b60006020820190508181036000830152615621816155e5565b9050919050565b7f4552433732313a207472616e7366657220746f206e6f6e20455243373231526560008201527f63656976657220696d706c656d656e7465720000000000000000000000000000602082015250565b60006156846032836144cc565b915061568f82615628565b604082019050919050565b600060208201905081810360008301526156b381615677565b9050919050565b600081905092915050565b60006156d082614384565b6156da81856156ba565b93506156ea8185602086016143a0565b80840191505092915050565b600061570282856156c5565b915061570e82846156c5565b91508190509392505050565b7f45524337323155524953746f726167653a2055524920736574206f66206e6f6e60008201527f6578697374656e7420746f6b656e000000000000000000000000000000000000602082015250565b6000615776602e836144cc565b91506157818261571a565b604082019050919050565b600060208201905081810360008301526157a581615769565b9050919050565b7f416363657373436f6e74726f6c3a206163636f756e7420000000000000000000600082015250565b60006157e26017836156ba565b91506157ed826157ac565b601782019050919050565b7f206973206d697373696e6720726f6c6520000000000000000000000000000000600082015250565b600061582e6011836156ba565b9150615839826157f8565b601182019050919050565b600061584f826157d5565b915061585b82856156c5565b915061586682615821565b915061587282846156c5565b91508190509392505050565b7f5061757361626c653a206e6f7420706175736564000000000000000000000000600082015250565b60006158b46014836144cc565b91506158bf8261587e565b602082019050919050565b600060208201905081810360008301526158e3816158a7565b9050919050565b7f5061757361626c653a2070617573656400000000000000000000000000000000600082015250565b60006159206010836144cc565b915061592b826158ea565b602082019050919050565b6000602082019050818103600083015261594f81615913565b9050919050565b600081519050919050565b600082825260208201905092915050565b600061597d82615956565b6159878185615961565b93506159978185602086016143a0565b6159a0816143d3565b840191505092915050565b60006080820190506159c0600083018761456a565b6159cd602083018661456a565b6159da6040830185614600565b81810360608301526159ec8184615972565b905095945050505050565b600081519050615a0681614292565b92915050565b600060208284031215615a2257615a2161425c565b5b6000615a30848285016159f7565b91505092915050565b7f4e487b7100000000000000000000000000000000000000000000000000000000600052601160045260246000fd5b6000615a7382614321565b9150615a7e83614321565b9250817fffffffffffffffffffffffffffffffffffffffffffffffffffffffffffffffff0483118215151615615ab757615ab6615a39565b5b828202905092915050565b6000615acd82614321565b9150615ad883614321565b9250827fffffffffffffffffffffffffffffffffffffffffffffffffffffffffffffffff03821115615b0d57615b0c615a39565b5b828201905092915050565b6000615b2382614321565b91506000821415615b3757615b36615a39565b5b600182039050919050565b7f537472696e67733a20686578206c656e67746820696e73756666696369656e74600082015250565b6000615b786020836144cc565b9150615b8382615b42565b602082019050919050565b60006020820190508181036000830152615ba781615b6b565b9050919050565b7f455243373231456e756d657261626c653a20636f6e736563757469766520747260008201527f616e7366657273206e6f7420737570706f727465640000000000000000000000602082015250565b6000615c0a6035836144cc565b9150615c1582615bae565b604082019050919050565b60006020820190508181036000830152615c3981615bfd565b9050919050565b7f4e487b7100000000000000000000000000000000000000000000000000000000600052601260045260246000fd5b7f4552433732313a206d696e7420746f20746865207a65726f2061646472657373600082015250565b6000615ca56020836144cc565b9150615cb082615c6f565b602082019050919050565b60006020820190508181036000830152615cd481615c98565b9050919050565b7f4552433732313a20746f6b656e20616c7265616479206d696e74656400000000600082015250565b6000615d11601c836144cc565b9150615d1c82615cdb565b602082019050919050565b60006020820190508181036000830152615d4081615d04565b9050919050565b6000615d5282614321565b9150615d5d83614321565b925082821015615d7057615d6f615a39565b5b828203905092915050565b7f4e487b7100000000000000000000000000000000000000000000000000000000600052603160045260246000fdfea26469706673582212200886f56aeca10f53fd223a3eb2ec6e647fe09abec1b70d5bacc16975567c196864736f6c63430008090033",
  "linkReferences": {},
  "deployedLinkReferences": {}
}