{
  "_format": "hh-sol-artifact-1",
  "contractName": "promptNFT",
  "sourceName": "contracts/promptNFT.sol",
  "abi": [
    {
      "inputs": [
        {
          "internalType": "string",
          "name": "name_",
          "type": "string"
        },
        {
          "internalType": "string",
          "name": "symbol_",
          "type": "string"
        },
        {
          "internalType": "address payable",
          "name": "rentMarketContractAddress_",
          "type": "address"
        }
      ],
      "stateMutability": "nonpayable",
      "type": "constructor"
    },
    {
      "anonymous": false,
      "inputs": [
        {
          "indexed": true,
          "internalType": "address",
          "name": "owner",
          "type": "address"
        },
        {
          "indexed": true,
          "internalType": "address",
          "name": "approved",
          "type": "address"
        },
        {
          "indexed": true,
          "internalType": "uint256",
          "name": "tokenId",
          "type": "uint256"
        }
      ],
      "name": "Approval",
      "type": "event"
    },
    {
      "anonymous": false,
      "inputs": [
        {
          "indexed": true,
          "internalType": "address",
          "name": "owner",
          "type": "address"
        },
        {
          "indexed": true,
          "internalType": "address",
          "name": "operator",
          "type": "address"
        },
        {
          "indexed": false,
          "internalType": "bool",
          "name": "approved",
          "type": "bool"
        }
      ],
      "name": "ApprovalForAll",
      "type": "event"
    },
    {
      "anonymous": false,
      "inputs": [
        {
          "indexed": false,
          "internalType": "address",
          "name": "account",
          "type": "address"
        }
      ],
      "name": "Paused",
      "type": "event"
    },
    {
      "anonymous": false,
      "inputs": [
        {
          "indexed": true,
          "internalType": "bytes32",
          "name": "role",
          "type": "bytes32"
        },
        {
          "indexed": true,
          "internalType": "bytes32",
          "name": "previousAdminRole",
          "type": "bytes32"
        },
        {
          "indexed": true,
          "internalType": "bytes32",
          "name": "newAdminRole",
          "type": "bytes32"
        }
      ],
      "name": "RoleAdminChanged",
      "type": "event"
    },
    {
      "anonymous": false,
      "inputs": [
        {
          "indexed": true,
          "internalType": "bytes32",
          "name": "role",
          "type": "bytes32"
        },
        {
          "indexed": true,
          "internalType": "address",
          "name": "account",
          "type": "address"
        },
        {
          "indexed": true,
          "internalType": "address",
          "name": "sender",
          "type": "address"
        }
      ],
      "name": "RoleGranted",
      "type": "event"
    },
    {
      "anonymous": false,
      "inputs": [
        {
          "indexed": true,
          "internalType": "bytes32",
          "name": "role",
          "type": "bytes32"
        },
        {
          "indexed": true,
          "internalType": "address",
          "name": "account",
          "type": "address"
        },
        {
          "indexed": true,
          "internalType": "address",
          "name": "sender",
          "type": "address"
        }
      ],
      "name": "RoleRevoked",
      "type": "event"
    },
    {
      "anonymous": false,
      "inputs": [
        {
          "indexed": true,
          "internalType": "address",
          "name": "from",
          "type": "address"
        },
        {
          "indexed": true,
          "internalType": "address",
          "name": "to",
          "type": "address"
        },
        {
          "indexed": true,
          "internalType": "uint256",
          "name": "tokenId",
          "type": "uint256"
        }
      ],
      "name": "Transfer",
      "type": "event"
    },
    {
      "anonymous": false,
      "inputs": [
        {
          "indexed": false,
          "internalType": "address",
          "name": "account",
          "type": "address"
        }
      ],
      "name": "Unpaused",
      "type": "event"
    },
    {
      "inputs": [],
      "name": "CHANGER_ROLE",
      "outputs": [
        {
          "internalType": "bytes32",
          "name": "",
          "type": "bytes32"
        }
      ],
      "stateMutability": "view",
      "type": "function"
    },
    {
      "inputs": [],
      "name": "DEFAULT_ADMIN_ROLE",
      "outputs": [
        {
          "internalType": "bytes32",
          "name": "",
          "type": "bytes32"
        }
      ],
      "stateMutability": "view",
      "type": "function"
    },
    {
      "inputs": [],
      "name": "PAUSER_ROLE",
      "outputs": [
        {
          "internalType": "bytes32",
          "name": "",
          "type": "bytes32"
        }
      ],
      "stateMutability": "view",
      "type": "function"
    },
    {
      "inputs": [],
      "name": "PROMPTER_ROLE",
      "outputs": [
        {
          "internalType": "bytes32",
          "name": "",
          "type": "bytes32"
        }
      ],
      "stateMutability": "view",
      "type": "function"
    },
    {
      "inputs": [
        {
          "internalType": "address",
          "name": "to",
          "type": "address"
        },
        {
          "internalType": "uint256",
          "name": "tokenId",
          "type": "uint256"
        }
      ],
      "name": "approve",
      "outputs": [],
      "stateMutability": "nonpayable",
      "type": "function"
    },
    {
      "inputs": [
        {
          "internalType": "address",
          "name": "owner",
          "type": "address"
        }
      ],
      "name": "balanceOf",
      "outputs": [
        {
          "internalType": "uint256",
          "name": "",
          "type": "uint256"
        }
      ],
      "stateMutability": "view",
      "type": "function"
    },
    {
      "inputs": [
        {
          "internalType": "uint256",
          "name": "tokenId",
          "type": "uint256"
        }
      ],
      "name": "burn",
      "outputs": [],
      "stateMutability": "nonpayable",
      "type": "function"
    },
    {
      "inputs": [
        {
          "internalType": "address payable",
          "name": "rentMarketContractAddress_",
          "type": "address"
        }
      ],
      "name": "changeRentMarketContract",
      "outputs": [],
      "stateMutability": "nonpayable",
      "type": "function"
    },
    {
      "inputs": [
        {
          "internalType": "uint256",
          "name": "tokenId",
          "type": "uint256"
        },
        {
          "components": [
            {
              "internalType": "string",
              "name": "version",
              "type": "string"
            },
            {
              "internalType": "string",
              "name": "ephemPublicKey",
              "type": "string"
            },
            {
              "internalType": "string",
              "name": "nonce",
              "type": "string"
            },
            {
              "internalType": "string",
              "name": "ciphertext",
              "type": "string"
            }
          ],
          "internalType": "struct promptNFT.encryptData",
          "name": "contractOwnerEncryptPromptData",
          "type": "tuple"
        },
        {
          "components": [
            {
              "internalType": "string",
              "name": "version",
              "type": "string"
            },
            {
              "internalType": "string",
              "name": "ephemPublicKey",
              "type": "string"
            },
            {
              "internalType": "string",
              "name": "nonce",
              "type": "string"
            },
            {
              "internalType": "string",
              "name": "ciphertext",
              "type": "string"
            }
          ],
          "internalType": "struct promptNFT.encryptData",
          "name": "contractOwnerEncryptNegativePromptData",
          "type": "tuple"
        }
      ],
      "name": "claimContractOwnerPrompt",
      "outputs": [],
      "stateMutability": "nonpayable",
      "type": "function"
    },
    {
      "inputs": [
        {
          "internalType": "uint256",
          "name": "tokenId",
          "type": "uint256"
        },
        {
          "components": [
            {
              "internalType": "string",
              "name": "version",
              "type": "string"
            },
            {
              "internalType": "string",
              "name": "ephemPublicKey",
              "type": "string"
            },
            {
              "internalType": "string",
              "name": "nonce",
              "type": "string"
            },
            {
              "internalType": "string",
              "name": "ciphertext",
              "type": "string"
            }
          ],
          "internalType": "struct promptNFT.encryptData",
          "name": "tokenOwnerEncryptPromptData",
          "type": "tuple"
        },
        {
          "components": [
            {
              "internalType": "string",
              "name": "version",
              "type": "string"
            },
            {
              "internalType": "string",
              "name": "ephemPublicKey",
              "type": "string"
            },
            {
              "internalType": "string",
              "name": "nonce",
              "type": "string"
            },
            {
              "internalType": "string",
              "name": "ciphertext",
              "type": "string"
            }
          ],
          "internalType": "struct promptNFT.encryptData",
          "name": "tokenOwnerEncryptNegativePromptData",
          "type": "tuple"
        }
      ],
      "name": "claimTokenOwnerPrompt",
      "outputs": [],
      "stateMutability": "nonpayable",
      "type": "function"
    },
    {
      "inputs": [
        {
          "internalType": "uint256",
          "name": "tokenId",
          "type": "uint256"
        }
      ],
      "name": "getApproved",
      "outputs": [
        {
          "internalType": "address",
          "name": "",
          "type": "address"
        }
      ],
      "stateMutability": "view",
      "type": "function"
    },
    {
      "inputs": [
        {
          "internalType": "uint256",
          "name": "tokenId",
          "type": "uint256"
        }
      ],
      "name": "getContractOwnerPrompt",
      "outputs": [
        {
          "components": [
            {
              "internalType": "string",
              "name": "version",
              "type": "string"
            },
            {
              "internalType": "string",
              "name": "ephemPublicKey",
              "type": "string"
            },
            {
              "internalType": "string",
              "name": "nonce",
              "type": "string"
            },
            {
              "internalType": "string",
              "name": "ciphertext",
              "type": "string"
            }
          ],
          "internalType": "struct promptNFT.encryptData",
          "name": "",
          "type": "tuple"
        },
        {
          "components": [
            {
              "internalType": "string",
              "name": "version",
              "type": "string"
            },
            {
              "internalType": "string",
              "name": "ephemPublicKey",
              "type": "string"
            },
            {
              "internalType": "string",
              "name": "nonce",
              "type": "string"
            },
            {
              "internalType": "string",
              "name": "ciphertext",
              "type": "string"
            }
          ],
          "internalType": "struct promptNFT.encryptData",
          "name": "",
          "type": "tuple"
        }
      ],
      "stateMutability": "view",
      "type": "function"
    },
    {
      "inputs": [
        {
          "internalType": "uint256",
          "name": "tokenId",
          "type": "uint256"
        }
      ],
      "name": "getModelName",
      "outputs": [
        {
          "internalType": "string",
          "name": "",
          "type": "string"
        }
      ],
      "stateMutability": "view",
      "type": "function"
    },
    {
      "inputs": [
        {
          "internalType": "bytes32",
          "name": "role",
          "type": "bytes32"
        }
      ],
      "name": "getRoleAdmin",
      "outputs": [
        {
          "internalType": "bytes32",
          "name": "",
          "type": "bytes32"
        }
      ],
      "stateMutability": "view",
      "type": "function"
    },
    {
      "inputs": [
        {
          "internalType": "uint256",
          "name": "tokenId",
          "type": "uint256"
        }
      ],
      "name": "getTokenOwnerPrompt",
      "outputs": [
        {
          "components": [
            {
              "internalType": "string",
              "name": "version",
              "type": "string"
            },
            {
              "internalType": "string",
              "name": "ephemPublicKey",
              "type": "string"
            },
            {
              "internalType": "string",
              "name": "nonce",
              "type": "string"
            },
            {
              "internalType": "string",
              "name": "ciphertext",
              "type": "string"
            }
          ],
          "internalType": "struct promptNFT.encryptData",
          "name": "",
          "type": "tuple"
        },
        {
          "components": [
            {
              "internalType": "string",
              "name": "version",
              "type": "string"
            },
            {
              "internalType": "string",
              "name": "ephemPublicKey",
              "type": "string"
            },
            {
              "internalType": "string",
              "name": "nonce",
              "type": "string"
            },
            {
              "internalType": "string",
              "name": "ciphertext",
              "type": "string"
            }
          ],
          "internalType": "struct promptNFT.encryptData",
          "name": "",
          "type": "tuple"
        }
      ],
      "stateMutability": "view",
      "type": "function"
    },
    {
      "inputs": [
        {
          "internalType": "bytes32",
          "name": "role",
          "type": "bytes32"
        },
        {
          "internalType": "address",
          "name": "account",
          "type": "address"
        }
      ],
      "name": "grantRole",
      "outputs": [],
      "stateMutability": "nonpayable",
      "type": "function"
    },
    {
      "inputs": [
        {
          "internalType": "bytes32",
          "name": "role",
          "type": "bytes32"
        },
        {
          "internalType": "address",
          "name": "account",
          "type": "address"
        }
      ],
      "name": "hasRole",
      "outputs": [
        {
          "internalType": "bool",
          "name": "",
          "type": "bool"
        }
      ],
      "stateMutability": "view",
      "type": "function"
    },
    {
      "inputs": [
        {
          "internalType": "address",
          "name": "owner",
          "type": "address"
        },
        {
          "internalType": "address",
          "name": "operator",
          "type": "address"
        }
      ],
      "name": "isApprovedForAll",
      "outputs": [
        {
          "internalType": "bool",
          "name": "",
          "type": "bool"
        }
      ],
      "stateMutability": "view",
      "type": "function"
    },
    {
      "inputs": [],
      "name": "name",
      "outputs": [
        {
          "internalType": "string",
          "name": "",
          "type": "string"
        }
      ],
      "stateMutability": "view",
      "type": "function"
    },
    {
      "inputs": [
        {
          "internalType": "uint256",
          "name": "tokenId",
          "type": "uint256"
        }
      ],
      "name": "ownerOf",
      "outputs": [
        {
          "internalType": "address",
          "name": "",
          "type": "address"
        }
      ],
      "stateMutability": "view",
      "type": "function"
    },
    {
      "inputs": [],
      "name": "pause",
      "outputs": [],
      "stateMutability": "nonpayable",
      "type": "function"
    },
    {
      "inputs": [],
      "name": "paused",
      "outputs": [
        {
          "internalType": "bool",
          "name": "",
          "type": "bool"
        }
      ],
      "stateMutability": "view",
      "type": "function"
    },
    {
      "inputs": [
        {
          "internalType": "bytes32",
          "name": "role",
          "type": "bytes32"
        },
        {
          "internalType": "address",
          "name": "account",
          "type": "address"
        }
      ],
      "name": "renounceRole",
      "outputs": [],
      "stateMutability": "nonpayable",
      "type": "function"
    },
    {
      "inputs": [
        {
          "internalType": "bytes32",
          "name": "role",
          "type": "bytes32"
        },
        {
          "internalType": "address",
          "name": "account",
          "type": "address"
        }
      ],
      "name": "revokeRole",
      "outputs": [],
      "stateMutability": "nonpayable",
      "type": "function"
    },
    {
      "inputs": [
        {
          "internalType": "address",
          "name": "to_",
          "type": "address"
        },
        {
          "internalType": "string",
          "name": "uri_",
          "type": "string"
        },
        {
          "internalType": "string",
          "name": "modelName_",
          "type": "string"
        },
        {
          "components": [
            {
              "internalType": "string",
              "name": "version",
              "type": "string"
            },
            {
              "internalType": "string",
              "name": "ephemPublicKey",
              "type": "string"
            },
            {
              "internalType": "string",
              "name": "nonce",
              "type": "string"
            },
            {
              "internalType": "string",
              "name": "ciphertext",
              "type": "string"
            }
          ],
          "internalType": "struct promptNFT.encryptData",
          "name": "tokenOwnerEncryptPromptData_",
          "type": "tuple"
        },
        {
          "components": [
            {
              "internalType": "string",
              "name": "version",
              "type": "string"
            },
            {
              "internalType": "string",
              "name": "ephemPublicKey",
              "type": "string"
            },
            {
              "internalType": "string",
              "name": "nonce",
              "type": "string"
            },
            {
              "internalType": "string",
              "name": "ciphertext",
              "type": "string"
            }
          ],
          "internalType": "struct promptNFT.encryptData",
          "name": "tokenOwnerEncryptNegativePromptData_",
          "type": "tuple"
        },
        {
          "components": [
            {
              "internalType": "string",
              "name": "version",
              "type": "string"
            },
            {
              "internalType": "string",
              "name": "ephemPublicKey",
              "type": "string"
            },
            {
              "internalType": "string",
              "name": "nonce",
              "type": "string"
            },
            {
              "internalType": "string",
              "name": "ciphertext",
              "type": "string"
            }
          ],
          "internalType": "struct promptNFT.encryptData",
          "name": "contractOwnerEncryptPromptData_",
          "type": "tuple"
        },
        {
          "components": [
            {
              "internalType": "string",
              "name": "version",
              "type": "string"
            },
            {
              "internalType": "string",
              "name": "ephemPublicKey",
              "type": "string"
            },
            {
              "internalType": "string",
              "name": "nonce",
              "type": "string"
            },
            {
              "internalType": "string",
              "name": "ciphertext",
              "type": "string"
            }
          ],
          "internalType": "struct promptNFT.encryptData",
          "name": "contractOwnerEncryptNegativePromptData_",
          "type": "tuple"
        }
      ],
      "name": "safeMint",
      "outputs": [
        {
          "internalType": "uint256",
          "name": "",
          "type": "uint256"
        }
      ],
      "stateMutability": "nonpayable",
      "type": "function"
    },
    {
      "inputs": [
        {
          "internalType": "address",
          "name": "from",
          "type": "address"
        },
        {
          "internalType": "address",
          "name": "to",
          "type": "address"
        },
        {
          "internalType": "uint256",
          "name": "tokenId",
          "type": "uint256"
        }
      ],
      "name": "safeTransferFrom",
      "outputs": [],
      "stateMutability": "nonpayable",
      "type": "function"
    },
    {
      "inputs": [
        {
          "internalType": "address",
          "name": "from",
          "type": "address"
        },
        {
          "internalType": "address",
          "name": "to",
          "type": "address"
        },
        {
          "internalType": "uint256",
          "name": "tokenId",
          "type": "uint256"
        },
        {
          "internalType": "bytes",
          "name": "data",
          "type": "bytes"
        }
      ],
      "name": "safeTransferFrom",
      "outputs": [],
      "stateMutability": "nonpayable",
      "type": "function"
    },
    {
      "inputs": [
        {
          "internalType": "address",
          "name": "operator",
          "type": "address"
        },
        {
          "internalType": "bool",
          "name": "approved",
          "type": "bool"
        }
      ],
      "name": "setApprovalForAll",
      "outputs": [],
      "stateMutability": "nonpayable",
      "type": "function"
    },
    {
      "inputs": [
        {
          "internalType": "bytes4",
          "name": "interfaceId",
          "type": "bytes4"
        }
      ],
      "name": "supportsInterface",
      "outputs": [
        {
          "internalType": "bool",
          "name": "",
          "type": "bool"
        }
      ],
      "stateMutability": "view",
      "type": "function"
    },
    {
      "inputs": [],
      "name": "symbol",
      "outputs": [
        {
          "internalType": "string",
          "name": "",
          "type": "string"
        }
      ],
      "stateMutability": "view",
      "type": "function"
    },
    {
      "inputs": [
        {
          "internalType": "uint256",
          "name": "index",
          "type": "uint256"
        }
      ],
      "name": "tokenByIndex",
      "outputs": [
        {
          "internalType": "uint256",
          "name": "",
          "type": "uint256"
        }
      ],
      "stateMutability": "view",
      "type": "function"
    },
    {
      "inputs": [
        {
          "internalType": "address",
          "name": "owner",
          "type": "address"
        },
        {
          "internalType": "uint256",
          "name": "index",
          "type": "uint256"
        }
      ],
      "name": "tokenOfOwnerByIndex",
      "outputs": [
        {
          "internalType": "uint256",
          "name": "",
          "type": "uint256"
        }
      ],
      "stateMutability": "view",
      "type": "function"
    },
    {
      "inputs": [
        {
          "internalType": "uint256",
          "name": "tokenId",
          "type": "uint256"
        }
      ],
      "name": "tokenURI",
      "outputs": [
        {
          "internalType": "string",
          "name": "",
          "type": "string"
        }
      ],
      "stateMutability": "view",
      "type": "function"
    },
    {
      "inputs": [],
      "name": "totalSupply",
      "outputs": [
        {
          "internalType": "uint256",
          "name": "",
          "type": "uint256"
        }
      ],
      "stateMutability": "view",
      "type": "function"
    },
    {
      "inputs": [
        {
          "internalType": "address",
          "name": "from",
          "type": "address"
        },
        {
          "internalType": "address",
          "name": "to",
          "type": "address"
        },
        {
          "internalType": "uint256",
          "name": "tokenId",
          "type": "uint256"
        }
      ],
      "name": "transferFrom",
      "outputs": [],
      "stateMutability": "nonpayable",
      "type": "function"
    },
    {
      "inputs": [],
      "name": "unpause",
      "outputs": [],
      "stateMutability": "nonpayable",
      "type": "function"
    }
  ],
  "bytecode": "0x60806040523480156200001157600080fd5b506040516200658b3803806200658b833981810160405281019062000037919062000562565b8282816000908051906020019062000051929190620002b0565b5080600190805190602001906200006a929190620002b0565b5050506000600b60006101000a81548160ff02191690831515021790555080600e60006101000a81548173ffffffffffffffffffffffffffffffffffffffff021916908373ffffffffffffffffffffffffffffffffffffffff160217905550620000de6000801b336200014b60201b60201c565b620001107f65d7a28e3265b37a6474929f336521b332c1681b933f6cb9f3376673440d862a336200014b60201b60201c565b620001427fd0643f51bd184a6a394cdade44604c05442b11e696dabba32ec676f5e962b835336200014b60201b60201c565b50505062000661565b6200015d82826200023d60201b60201c565b62000239576001600c600084815260200190815260200160002060000160008373ffffffffffffffffffffffffffffffffffffffff1673ffffffffffffffffffffffffffffffffffffffff16815260200190815260200160002060006101000a81548160ff021916908315150217905550620001de620002a860201b60201c565b73ffffffffffffffffffffffffffffffffffffffff168173ffffffffffffffffffffffffffffffffffffffff16837f2f8788117e7eff1d82e926ec794901d17c78024a50270940304540a733656f0d60405160405180910390a45b5050565b6000600c600084815260200190815260200160002060000160008373ffffffffffffffffffffffffffffffffffffffff1673ffffffffffffffffffffffffffffffffffffffff16815260200190815260200160002060009054906101000a900460ff16905092915050565b600033905090565b828054620002be906200062b565b90600052602060002090601f016020900481019282620002e257600085556200032e565b82601f10620002fd57805160ff19168380011785556200032e565b828001600101855582156200032e579182015b828111156200032d57825182559160200191906001019062000310565b5b5090506200033d919062000341565b5090565b5b808211156200035c57600081600090555060010162000342565b5090565b6000604051905090565b600080fd5b600080fd5b600080fd5b600080fd5b6000601f19601f8301169050919050565b7f4e487b7100000000000000000000000000000000000000000000000000000000600052604160045260246000fd5b620003c9826200037e565b810181811067ffffffffffffffff82111715620003eb57620003ea6200038f565b5b80604052505050565b60006200040062000360565b90506200040e8282620003be565b919050565b600067ffffffffffffffff8211156200043157620004306200038f565b5b6200043c826200037e565b9050602081019050919050565b60005b83811015620004695780820151818401526020810190506200044c565b8381111562000479576000848401525b50505050565b600062000496620004908462000413565b620003f4565b905082815260208101848484011115620004b557620004b462000379565b5b620004c284828562000449565b509392505050565b600082601f830112620004e257620004e162000374565b5b8151620004f48482602086016200047f565b91505092915050565b600073ffffffffffffffffffffffffffffffffffffffff82169050919050565b60006200052a82620004fd565b9050919050565b6200053c816200051d565b81146200054857600080fd5b50565b6000815190506200055c8162000531565b92915050565b6000806000606084860312156200057e576200057d6200036a565b5b600084015167ffffffffffffffff8111156200059f576200059e6200036f565b5b620005ad86828701620004ca565b935050602084015167ffffffffffffffff811115620005d157620005d06200036f565b5b620005df86828701620004ca565b9250506040620005f2868287016200054b565b9150509250925092565b7f4e487b7100000000000000000000000000000000000000000000000000000000600052602260045260246000fd5b600060028204905060018216806200064457607f821691505b602082108114156200065b576200065a620005fc565b5b50919050565b615f1a80620006716000396000f3fe608060405234801561001057600080fd5b506004361061021c5760003560e01c80636352211e11610125578063a22cb465116100ad578063d547741f1161007c578063d547741f1461065f578063e63ab1e91461067b578063e985e9c514610699578063fab4fcc5146106c9578063fd4d4968146106e75761021c565b8063a22cb465146105db578063b7ff6487146105f7578063b88d4fde14610613578063c87b56dd1461062f5761021c565b806395d89b41116100f457806395d89b41146105225780639a6ee03b146105405780639cac21b4146105705780639d58729e146105a1578063a217fddf146105bd5761021c565b80636352211e1461048857806370a08231146104b85780638456cb59146104e857806391d14854146104f25761021c565b8063289f6e33116101a85780633f4ba83a116101775780633f4ba83a146103f857806342842e0e1461040257806342966c681461041e5780634f6ccce71461043a5780635c975abb1461046a5761021c565b8063289f6e33146103745780632f2ff15d146103905780632f745c59146103ac57806336568abe146103dc5761021c565b8063095ea7b3116101ef578063095ea7b3146102d057806318160ddd146102ec5780631827b9551461030a57806323b872dd14610328578063248a9ca3146103445761021c565b806301ffc9a71461022157806306e54ceb1461025157806306fdde0314610282578063081812fc146102a0575b600080fd5b61023b600480360381019061023691906143c7565b610717565b604051610248919061440f565b60405180910390f35b61026b60048036038101906102669190614460565b610729565b60405161027992919061459e565b60405180910390f35b61028a610c3f565b604051610297919061461f565b60405180910390f35b6102ba60048036038101906102b59190614460565b610cd1565b6040516102c79190614682565b60405180910390f35b6102ea60048036038101906102e591906146c9565b610d17565b005b6102f4610e2f565b6040516103019190614718565b60405180910390f35b610312610e3c565b60405161031f919061474c565b60405180910390f35b610342600480360381019061033d9190614767565b610e60565b005b61035e600480360381019061035991906147e6565b610ec0565b60405161036b919061474c565b60405180910390f35b61038e60048036038101906103899190614851565b610ee0565b005b6103aa60048036038101906103a5919061487e565b610f4f565b005b6103c660048036038101906103c191906146c9565b610f70565b6040516103d39190614718565b60405180910390f35b6103f660048036038101906103f1919061487e565b611015565b005b610400611098565b005b61041c60048036038101906104179190614767565b6110cd565b005b61043860048036038101906104339190614460565b6110ed565b005b610454600480360381019061044f9190614460565b611149565b6040516104619190614718565b60405180910390f35b6104726111ba565b60405161047f919061440f565b60405180910390f35b6104a2600480360381019061049d9190614460565b6111d1565b6040516104af9190614682565b60405180910390f35b6104d260048036038101906104cd91906148be565b611258565b6040516104df9190614718565b60405180910390f35b6104f0611310565b005b61050c6004803603810190610507919061487e565b611345565b604051610519919061440f565b60405180910390f35b61052a6113b0565b604051610537919061461f565b60405180910390f35b61055a60048036038101906105559190614460565b611442565b604051610567919061461f565b60405180910390f35b61058a60048036038101906105859190614460565b6114e7565b60405161059892919061459e565b60405180910390f35b6105bb60048036038101906105b69190614b12565b611a22565b005b6105c5611b68565b6040516105d2919061474c565b60405180910390f35b6105f560048036038101906105f09190614bc9565b611b6f565b005b610611600480360381019061060c9190614b12565b611b85565b005b61062d60048036038101906106289190614caa565b611cf0565b005b61064960048036038101906106449190614460565b611d52565b604051610656919061461f565b60405180910390f35b6106796004803603810190610674919061487e565b611d64565b005b610683611d85565b604051610690919061474c565b60405180910390f35b6106b360048036038101906106ae9190614d2d565b611da9565b6040516106c0919061440f565b60405180910390f35b6106d1611e3d565b6040516106de919061474c565b60405180910390f35b61070160048036038101906106fc9190614d6d565b611e61565b60405161070e9190614718565b60405180910390f35b6000610722826121f5565b9050919050565b610731614250565b610739614250565b7fd0643f51bd184a6a394cdade44604c05442b11e696dabba32ec676f5e962b8356107638161226f565b6012600085815260200190815260200160002060136000868152602001908152602001600020816040518060800160405290816000820180546107a590614ee6565b80601f01602080910402602001604051908101604052809291908181526020018280546107d190614ee6565b801561081e5780601f106107f35761010080835404028352916020019161081e565b820191906000526020600020905b81548152906001019060200180831161080157829003601f168201915b5050505050815260200160018201805461083790614ee6565b80601f016020809104026020016040519081016040528092919081815260200182805461086390614ee6565b80156108b05780601f10610885576101008083540402835291602001916108b0565b820191906000526020600020905b81548152906001019060200180831161089357829003601f168201915b505050505081526020016002820180546108c990614ee6565b80601f01602080910402602001604051908101604052809291908181526020018280546108f590614ee6565b80156109425780601f1061091757610100808354040283529160200191610942565b820191906000526020600020905b81548152906001019060200180831161092557829003601f168201915b5050505050815260200160038201805461095b90614ee6565b80601f016020809104026020016040519081016040528092919081815260200182805461098790614ee6565b80156109d45780601f106109a9576101008083540402835291602001916109d4565b820191906000526020600020905b8154815290600101906020018083116109b757829003601f168201915b5050505050815250509150806040518060800160405290816000820180546109fb90614ee6565b80601f0160208091040260200160405190810160405280929190818152602001828054610a2790614ee6565b8015610a745780601f10610a4957610100808354040283529160200191610a74565b820191906000526020600020905b815481529060010190602001808311610a5757829003601f168201915b50505050508152602001600182018054610a8d90614ee6565b80601f0160208091040260200160405190810160405280929190818152602001828054610ab990614ee6565b8015610b065780601f10610adb57610100808354040283529160200191610b06565b820191906000526020600020905b815481529060010190602001808311610ae957829003601f168201915b50505050508152602001600282018054610b1f90614ee6565b80601f0160208091040260200160405190810160405280929190818152602001828054610b4b90614ee6565b8015610b985780601f10610b6d57610100808354040283529160200191610b98565b820191906000526020600020905b815481529060010190602001808311610b7b57829003601f168201915b50505050508152602001600382018054610bb190614ee6565b80601f0160208091040260200160405190810160405280929190818152602001828054610bdd90614ee6565b8015610c2a5780601f10610bff57610100808354040283529160200191610c2a565b820191906000526020600020905b815481529060010190602001808311610c0d57829003601f168201915b50505050508152505090509250925050915091565b606060008054610c4e90614ee6565b80601f0160208091040260200160405190810160405280929190818152602001828054610c7a90614ee6565b8015610cc75780601f10610c9c57610100808354040283529160200191610cc7565b820191906000526020600020905b815481529060010190602001808311610caa57829003601f168201915b5050505050905090565b6000610cdc82612283565b6004600083815260200190815260200160002060009054906101000a900473ffffffffffffffffffffffffffffffffffffffff169050919050565b6000610d22826111d1565b90508073ffffffffffffffffffffffffffffffffffffffff168373ffffffffffffffffffffffffffffffffffffffff161415610d93576040517f08c379a0000000000000000000000000000000000000000000000000000000008152600401610d8a90614f8a565b60405180910390fd5b8073ffffffffffffffffffffffffffffffffffffffff16610db26122ce565b73ffffffffffffffffffffffffffffffffffffffff161480610de15750610de081610ddb6122ce565b611da9565b5b610e20576040517f08c379a0000000000000000000000000000000000000000000000000000000008152600401610e179061501c565b60405180910390fd5b610e2a83836122d6565b505050565b6000600880549050905090565b7fd0643f51bd184a6a394cdade44604c05442b11e696dabba32ec676f5e962b83581565b610e71610e6b6122ce565b8261238f565b610eb0576040517f08c379a0000000000000000000000000000000000000000000000000000000008152600401610ea7906150ae565b60405180910390fd5b610ebb838383612424565b505050565b6000600c6000838152602001908152602001600020600101549050919050565b7f6310cf9c937bcad92df0897b8ab11d37ff788bec126c5807fb57fb0423e3f40d610f0a8161226f565b81600e60006101000a81548173ffffffffffffffffffffffffffffffffffffffff021916908373ffffffffffffffffffffffffffffffffffffffff1602179055505050565b610f5882610ec0565b610f618161226f565b610f6b838361271e565b505050565b6000610f7b83611258565b8210610fbc576040517f08c379a0000000000000000000000000000000000000000000000000000000008152600401610fb390615140565b60405180910390fd5b600660008473ffffffffffffffffffffffffffffffffffffffff1673ffffffffffffffffffffffffffffffffffffffff168152602001908152602001600020600083815260200190815260200160002054905092915050565b61101d6122ce565b73ffffffffffffffffffffffffffffffffffffffff168173ffffffffffffffffffffffffffffffffffffffff161461108a576040517f08c379a0000000000000000000000000000000000000000000000000000000008152600401611081906151d2565b60405180910390fd5b61109482826127ff565b5050565b7f65d7a28e3265b37a6474929f336521b332c1681b933f6cb9f3376673440d862a6110c28161226f565b6110ca6128e1565b50565b6110e883838360405180602001604052806000815250611cf0565b505050565b6110fe6110f86122ce565b8261238f565b61113d576040517f08c379a0000000000000000000000000000000000000000000000000000000008152600401611134906150ae565b60405180910390fd5b61114681612944565b50565b6000611153610e2f565b8210611194576040517f08c379a000000000000000000000000000000000000000000000000000000000815260040161118b90615264565b60405180910390fd5b600882815481106111a8576111a7615284565b5b90600052602060002001549050919050565b6000600b60009054906101000a900460ff16905090565b6000806111dd836129fc565b9050600073ffffffffffffffffffffffffffffffffffffffff168173ffffffffffffffffffffffffffffffffffffffff16141561124f576040517f08c379a0000000000000000000000000000000000000000000000000000000008152600401611246906152ff565b60405180910390fd5b80915050919050565b60008073ffffffffffffffffffffffffffffffffffffffff168273ffffffffffffffffffffffffffffffffffffffff1614156112c9576040517f08c379a00000000000000000000000000000000000000000000000000000000081526004016112c090615391565b60405180910390fd5b600360008373ffffffffffffffffffffffffffffffffffffffff1673ffffffffffffffffffffffffffffffffffffffff168152602001908152602001600020549050919050565b7f65d7a28e3265b37a6474929f336521b332c1681b933f6cb9f3376673440d862a61133a8161226f565b611342612a39565b50565b6000600c600084815260200190815260200160002060000160008373ffffffffffffffffffffffffffffffffffffffff1673ffffffffffffffffffffffffffffffffffffffff16815260200190815260200160002060009054906101000a900460ff16905092915050565b6060600180546113bf90614ee6565b80601f01602080910402602001604051908101604052809291908181526020018280546113eb90614ee6565b80156114385780601f1061140d57610100808354040283529160200191611438565b820191906000526020600020905b81548152906001019060200180831161141b57829003601f168201915b5050505050905090565b6060600f6000838152602001908152602001600020805461146290614ee6565b80601f016020809104026020016040519081016040528092919081815260200182805461148e90614ee6565b80156114db5780601f106114b0576101008083540402835291602001916114db565b820191906000526020600020905b8154815290600101906020018083116114be57829003601f168201915b50505050509050919050565b6114ef614250565b6114f7614250565b6115086115026122ce565b8461238f565b611547576040517f08c379a000000000000000000000000000000000000000000000000000000000815260040161153e90615423565b60405180910390fd5b60106000848152602001908152602001600020601160008581526020019081526020016000208160405180608001604052908160008201805461158990614ee6565b80601f01602080910402602001604051908101604052809291908181526020018280546115b590614ee6565b80156116025780601f106115d757610100808354040283529160200191611602565b820191906000526020600020905b8154815290600101906020018083116115e557829003601f168201915b5050505050815260200160018201805461161b90614ee6565b80601f016020809104026020016040519081016040528092919081815260200182805461164790614ee6565b80156116945780601f1061166957610100808354040283529160200191611694565b820191906000526020600020905b81548152906001019060200180831161167757829003601f168201915b505050505081526020016002820180546116ad90614ee6565b80601f01602080910402602001604051908101604052809291908181526020018280546116d990614ee6565b80156117265780601f106116fb57610100808354040283529160200191611726565b820191906000526020600020905b81548152906001019060200180831161170957829003601f168201915b5050505050815260200160038201805461173f90614ee6565b80601f016020809104026020016040519081016040528092919081815260200182805461176b90614ee6565b80156117b85780601f1061178d576101008083540402835291602001916117b8565b820191906000526020600020905b81548152906001019060200180831161179b57829003601f168201915b5050505050815250509150806040518060800160405290816000820180546117df90614ee6565b80601f016020809104026020016040519081016040528092919081815260200182805461180b90614ee6565b80156118585780601f1061182d57610100808354040283529160200191611858565b820191906000526020600020905b81548152906001019060200180831161183b57829003601f168201915b5050505050815260200160018201805461187190614ee6565b80601f016020809104026020016040519081016040528092919081815260200182805461189d90614ee6565b80156118ea5780601f106118bf576101008083540402835291602001916118ea565b820191906000526020600020905b8154815290600101906020018083116118cd57829003601f168201915b5050505050815260200160028201805461190390614ee6565b80601f016020809104026020016040519081016040528092919081815260200182805461192f90614ee6565b801561197c5780601f106119515761010080835404028352916020019161197c565b820191906000526020600020905b81548152906001019060200180831161195f57829003601f168201915b5050505050815260200160038201805461199590614ee6565b80601f01602080910402602001604051908101604052809291908181526020018280546119c190614ee6565b8015611a0e5780601f106119e357610100808354040283529160200191611a0e565b820191906000526020600020905b8154815290600101906020018083116119f157829003601f168201915b505050505081525050905091509150915091565b7fd0643f51bd184a6a394cdade44604c05442b11e696dabba32ec676f5e962b835611a4c8161226f565b82601260008681526020019081526020016000206000820151816000019080519060200190611a7c929190614278565b506020820151816001019080519060200190611a99929190614278565b506040820151816002019080519060200190611ab6929190614278565b506060820151816003019080519060200190611ad3929190614278565b5090505081601360008681526020019081526020016000206000820151816000019080519060200190611b07929190614278565b506020820151816001019080519060200190611b24929190614278565b506040820151816002019080519060200190611b41929190614278565b506060820151816003019080519060200190611b5e929190614278565b5090505050505050565b6000801b81565b611b81611b7a6122ce565b8383612a9c565b5050565b611b96611b906122ce565b8461238f565b611bd5576040517f08c379a0000000000000000000000000000000000000000000000000000000008152600401611bcc906154b5565b60405180910390fd5b81601060008581526020019081526020016000206000820151816000019080519060200190611c05929190614278565b506020820151816001019080519060200190611c22929190614278565b506040820151816002019080519060200190611c3f929190614278565b506060820151816003019080519060200190611c5c929190614278565b5090505080601160008581526020019081526020016000206000820151816000019080519060200190611c90929190614278565b506020820151816001019080519060200190611cad929190614278565b506040820151816002019080519060200190611cca929190614278565b506060820151816003019080519060200190611ce7929190614278565b50905050505050565b611d01611cfb6122ce565b8361238f565b611d40576040517f08c379a0000000000000000000000000000000000000000000000000000000008152600401611d37906150ae565b60405180910390fd5b611d4c84848484612c09565b50505050565b6060611d5d82612c65565b9050919050565b611d6d82610ec0565b611d768161226f565b611d8083836127ff565b505050565b7f65d7a28e3265b37a6474929f336521b332c1681b933f6cb9f3376673440d862a81565b6000600560008473ffffffffffffffffffffffffffffffffffffffff1673ffffffffffffffffffffffffffffffffffffffff16815260200190815260200160002060008373ffffffffffffffffffffffffffffffffffffffff1673ffffffffffffffffffffffffffffffffffffffff16815260200190815260200160002060009054906101000a900460ff16905092915050565b7f6310cf9c937bcad92df0897b8ab11d37ff788bec126c5807fb57fb0423e3f40d81565b6000611e6d600d612d78565b6000611e79600d612d8e565b9050611e858982612d9c565b611e8f8189612dba565b86600f60008381526020019081526020016000209080519060200190611eb6929190614278565b5085601060008381526020019081526020016000206000820151816000019080519060200190611ee7929190614278565b506020820151816001019080519060200190611f04929190614278565b506040820151816002019080519060200190611f21929190614278565b506060820151816003019080519060200190611f3e929190614278565b5090505084601160008381526020019081526020016000206000820151816000019080519060200190611f72929190614278565b506020820151816001019080519060200190611f8f929190614278565b506040820151816002019080519060200190611fac929190614278565b506060820151816003019080519060200190611fc9929190614278565b5090505083601260008381526020019081526020016000206000820151816000019080519060200190611ffd929190614278565b50602082015181600101908051906020019061201a929190614278565b506040820151816002019080519060200190612037929190614278565b506060820151816003019080519060200190612054929190614278565b5090505082601360008381526020019081526020016000206000820151816000019080519060200190612088929190614278565b5060208201518160010190805190602001906120a5929190614278565b5060408201518160020190805190602001906120c2929190614278565b5060608201518160030190805190602001906120df929190614278565b509050506000600e60009054906101000a900473ffffffffffffffffffffffffffffffffffffffff1673ffffffffffffffffffffffffffffffffffffffff166317a6b60930846040518363ffffffff1660e01b81526004016121429291906154d5565b602060405180830381600087803b15801561215c57600080fd5b505af1158015612170573d6000803e3d6000fd5b505050506040513d601f19601f820116820180604052508101906121949190615513565b90506000151581151514156121e55760006121e4576040517f08c379a00000000000000000000000000000000000000000000000000000000081526004016121db906155b2565b60405180910390fd5b5b8192505050979650505050505050565b60007f7965db0b000000000000000000000000000000000000000000000000000000007bffffffffffffffffffffffffffffffffffffffffffffffffffffffff1916827bffffffffffffffffffffffffffffffffffffffffffffffffffffffff19161480612268575061226782612e2e565b5b9050919050565b6122808161227b6122ce565b612ea8565b50565b61228c81612f2d565b6122cb576040517f08c379a00000000000000000000000000000000000000000000000000000000081526004016122c2906152ff565b60405180910390fd5b50565b600033905090565b816004600083815260200190815260200160002060006101000a81548173ffffffffffffffffffffffffffffffffffffffff021916908373ffffffffffffffffffffffffffffffffffffffff160217905550808273ffffffffffffffffffffffffffffffffffffffff16612349836111d1565b73ffffffffffffffffffffffffffffffffffffffff167f8c5be1e5ebec7d5bd14f71427d1e84f3dd0314c0f7b2291e5b200ac8c7c3b92560405160405180910390a45050565b60008061239b836111d1565b90508073ffffffffffffffffffffffffffffffffffffffff168473ffffffffffffffffffffffffffffffffffffffff1614806123dd57506123dc8185611da9565b5b8061241b57508373ffffffffffffffffffffffffffffffffffffffff1661240384610cd1565b73ffffffffffffffffffffffffffffffffffffffff16145b91505092915050565b8273ffffffffffffffffffffffffffffffffffffffff16612444826111d1565b73ffffffffffffffffffffffffffffffffffffffff161461249a576040517f08c379a000000000000000000000000000000000000000000000000000000000815260040161249190615644565b60405180910390fd5b600073ffffffffffffffffffffffffffffffffffffffff168273ffffffffffffffffffffffffffffffffffffffff16141561250a576040517f08c379a0000000000000000000000000000000000000000000000000000000008152600401612501906156d6565b60405180910390fd5b6125178383836001612f6e565b8273ffffffffffffffffffffffffffffffffffffffff16612537826111d1565b73ffffffffffffffffffffffffffffffffffffffff161461258d576040517f08c379a000000000000000000000000000000000000000000000000000000000815260040161258490615644565b60405180910390fd5b6004600082815260200190815260200160002060006101000a81549073ffffffffffffffffffffffffffffffffffffffff02191690556001600360008573ffffffffffffffffffffffffffffffffffffffff1673ffffffffffffffffffffffffffffffffffffffff168152602001908152602001600020600082825403925050819055506001600360008473ffffffffffffffffffffffffffffffffffffffff1673ffffffffffffffffffffffffffffffffffffffff16815260200190815260200160002060008282540192505081905550816002600083815260200190815260200160002060006101000a81548173ffffffffffffffffffffffffffffffffffffffff021916908373ffffffffffffffffffffffffffffffffffffffff160217905550808273ffffffffffffffffffffffffffffffffffffffff168473ffffffffffffffffffffffffffffffffffffffff167fddf252ad1be2c89b69c2b068fc378daa952ba7f163c4a11628f55a4df523b3ef60405160405180910390a46127198383836001612f88565b505050565b6127288282611345565b6127fb576001600c600084815260200190815260200160002060000160008373ffffffffffffffffffffffffffffffffffffffff1673ffffffffffffffffffffffffffffffffffffffff16815260200190815260200160002060006101000a81548160ff0219169083151502179055506127a06122ce565b73ffffffffffffffffffffffffffffffffffffffff168173ffffffffffffffffffffffffffffffffffffffff16837f2f8788117e7eff1d82e926ec794901d17c78024a50270940304540a733656f0d60405160405180910390a45b5050565b6128098282611345565b156128dd576000600c600084815260200190815260200160002060000160008373ffffffffffffffffffffffffffffffffffffffff1673ffffffffffffffffffffffffffffffffffffffff16815260200190815260200160002060006101000a81548160ff0219169083151502179055506128826122ce565b73ffffffffffffffffffffffffffffffffffffffff168173ffffffffffffffffffffffffffffffffffffffff16837ff6391f5c32d9c69d2a47ea670b442974b53935d1edc7fd64eb21e047a839171b60405160405180910390a45b5050565b6128e9612ff8565b6000600b60006101000a81548160ff0219169083151502179055507f5db9ee0a495bf2e6ff9c91a7834c1ba4fdd244a5e8aa4e537bd38aeae4b073aa61292d6122ce565b60405161293a9190614682565b60405180910390a1565b61294d81613041565b601060008281526020019081526020016000206000808201600061297191906142fe565b60018201600061298191906142fe565b60028201600061299191906142fe565b6003820160006129a191906142fe565b505060126000828152602001908152602001600020600080820160006129c791906142fe565b6001820160006129d791906142fe565b6002820160006129e791906142fe565b6003820160006129f791906142fe565b505050565b60006002600083815260200190815260200160002060009054906101000a900473ffffffffffffffffffffffffffffffffffffffff169050919050565b612a41613094565b6001600b60006101000a81548160ff0219169083151502179055507f62e78cea01bee320cd4e420270b5ea74000d11b0c9f74754ebdbfc544b05a258612a856122ce565b604051612a929190614682565b60405180910390a1565b8173ffffffffffffffffffffffffffffffffffffffff168373ffffffffffffffffffffffffffffffffffffffff161415612b0b576040517f08c379a0000000000000000000000000000000000000000000000000000000008152600401612b0290615742565b60405180910390fd5b80600560008573ffffffffffffffffffffffffffffffffffffffff1673ffffffffffffffffffffffffffffffffffffffff16815260200190815260200160002060008473ffffffffffffffffffffffffffffffffffffffff1673ffffffffffffffffffffffffffffffffffffffff16815260200190815260200160002060006101000a81548160ff0219169083151502179055508173ffffffffffffffffffffffffffffffffffffffff168373ffffffffffffffffffffffffffffffffffffffff167f17307eab39ab6107e8899845ad3d59bd9653f200f220920489ca2b5937696c3183604051612bfc919061440f565b60405180910390a3505050565b612c14848484612424565b612c20848484846130de565b612c5f576040517f08c379a0000000000000000000000000000000000000000000000000000000008152600401612c56906157d4565b60405180910390fd5b50505050565b6060612c7082612283565b6000600a60008481526020019081526020016000208054612c9090614ee6565b80601f0160208091040260200160405190810160405280929190818152602001828054612cbc90614ee6565b8015612d095780601f10612cde57610100808354040283529160200191612d09565b820191906000526020600020905b815481529060010190602001808311612cec57829003601f168201915b505050505090506000612d1a613275565b9050600081511415612d30578192505050612d73565b600082511115612d65578082604051602001612d4d929190615830565b60405160208183030381529060405292505050612d73565b612d6e8461328c565b925050505b919050565b6001816000016000828254019250508190555050565b600081600001549050919050565b612db68282604051806020016040528060008152506132f4565b5050565b612dc382612f2d565b612e02576040517f08c379a0000000000000000000000000000000000000000000000000000000008152600401612df9906158c6565b60405180910390fd5b80600a60008481526020019081526020016000209080519060200190612e29929190614278565b505050565b60007f780e9d63000000000000000000000000000000000000000000000000000000007bffffffffffffffffffffffffffffffffffffffffffffffffffffffff1916827bffffffffffffffffffffffffffffffffffffffffffffffffffffffff19161480612ea15750612ea08261334f565b5b9050919050565b612eb28282611345565b612f2957612ebf81613431565b612ecd8360001c602061345e565b604051602001612ede92919061597e565b6040516020818303038152906040526040517f08c379a0000000000000000000000000000000000000000000000000000000008152600401612f20919061461f565b60405180910390fd5b5050565b60008073ffffffffffffffffffffffffffffffffffffffff16612f4f836129fc565b73ffffffffffffffffffffffffffffffffffffffff1614159050919050565b612f76613094565b612f828484848461369a565b50505050565b612f90613094565b612f9c848484846137fa565b6010600083815260200190815260200160002060008082016000612fc091906142fe565b600182016000612fd091906142fe565b600282016000612fe091906142fe565b600382016000612ff091906142fe565b505050505050565b6130006111ba565b61303f576040517f08c379a000000000000000000000000000000000000000000000000000000000815260040161303690615a04565b60405180910390fd5b565b61304a81613800565b6000600a6000838152602001908152602001600020805461306a90614ee6565b90501461309157600a6000828152602001908152602001600020600061309091906142fe565b5b50565b61309c6111ba565b156130dc576040517f08c379a00000000000000000000000000000000000000000000000000000000081526004016130d390615a70565b60405180910390fd5b565b60006130ff8473ffffffffffffffffffffffffffffffffffffffff1661394e565b15613268578373ffffffffffffffffffffffffffffffffffffffff1663150b7a026131286122ce565b8786866040518563ffffffff1660e01b815260040161314a9493929190615ae5565b602060405180830381600087803b15801561316457600080fd5b505af192505050801561319557506040513d601f19601f820116820180604052508101906131929190615b46565b60015b613218573d80600081146131c5576040519150601f19603f3d011682016040523d82523d6000602084013e6131ca565b606091505b50600081511415613210576040517f08c379a0000000000000000000000000000000000000000000000000000000008152600401613207906157d4565b60405180910390fd5b805181602001fd5b63150b7a0260e01b7bffffffffffffffffffffffffffffffffffffffffffffffffffffffff1916817bffffffffffffffffffffffffffffffffffffffffffffffffffffffff19161491505061326d565b600190505b949350505050565b606060405180602001604052806000815250905090565b606061329782612283565b60006132a1613275565b905060008151116132c157604051806020016040528060008152506132ec565b806132cb84613971565b6040516020016132dc929190615830565b6040516020818303038152906040525b915050919050565b6132fe8383613a49565b61330b60008484846130de565b61334a576040517f08c379a0000000000000000000000000000000000000000000000000000000008152600401613341906157d4565b60405180910390fd5b505050565b60007f80ac58cd000000000000000000000000000000000000000000000000000000007bffffffffffffffffffffffffffffffffffffffffffffffffffffffff1916827bffffffffffffffffffffffffffffffffffffffffffffffffffffffff1916148061341a57507f5b5e139f000000000000000000000000000000000000000000000000000000007bffffffffffffffffffffffffffffffffffffffffffffffffffffffff1916827bffffffffffffffffffffffffffffffffffffffffffffffffffffffff1916145b8061342a575061342982613c67565b5b9050919050565b60606134578273ffffffffffffffffffffffffffffffffffffffff16601460ff1661345e565b9050919050565b6060600060028360026134719190615ba2565b61347b9190615bfc565b67ffffffffffffffff811115613494576134936148f0565b5b6040519080825280601f01601f1916602001820160405280156134c65781602001600182028036833780820191505090505b5090507f3000000000000000000000000000000000000000000000000000000000000000816000815181106134fe576134fd615284565b5b60200101907effffffffffffffffffffffffffffffffffffffffffffffffffffffffffffff1916908160001a9053507f78000000000000000000000000000000000000000000000000000000000000008160018151811061356257613561615284565b5b60200101907effffffffffffffffffffffffffffffffffffffffffffffffffffffffffffff1916908160001a905350600060018460026135a29190615ba2565b6135ac9190615bfc565b90505b600181111561364c577f3031323334353637383961626364656600000000000000000000000000000000600f8616601081106135ee576135ed615284565b5b1a60f81b82828151811061360557613604615284565b5b60200101907effffffffffffffffffffffffffffffffffffffffffffffffffffffffffffff1916908160001a905350600485901c94508061364590615c52565b90506135af565b5060008414613690576040517f08c379a000000000000000000000000000000000000000000000000000000000815260040161368790615cc8565b60405180910390fd5b8091505092915050565b6136a684848484613cd1565b60018111156136ea576040517f08c379a00000000000000000000000000000000000000000000000000000000081526004016136e190615d5a565b60405180910390fd5b6000829050600073ffffffffffffffffffffffffffffffffffffffff168573ffffffffffffffffffffffffffffffffffffffff1614156137325761372d81613df7565b613771565b8373ffffffffffffffffffffffffffffffffffffffff168573ffffffffffffffffffffffffffffffffffffffff16146137705761376f8582613e40565b5b5b600073ffffffffffffffffffffffffffffffffffffffff168473ffffffffffffffffffffffffffffffffffffffff1614156137b4576137af81613fad565b6137f3565b8473ffffffffffffffffffffffffffffffffffffffff168473ffffffffffffffffffffffffffffffffffffffff16146137f2576137f1848261407e565b5b5b5050505050565b50505050565b600061380b826111d1565b905061381b816000846001612f6e565b613824826111d1565b90506004600083815260200190815260200160002060006101000a81549073ffffffffffffffffffffffffffffffffffffffff02191690556001600360008373ffffffffffffffffffffffffffffffffffffffff1673ffffffffffffffffffffffffffffffffffffffff168152602001908152602001600020600082825403925050819055506002600083815260200190815260200160002060006101000a81549073ffffffffffffffffffffffffffffffffffffffff021916905581600073ffffffffffffffffffffffffffffffffffffffff168273ffffffffffffffffffffffffffffffffffffffff167fddf252ad1be2c89b69c2b068fc378daa952ba7f163c4a11628f55a4df523b3ef60405160405180910390a461394a816000846001612f88565b5050565b6000808273ffffffffffffffffffffffffffffffffffffffff163b119050919050565b606060006001613980846140fd565b01905060008167ffffffffffffffff81111561399f5761399e6148f0565b5b6040519080825280601f01601f1916602001820160405280156139d15781602001600182028036833780820191505090505b509050600082602001820190505b600115613a3e578080600190039150507f3031323334353637383961626364656600000000000000000000000000000000600a86061a8153600a8581613a2857613a27615d7a565b5b0494506000851415613a3957613a3e565b6139df565b819350505050919050565b600073ffffffffffffffffffffffffffffffffffffffff168273ffffffffffffffffffffffffffffffffffffffff161415613ab9576040517f08c379a0000000000000000000000000000000000000000000000000000000008152600401613ab090615df5565b60405180910390fd5b613ac281612f2d565b15613b02576040517f08c379a0000000000000000000000000000000000000000000000000000000008152600401613af990615e61565b60405180910390fd5b613b10600083836001612f6e565b613b1981612f2d565b15613b59576040517f08c379a0000000000000000000000000000000000000000000000000000000008152600401613b5090615e61565b60405180910390fd5b6001600360008473ffffffffffffffffffffffffffffffffffffffff1673ffffffffffffffffffffffffffffffffffffffff16815260200190815260200160002060008282540192505081905550816002600083815260200190815260200160002060006101000a81548173ffffffffffffffffffffffffffffffffffffffff021916908373ffffffffffffffffffffffffffffffffffffffff160217905550808273ffffffffffffffffffffffffffffffffffffffff16600073ffffffffffffffffffffffffffffffffffffffff167fddf252ad1be2c89b69c2b068fc378daa952ba7f163c4a11628f55a4df523b3ef60405160405180910390a4613c63600083836001612f88565b5050565b60007f01ffc9a7000000000000000000000000000000000000000000000000000000007bffffffffffffffffffffffffffffffffffffffffffffffffffffffff1916827bffffffffffffffffffffffffffffffffffffffffffffffffffffffff1916149050919050565b6001811115613df157600073ffffffffffffffffffffffffffffffffffffffff168473ffffffffffffffffffffffffffffffffffffffff1614613d655780600360008673ffffffffffffffffffffffffffffffffffffffff1673ffffffffffffffffffffffffffffffffffffffff1681526020019081526020016000206000828254613d5d9190615e81565b925050819055505b600073ffffffffffffffffffffffffffffffffffffffff168373ffffffffffffffffffffffffffffffffffffffff1614613df05780600360008573ffffffffffffffffffffffffffffffffffffffff1673ffffffffffffffffffffffffffffffffffffffff1681526020019081526020016000206000828254613de89190615bfc565b925050819055505b5b50505050565b6008805490506009600083815260200190815260200160002081905550600881908060018154018082558091505060019003906000526020600020016000909190919091505550565b60006001613e4d84611258565b613e579190615e81565b9050600060076000848152602001908152602001600020549050818114613f3c576000600660008673ffffffffffffffffffffffffffffffffffffffff1673ffffffffffffffffffffffffffffffffffffffff168152602001908152602001600020600084815260200190815260200160002054905080600660008773ffffffffffffffffffffffffffffffffffffffff1673ffffffffffffffffffffffffffffffffffffffff168152602001908152602001600020600084815260200190815260200160002081905550816007600083815260200190815260200160002081905550505b6007600084815260200190815260200160002060009055600660008573ffffffffffffffffffffffffffffffffffffffff1673ffffffffffffffffffffffffffffffffffffffff16815260200190815260200160002060008381526020019081526020016000206000905550505050565b60006001600880549050613fc19190615e81565b9050600060096000848152602001908152602001600020549050600060088381548110613ff157613ff0615284565b5b90600052602060002001549050806008838154811061401357614012615284565b5b90600052602060002001819055508160096000838152602001908152602001600020819055506009600085815260200190815260200160002060009055600880548061406257614061615eb5565b5b6001900381819060005260206000200160009055905550505050565b600061408983611258565b905081600660008573ffffffffffffffffffffffffffffffffffffffff1673ffffffffffffffffffffffffffffffffffffffff168152602001908152602001600020600083815260200190815260200160002081905550806007600084815260200190815260200160002081905550505050565b600080600090507a184f03e93ff9f4daa797ed6e38ed64bf6a1f010000000000000000831061415b577a184f03e93ff9f4daa797ed6e38ed64bf6a1f010000000000000000838161415157614150615d7a565b5b0492506040810190505b6d04ee2d6d415b85acef81000000008310614198576d04ee2d6d415b85acef8100000000838161418e5761418d615d7a565b5b0492506020810190505b662386f26fc1000083106141c757662386f26fc1000083816141bd576141bc615d7a565b5b0492506010810190505b6305f5e10083106141f0576305f5e10083816141e6576141e5615d7a565b5b0492506008810190505b612710831061421557612710838161420b5761420a615d7a565b5b0492506004810190505b60648310614238576064838161422e5761422d615d7a565b5b0492506002810190505b600a8310614247576001810190505b80915050919050565b6040518060800160405280606081526020016060815260200160608152602001606081525090565b82805461428490614ee6565b90600052602060002090601f0160209004810192826142a657600085556142ed565b82601f106142bf57805160ff19168380011785556142ed565b828001600101855582156142ed579182015b828111156142ec5782518255916020019190600101906142d1565b5b5090506142fa919061433e565b5090565b50805461430a90614ee6565b6000825580601f1061431c575061433b565b601f01602090049060005260206000209081019061433a919061433e565b5b50565b5b8082111561435757600081600090555060010161433f565b5090565b6000604051905090565b600080fd5b600080fd5b60007fffffffff0000000000000000000000000000000000000000000000000000000082169050919050565b6143a48161436f565b81146143af57600080fd5b50565b6000813590506143c18161439b565b92915050565b6000602082840312156143dd576143dc614365565b5b60006143eb848285016143b2565b91505092915050565b60008115159050919050565b614409816143f4565b82525050565b60006020820190506144246000830184614400565b92915050565b6000819050919050565b61443d8161442a565b811461444857600080fd5b50565b60008135905061445a81614434565b92915050565b60006020828403121561447657614475614365565b5b60006144848482850161444b565b91505092915050565b600081519050919050565b600082825260208201905092915050565b60005b838110156144c75780820151818401526020810190506144ac565b838111156144d6576000848401525b50505050565b6000601f19601f8301169050919050565b60006144f88261448d565b6145028185614498565b93506145128185602086016144a9565b61451b816144dc565b840191505092915050565b6000608083016000830151848203600086015261454382826144ed565b9150506020830151848203602086015261455d82826144ed565b9150506040830151848203604086015261457782826144ed565b9150506060830151848203606086015261459182826144ed565b9150508091505092915050565b600060408201905081810360008301526145b88185614526565b905081810360208301526145cc8184614526565b90509392505050565b600082825260208201905092915050565b60006145f18261448d565b6145fb81856145d5565b935061460b8185602086016144a9565b614614816144dc565b840191505092915050565b6000602082019050818103600083015261463981846145e6565b905092915050565b600073ffffffffffffffffffffffffffffffffffffffff82169050919050565b600061466c82614641565b9050919050565b61467c81614661565b82525050565b60006020820190506146976000830184614673565b92915050565b6146a681614661565b81146146b157600080fd5b50565b6000813590506146c38161469d565b92915050565b600080604083850312156146e0576146df614365565b5b60006146ee858286016146b4565b92505060206146ff8582860161444b565b9150509250929050565b6147128161442a565b82525050565b600060208201905061472d6000830184614709565b92915050565b6000819050919050565b61474681614733565b82525050565b6000602082019050614761600083018461473d565b92915050565b6000806000606084860312156147805761477f614365565b5b600061478e868287016146b4565b935050602061479f868287016146b4565b92505060406147b08682870161444b565b9150509250925092565b6147c381614733565b81146147ce57600080fd5b50565b6000813590506147e0816147ba565b92915050565b6000602082840312156147fc576147fb614365565b5b600061480a848285016147d1565b91505092915050565b600061481e82614641565b9050919050565b61482e81614813565b811461483957600080fd5b50565b60008135905061484b81614825565b92915050565b60006020828403121561486757614866614365565b5b60006148758482850161483c565b91505092915050565b6000806040838503121561489557614894614365565b5b60006148a3858286016147d1565b92505060206148b4858286016146b4565b9150509250929050565b6000602082840312156148d4576148d3614365565b5b60006148e2848285016146b4565b91505092915050565b600080fd5b7f4e487b7100000000000000000000000000000000000000000000000000000000600052604160045260246000fd5b614928826144dc565b810181811067ffffffffffffffff82111715614947576149466148f0565b5b80604052505050565b600061495a61435b565b9050614966828261491f565b919050565b600080fd5b600080fd5b600080fd5b600067ffffffffffffffff821115614995576149946148f0565b5b61499e826144dc565b9050602081019050919050565b82818337600083830152505050565b60006149cd6149c88461497a565b614950565b9050828152602081018484840111156149e9576149e8614975565b5b6149f48482856149ab565b509392505050565b600082601f830112614a1157614a10614970565b5b8135614a218482602086016149ba565b91505092915050565b600060808284031215614a4057614a3f6148eb565b5b614a4a6080614950565b9050600082013567ffffffffffffffff811115614a6a57614a6961496b565b5b614a76848285016149fc565b600083015250602082013567ffffffffffffffff811115614a9a57614a9961496b565b5b614aa6848285016149fc565b602083015250604082013567ffffffffffffffff811115614aca57614ac961496b565b5b614ad6848285016149fc565b604083015250606082013567ffffffffffffffff811115614afa57614af961496b565b5b614b06848285016149fc565b60608301525092915050565b600080600060608486031215614b2b57614b2a614365565b5b6000614b398682870161444b565b935050602084013567ffffffffffffffff811115614b5a57614b5961436a565b5b614b6686828701614a2a565b925050604084013567ffffffffffffffff811115614b8757614b8661436a565b5b614b9386828701614a2a565b9150509250925092565b614ba6816143f4565b8114614bb157600080fd5b50565b600081359050614bc381614b9d565b92915050565b60008060408385031215614be057614bdf614365565b5b6000614bee858286016146b4565b9250506020614bff85828601614bb4565b9150509250929050565b600067ffffffffffffffff821115614c2457614c236148f0565b5b614c2d826144dc565b9050602081019050919050565b6000614c4d614c4884614c09565b614950565b905082815260208101848484011115614c6957614c68614975565b5b614c748482856149ab565b509392505050565b600082601f830112614c9157614c90614970565b5b8135614ca1848260208601614c3a565b91505092915050565b60008060008060808587031215614cc457614cc3614365565b5b6000614cd2878288016146b4565b9450506020614ce3878288016146b4565b9350506040614cf48782880161444b565b925050606085013567ffffffffffffffff811115614d1557614d1461436a565b5b614d2187828801614c7c565b91505092959194509250565b60008060408385031215614d4457614d43614365565b5b6000614d52858286016146b4565b9250506020614d63858286016146b4565b9150509250929050565b600080600080600080600060e0888a031215614d8c57614d8b614365565b5b6000614d9a8a828b016146b4565b975050602088013567ffffffffffffffff811115614dbb57614dba61436a565b5b614dc78a828b016149fc565b965050604088013567ffffffffffffffff811115614de857614de761436a565b5b614df48a828b016149fc565b955050606088013567ffffffffffffffff811115614e1557614e1461436a565b5b614e218a828b01614a2a565b945050608088013567ffffffffffffffff811115614e4257614e4161436a565b5b614e4e8a828b01614a2a565b93505060a088013567ffffffffffffffff811115614e6f57614e6e61436a565b5b614e7b8a828b01614a2a565b92505060c088013567ffffffffffffffff811115614e9c57614e9b61436a565b5b614ea88a828b01614a2a565b91505092959891949750929550565b7f4e487b7100000000000000000000000000000000000000000000000000000000600052602260045260246000fd5b60006002820490506001821680614efe57607f821691505b60208210811415614f1257614f11614eb7565b5b50919050565b7f4552433732313a20617070726f76616c20746f2063757272656e74206f776e6560008201527f7200000000000000000000000000000000000000000000000000000000000000602082015250565b6000614f746021836145d5565b9150614f7f82614f18565b604082019050919050565b60006020820190508181036000830152614fa381614f67565b9050919050565b7f4552433732313a20617070726f76652063616c6c6572206973206e6f7420746f60008201527f6b656e206f776e6572206f7220617070726f76656420666f7220616c6c000000602082015250565b6000615006603d836145d5565b915061501182614faa565b604082019050919050565b6000602082019050818103600083015261503581614ff9565b9050919050565b7f4552433732313a2063616c6c6572206973206e6f7420746f6b656e206f776e6560008201527f72206f7220617070726f76656400000000000000000000000000000000000000602082015250565b6000615098602d836145d5565b91506150a38261503c565b604082019050919050565b600060208201905081810360008301526150c78161508b565b9050919050565b7f455243373231456e756d657261626c653a206f776e657220696e646578206f7560008201527f74206f6620626f756e6473000000000000000000000000000000000000000000602082015250565b600061512a602b836145d5565b9150615135826150ce565b604082019050919050565b600060208201905081810360008301526151598161511d565b9050919050565b7f416363657373436f6e74726f6c3a2063616e206f6e6c792072656e6f756e636560008201527f20726f6c657320666f722073656c660000000000000000000000000000000000602082015250565b60006151bc602f836145d5565b91506151c782615160565b604082019050919050565b600060208201905081810360008301526151eb816151af565b9050919050565b7f455243373231456e756d657261626c653a20676c6f62616c20696e646578206f60008201527f7574206f6620626f756e64730000000000000000000000000000000000000000602082015250565b600061524e602c836145d5565b9150615259826151f2565b604082019050919050565b6000602082019050818103600083015261527d81615241565b9050919050565b7f4e487b7100000000000000000000000000000000000000000000000000000000600052603260045260246000fd5b7f4552433732313a20696e76616c696420746f6b656e2049440000000000000000600082015250565b60006152e96018836145d5565b91506152f4826152b3565b602082019050919050565b60006020820190508181036000830152615318816152dc565b9050919050565b7f4552433732313a2061646472657373207a65726f206973206e6f74206120766160008201527f6c6964206f776e65720000000000000000000000000000000000000000000000602082015250565b600061537b6029836145d5565b91506153868261531f565b604082019050919050565b600060208201905081810360008301526153aa8161536e565b9050919050565b7f4552433732313a20676574546f6b656e4f776e657250726f6d70742063616c6c60008201527f6572206973206e6f74206f776e6572206e6f7220617070726f76656400000000602082015250565b600061540d603c836145d5565b9150615418826153b1565b604082019050919050565b6000602082019050818103600083015261543c81615400565b9050919050565b7f4552433732313a20636c61696d50726f6d70742063616c6c6572206973206e6f60008201527f74206f776e6572206e6f7220617070726f766564000000000000000000000000602082015250565b600061549f6034836145d5565b91506154aa82615443565b604082019050919050565b600060208201905081810360008301526154ce81615492565b9050919050565b60006040820190506154ea6000830185614673565b6154f76020830184614709565b9392505050565b60008151905061550d81614b9d565b92915050565b60006020828403121561552957615528614365565b5b6000615537848285016154fe565b91505092915050565b7f43616c6c2072656769737465724e46542066756e6374696f6e206f662072656e60008201527f744d61726b657420636f6e7472616374206661696c65642e0000000000000000602082015250565b600061559c6038836145d5565b91506155a782615540565b604082019050919050565b600060208201905081810360008301526155cb8161558f565b9050919050565b7f4552433732313a207472616e736665722066726f6d20696e636f72726563742060008201527f6f776e6572000000000000000000000000000000000000000000000000000000602082015250565b600061562e6025836145d5565b9150615639826155d2565b604082019050919050565b6000602082019050818103600083015261565d81615621565b9050919050565b7f4552433732313a207472616e7366657220746f20746865207a65726f2061646460008201527f7265737300000000000000000000000000000000000000000000000000000000602082015250565b60006156c06024836145d5565b91506156cb82615664565b604082019050919050565b600060208201905081810360008301526156ef816156b3565b9050919050565b7f4552433732313a20617070726f766520746f2063616c6c657200000000000000600082015250565b600061572c6019836145d5565b9150615737826156f6565b602082019050919050565b6000602082019050818103600083015261575b8161571f565b9050919050565b7f4552433732313a207472616e7366657220746f206e6f6e20455243373231526560008201527f63656976657220696d706c656d656e7465720000000000000000000000000000602082015250565b60006157be6032836145d5565b91506157c982615762565b604082019050919050565b600060208201905081810360008301526157ed816157b1565b9050919050565b600081905092915050565b600061580a8261448d565b61581481856157f4565b93506158248185602086016144a9565b80840191505092915050565b600061583c82856157ff565b915061584882846157ff565b91508190509392505050565b7f45524337323155524953746f726167653a2055524920736574206f66206e6f6e60008201527f6578697374656e7420746f6b656e000000000000000000000000000000000000602082015250565b60006158b0602e836145d5565b91506158bb82615854565b604082019050919050565b600060208201905081810360008301526158df816158a3565b9050919050565b7f416363657373436f6e74726f6c3a206163636f756e7420000000000000000000600082015250565b600061591c6017836157f4565b9150615927826158e6565b601782019050919050565b7f206973206d697373696e6720726f6c6520000000000000000000000000000000600082015250565b60006159686011836157f4565b915061597382615932565b601182019050919050565b60006159898261590f565b915061599582856157ff565b91506159a08261595b565b91506159ac82846157ff565b91508190509392505050565b7f5061757361626c653a206e6f7420706175736564000000000000000000000000600082015250565b60006159ee6014836145d5565b91506159f9826159b8565b602082019050919050565b60006020820190508181036000830152615a1d816159e1565b9050919050565b7f5061757361626c653a2070617573656400000000000000000000000000000000600082015250565b6000615a5a6010836145d5565b9150615a6582615a24565b602082019050919050565b60006020820190508181036000830152615a8981615a4d565b9050919050565b600081519050919050565b600082825260208201905092915050565b6000615ab782615a90565b615ac18185615a9b565b9350615ad18185602086016144a9565b615ada816144dc565b840191505092915050565b6000608082019050615afa6000830187614673565b615b076020830186614673565b615b146040830185614709565b8181036060830152615b268184615aac565b905095945050505050565b600081519050615b408161439b565b92915050565b600060208284031215615b5c57615b5b614365565b5b6000615b6a84828501615b31565b91505092915050565b7f4e487b7100000000000000000000000000000000000000000000000000000000600052601160045260246000fd5b6000615bad8261442a565b9150615bb88361442a565b9250817fffffffffffffffffffffffffffffffffffffffffffffffffffffffffffffffff0483118215151615615bf157615bf0615b73565b5b828202905092915050565b6000615c078261442a565b9150615c128361442a565b9250827fffffffffffffffffffffffffffffffffffffffffffffffffffffffffffffffff03821115615c4757615c46615b73565b5b828201905092915050565b6000615c5d8261442a565b91506000821415615c7157615c70615b73565b5b600182039050919050565b7f537472696e67733a20686578206c656e67746820696e73756666696369656e74600082015250565b6000615cb26020836145d5565b9150615cbd82615c7c565b602082019050919050565b60006020820190508181036000830152615ce181615ca5565b9050919050565b7f455243373231456e756d657261626c653a20636f6e736563757469766520747260008201527f616e7366657273206e6f7420737570706f727465640000000000000000000000602082015250565b6000615d446035836145d5565b9150615d4f82615ce8565b604082019050919050565b60006020820190508181036000830152615d7381615d37565b9050919050565b7f4e487b7100000000000000000000000000000000000000000000000000000000600052601260045260246000fd5b7f4552433732313a206d696e7420746f20746865207a65726f2061646472657373600082015250565b6000615ddf6020836145d5565b9150615dea82615da9565b602082019050919050565b60006020820190508181036000830152615e0e81615dd2565b9050919050565b7f4552433732313a20746f6b656e20616c7265616479206d696e74656400000000600082015250565b6000615e4b601c836145d5565b9150615e5682615e15565b602082019050919050565b60006020820190508181036000830152615e7a81615e3e565b9050919050565b6000615e8c8261442a565b9150615e978361442a565b925082821015615eaa57615ea9615b73565b5b828203905092915050565b7f4e487b7100000000000000000000000000000000000000000000000000000000600052603160045260246000fdfea2646970667358221220b003ca11dee63c236ff6c388c0c2e8eac3bc1315236d713d33e446f0ccf3fda864736f6c63430008090033",
  "linkReferences": {},
  "deployedLinkReferences": {}
}