{
  "_format": "hh-sol-artifact-1",
  "contractName": "rentMarket",
  "sourceName": "contracts/rentMarket.sol",
  "abi": [
    {
      "inputs": [],
      "stateMutability": "nonpayable",
      "type": "constructor"
    },
    {
      "anonymous": false,
      "inputs": [
        {
          "indexed": true,
          "internalType": "address",
          "name": "nftAddress",
          "type": "address"
        },
        {
          "indexed": true,
          "internalType": "uint256",
          "name": "tokenId",
          "type": "uint256"
        },
        {
          "indexed": false,
          "internalType": "uint256",
          "name": "rentFee",
          "type": "uint256"
        },
        {
          "indexed": false,
          "internalType": "address",
          "name": "feeTokenAddress",
          "type": "address"
        },
        {
          "indexed": false,
          "internalType": "uint256",
          "name": "rentFeeByToken",
          "type": "uint256"
        },
        {
          "indexed": false,
          "internalType": "uint256",
          "name": "rentDuration",
          "type": "uint256"
        },
        {
          "indexed": false,
          "internalType": "address",
          "name": "NFTOwnerAddress",
          "type": "address"
        },
        {
          "indexed": true,
          "internalType": "address",
          "name": "changerAddress",
          "type": "address"
        }
      ],
      "name": "ChangeNFT",
      "type": "event"
    },
    {
      "anonymous": false,
      "inputs": [
        {
          "indexed": true,
          "internalType": "address",
          "name": "sender",
          "type": "address"
        }
      ],
      "name": "Fallback",
      "type": "event"
    },
    {
      "anonymous": false,
      "inputs": [
        {
          "indexed": true,
          "internalType": "address",
          "name": "previousOwner",
          "type": "address"
        },
        {
          "indexed": true,
          "internalType": "address",
          "name": "newOwner",
          "type": "address"
        }
      ],
      "name": "OwnershipTransferred",
      "type": "event"
    },
    {
      "anonymous": false,
      "inputs": [
        {
          "indexed": false,
          "internalType": "address",
          "name": "account",
          "type": "address"
        }
      ],
      "name": "Paused",
      "type": "event"
    },
    {
      "anonymous": false,
      "inputs": [
        {
          "indexed": true,
          "internalType": "address",
          "name": "sender",
          "type": "address"
        },
        {
          "indexed": true,
          "internalType": "uint256",
          "name": "value",
          "type": "uint256"
        }
      ],
      "name": "Receive",
      "type": "event"
    },
    {
      "anonymous": false,
      "inputs": [
        {
          "indexed": true,
          "internalType": "address",
          "name": "collectionAddress",
          "type": "address"
        },
        {
          "indexed": false,
          "internalType": "string",
          "name": "uri",
          "type": "string"
        }
      ],
      "name": "RegisterCollection",
      "type": "event"
    },
    {
      "anonymous": false,
      "inputs": [
        {
          "indexed": true,
          "internalType": "address",
          "name": "nftAddress",
          "type": "address"
        },
        {
          "indexed": true,
          "internalType": "uint256",
          "name": "tokenId",
          "type": "uint256"
        },
        {
          "indexed": false,
          "internalType": "uint256",
          "name": "rentFee",
          "type": "uint256"
        },
        {
          "indexed": false,
          "internalType": "uint256",
          "name": "rentDuration",
          "type": "uint256"
        },
        {
          "indexed": true,
          "internalType": "address",
          "name": "NFTOwnerAddress",
          "type": "address"
        }
      ],
      "name": "RegisterNFT",
      "type": "event"
    },
    {
      "anonymous": false,
      "inputs": [
        {
          "indexed": true,
          "internalType": "address",
          "name": "serviceAddress",
          "type": "address"
        },
        {
          "indexed": false,
          "internalType": "string",
          "name": "uri",
          "type": "string"
        }
      ],
      "name": "RegisterService",
      "type": "event"
    },
    {
      "anonymous": false,
      "inputs": [
        {
          "indexed": true,
          "internalType": "address",
          "name": "tokenAddress",
          "type": "address"
        },
        {
          "indexed": false,
          "internalType": "string",
          "name": "name",
          "type": "string"
        }
      ],
      "name": "RegisterToken",
      "type": "event"
    },
    {
      "anonymous": false,
      "inputs": [
        {
          "indexed": true,
          "internalType": "address",
          "name": "nftAddress",
          "type": "address"
        },
        {
          "indexed": true,
          "internalType": "uint256",
          "name": "tokenId",
          "type": "uint256"
        },
        {
          "indexed": false,
          "internalType": "uint256",
          "name": "rentFee",
          "type": "uint256"
        },
        {
          "indexed": false,
          "internalType": "address",
          "name": "feeTokenAddress",
          "type": "address"
        },
        {
          "indexed": false,
          "internalType": "uint256",
          "name": "rentFeeByToken",
          "type": "uint256"
        },
        {
          "indexed": false,
          "internalType": "bool",
          "name": "isRentByToken",
          "type": "bool"
        },
        {
          "indexed": false,
          "internalType": "uint256",
          "name": "rentDuration",
          "type": "uint256"
        },
        {
          "indexed": false,
          "internalType": "address",
          "name": "renterAddress",
          "type": "address"
        },
        {
          "indexed": true,
          "internalType": "address",
          "name": "renteeAddress",
          "type": "address"
        },
        {
          "indexed": false,
          "internalType": "address",
          "name": "serviceAddress",
          "type": "address"
        },
        {
          "indexed": false,
          "internalType": "uint256",
          "name": "rentStartTimestamp",
          "type": "uint256"
        }
      ],
      "name": "RentNFT",
      "type": "event"
    },
    {
      "anonymous": false,
      "inputs": [
        {
          "indexed": true,
          "internalType": "address",
          "name": "nftAddress",
          "type": "address"
        },
        {
          "indexed": true,
          "internalType": "uint256",
          "name": "tokenId",
          "type": "uint256"
        },
        {
          "indexed": false,
          "internalType": "uint256",
          "name": "rentFee",
          "type": "uint256"
        },
        {
          "indexed": false,
          "internalType": "address",
          "name": "feeTokenAddress",
          "type": "address"
        },
        {
          "indexed": false,
          "internalType": "uint256",
          "name": "rentFeeByToken",
          "type": "uint256"
        },
        {
          "indexed": false,
          "internalType": "bool",
          "name": "isRentByToken",
          "type": "bool"
        },
        {
          "indexed": false,
          "internalType": "uint256",
          "name": "rentDuration",
          "type": "uint256"
        },
        {
          "indexed": false,
          "internalType": "address",
          "name": "renterAddress",
          "type": "address"
        },
        {
          "indexed": true,
          "internalType": "address",
          "name": "renteeAddress",
          "type": "address"
        },
        {
          "indexed": false,
          "internalType": "address",
          "name": "serviceAddress",
          "type": "address"
        },
        {
          "indexed": false,
          "internalType": "uint256",
          "name": "rentStartTimestamp",
          "type": "uint256"
        }
      ],
      "name": "SettleRentData",
      "type": "event"
    },
    {
      "anonymous": false,
      "inputs": [
        {
          "indexed": false,
          "internalType": "address",
          "name": "account",
          "type": "address"
        }
      ],
      "name": "Unpaused",
      "type": "event"
    },
    {
      "anonymous": false,
      "inputs": [
        {
          "indexed": true,
          "internalType": "address",
          "name": "collectionAddress",
          "type": "address"
        },
        {
          "indexed": false,
          "internalType": "string",
          "name": "uri",
          "type": "string"
        }
      ],
      "name": "UnregisterCollection",
      "type": "event"
    },
    {
      "anonymous": false,
      "inputs": [
        {
          "indexed": true,
          "internalType": "address",
          "name": "nftAddress",
          "type": "address"
        },
        {
          "indexed": true,
          "internalType": "uint256",
          "name": "tokenId",
          "type": "uint256"
        },
        {
          "indexed": false,
          "internalType": "uint256",
          "name": "rentFee",
          "type": "uint256"
        },
        {
          "indexed": false,
          "internalType": "address",
          "name": "feeTokenAddress",
          "type": "address"
        },
        {
          "indexed": false,
          "internalType": "uint256",
          "name": "rentFeeByToken",
          "type": "uint256"
        },
        {
          "indexed": false,
          "internalType": "uint256",
          "name": "rentDuration",
          "type": "uint256"
        },
        {
          "indexed": false,
          "internalType": "address",
          "name": "NFTOwnerAddress",
          "type": "address"
        },
        {
          "indexed": true,
          "internalType": "address",
          "name": "UnregisterAddress",
          "type": "address"
        }
      ],
      "name": "UnregisterNFT",
      "type": "event"
    },
    {
      "anonymous": false,
      "inputs": [
        {
          "indexed": true,
          "internalType": "address",
          "name": "serviceAddress",
          "type": "address"
        },
        {
          "indexed": false,
          "internalType": "string",
          "name": "uri",
          "type": "string"
        }
      ],
      "name": "UnregisterService",
      "type": "event"
    },
    {
      "anonymous": false,
      "inputs": [
        {
          "indexed": true,
          "internalType": "address",
          "name": "tokenAddress",
          "type": "address"
        },
        {
          "indexed": false,
          "internalType": "string",
          "name": "name",
          "type": "string"
        }
      ],
      "name": "UnregisterToken",
      "type": "event"
    },
    {
      "anonymous": false,
      "inputs": [
        {
          "indexed": true,
          "internalType": "address",
          "name": "nftAddress",
          "type": "address"
        },
        {
          "indexed": true,
          "internalType": "uint256",
          "name": "tokenId",
          "type": "uint256"
        },
        {
          "indexed": false,
          "internalType": "uint256",
          "name": "rentFee",
          "type": "uint256"
        },
        {
          "indexed": false,
          "internalType": "address",
          "name": "feeTokenAddress",
          "type": "address"
        },
        {
          "indexed": false,
          "internalType": "uint256",
          "name": "rentFeeByToken",
          "type": "uint256"
        },
        {
          "indexed": false,
          "internalType": "bool",
          "name": "isRentByToken",
          "type": "bool"
        },
        {
          "indexed": false,
          "internalType": "uint256",
          "name": "rentDuration",
          "type": "uint256"
        },
        {
          "indexed": false,
          "internalType": "address",
          "name": "renterAddress",
          "type": "address"
        },
        {
          "indexed": true,
          "internalType": "address",
          "name": "renteeAddress",
          "type": "address"
        },
        {
          "indexed": false,
          "internalType": "address",
          "name": "serviceAddress",
          "type": "address"
        },
        {
          "indexed": false,
          "internalType": "uint256",
          "name": "rentStartTimestamp",
          "type": "uint256"
        }
      ],
      "name": "UnrentNFT",
      "type": "event"
    },
    {
      "anonymous": false,
      "inputs": [
        {
          "indexed": true,
          "internalType": "address",
          "name": "recipient",
          "type": "address"
        },
        {
          "indexed": true,
          "internalType": "address",
          "name": "tokenAddress",
          "type": "address"
        },
        {
          "indexed": true,
          "internalType": "uint256",
          "name": "amount",
          "type": "uint256"
        }
      ],
      "name": "WithdrawMyBalance",
      "type": "event"
    },
    {
      "stateMutability": "payable",
      "type": "fallback"
    },
    {
      "inputs": [],
      "name": "VERSION",
      "outputs": [
        {
          "internalType": "string",
          "name": "",
          "type": "string"
        }
      ],
      "stateMutability": "view",
      "type": "function"
    },
    {
      "inputs": [
        {
          "internalType": "address",
          "name": "nftAddress",
          "type": "address"
        },
        {
          "internalType": "uint256",
          "name": "tokenId",
          "type": "uint256"
        },
        {
          "internalType": "uint256",
          "name": "rentFee",
          "type": "uint256"
        },
        {
          "internalType": "address",
          "name": "feeTokenAddress",
          "type": "address"
        },
        {
          "internalType": "uint256",
          "name": "rentFeeByToken",
          "type": "uint256"
        },
        {
          "internalType": "uint256",
          "name": "rentDuration",
          "type": "uint256"
        }
      ],
      "name": "changeNFT",
      "outputs": [
        {
          "internalType": "bool",
          "name": "success",
          "type": "bool"
        }
      ],
      "stateMutability": "nonpayable",
      "type": "function"
    },
    {
      "inputs": [
        {
          "internalType": "address",
          "name": "tokenAddress_",
          "type": "address"
        },
        {
          "internalType": "address",
          "name": "rewardTokenShareContractAddress_",
          "type": "address"
        }
      ],
      "name": "distributeVestingToken",
      "outputs": [],
      "stateMutability": "nonpayable",
      "type": "function"
    },
    {
      "inputs": [],
      "name": "getAllAccountBalance",
      "outputs": [
        {
          "components": [
            {
              "internalType": "address",
              "name": "accountAddress",
              "type": "address"
            },
            {
              "internalType": "address",
              "name": "tokenAddress",
              "type": "address"
            },
            {
              "internalType": "uint256",
              "name": "amount",
              "type": "uint256"
            }
          ],
          "internalType": "struct accountBalanceIterableMap.accountBalance[]",
          "name": "",
          "type": "tuple[]"
        }
      ],
      "stateMutability": "view",
      "type": "function"
    },
    {
      "inputs": [],
      "name": "getAllCollection",
      "outputs": [
        {
          "components": [
            {
              "internalType": "address",
              "name": "collectionAddress",
              "type": "address"
            },
            {
              "internalType": "string",
              "name": "uri",
              "type": "string"
            }
          ],
          "internalType": "struct collectionDataIterableMap.collectionData[]",
          "name": "",
          "type": "tuple[]"
        }
      ],
      "stateMutability": "view",
      "type": "function"
    },
    {
      "inputs": [],
      "name": "getAllPendingRentFee",
      "outputs": [
        {
          "components": [
            {
              "internalType": "address",
              "name": "renterAddress",
              "type": "address"
            },
            {
              "internalType": "address",
              "name": "serviceAddress",
              "type": "address"
            },
            {
              "internalType": "address",
              "name": "feeTokenAddress",
              "type": "address"
            },
            {
              "internalType": "uint256",
              "name": "amount",
              "type": "uint256"
            }
          ],
          "internalType": "struct pendingRentFeeIterableMap.pendingRentFee[]",
          "name": "",
          "type": "tuple[]"
        }
      ],
      "stateMutability": "view",
      "type": "function"
    },
    {
      "inputs": [],
      "name": "getAllRegisterData",
      "outputs": [
        {
          "components": [
            {
              "internalType": "address",
              "name": "nftAddress",
              "type": "address"
            },
            {
              "internalType": "uint256",
              "name": "tokenId",
              "type": "uint256"
            },
            {
              "internalType": "uint256",
              "name": "rentFee",
              "type": "uint256"
            },
            {
              "internalType": "address",
              "name": "feeTokenAddress",
              "type": "address"
            },
            {
              "internalType": "uint256",
              "name": "rentFeeByToken",
              "type": "uint256"
            },
            {
              "internalType": "uint256",
              "name": "rentDuration",
              "type": "uint256"
            }
          ],
          "internalType": "struct registerDataIterableMap.registerData[]",
          "name": "",
          "type": "tuple[]"
        }
      ],
      "stateMutability": "view",
      "type": "function"
    },
    {
      "inputs": [],
      "name": "getAllRentData",
      "outputs": [
        {
          "components": [
            {
              "internalType": "address",
              "name": "nftAddress",
              "type": "address"
            },
            {
              "internalType": "uint256",
              "name": "tokenId",
              "type": "uint256"
            },
            {
              "internalType": "uint256",
              "name": "rentFee",
              "type": "uint256"
            },
            {
              "internalType": "address",
              "name": "feeTokenAddress",
              "type": "address"
            },
            {
              "internalType": "uint256",
              "name": "rentFeeByToken",
              "type": "uint256"
            },
            {
              "internalType": "bool",
              "name": "isRentByToken",
              "type": "bool"
            },
            {
              "internalType": "uint256",
              "name": "rentDuration",
              "type": "uint256"
            },
            {
              "internalType": "address",
              "name": "renterAddress",
              "type": "address"
            },
            {
              "internalType": "address",
              "name": "renteeAddress",
              "type": "address"
            },
            {
              "internalType": "address",
              "name": "serviceAddress",
              "type": "address"
            },
            {
              "internalType": "uint256",
              "name": "rentStartTimestamp",
              "type": "uint256"
            }
          ],
          "internalType": "struct rentDataIterableMap.rentData[]",
          "name": "",
          "type": "tuple[]"
        }
      ],
      "stateMutability": "view",
      "type": "function"
    },
    {
      "inputs": [],
      "name": "getAllService",
      "outputs": [
        {
          "components": [
            {
              "internalType": "address",
              "name": "serviceAddress",
              "type": "address"
            },
            {
              "internalType": "string",
              "name": "uri",
              "type": "string"
            }
          ],
          "internalType": "struct serviceDataIterableMap.serviceData[]",
          "name": "",
          "type": "tuple[]"
        }
      ],
      "stateMutability": "view",
      "type": "function"
    },
    {
      "inputs": [],
      "name": "getAllToken",
      "outputs": [
        {
          "components": [
            {
              "internalType": "address",
              "name": "tokenAddress",
              "type": "address"
            },
            {
              "internalType": "string",
              "name": "name",
              "type": "string"
            }
          ],
          "internalType": "struct tokenDataIterableMap.tokenData[]",
          "name": "",
          "type": "tuple[]"
        }
      ],
      "stateMutability": "view",
      "type": "function"
    },
    {
      "inputs": [
        {
          "internalType": "address",
          "name": "collectionAddress",
          "type": "address"
        }
      ],
      "name": "getCollection",
      "outputs": [
        {
          "components": [
            {
              "internalType": "address",
              "name": "collectionAddress",
              "type": "address"
            },
            {
              "internalType": "string",
              "name": "uri",
              "type": "string"
            }
          ],
          "internalType": "struct collectionDataIterableMap.collectionData",
          "name": "",
          "type": "tuple"
        }
      ],
      "stateMutability": "view",
      "type": "function"
    },
    {
      "inputs": [],
      "name": "getFeeQuota",
      "outputs": [
        {
          "internalType": "uint256",
          "name": "renterFeeQuota",
          "type": "uint256"
        },
        {
          "internalType": "uint256",
          "name": "serviceFeeQuota",
          "type": "uint256"
        },
        {
          "internalType": "uint256",
          "name": "marketFeeQuota",
          "type": "uint256"
        }
      ],
      "stateMutability": "view",
      "type": "function"
    },
    {
      "inputs": [],
      "name": "getMarketShareAddress",
      "outputs": [
        {
          "internalType": "address",
          "name": "shareAddress",
          "type": "address"
        }
      ],
      "stateMutability": "view",
      "type": "function"
    },
    {
      "inputs": [
        {
          "internalType": "address",
          "name": "tokenAddress",
          "type": "address"
        }
      ],
      "name": "getMyBalance",
      "outputs": [
        {
          "internalType": "uint256",
          "name": "balance",
          "type": "uint256"
        }
      ],
      "stateMutability": "view",
      "type": "function"
    },
    {
      "inputs": [
        {
          "internalType": "address",
          "name": "nftAddress",
          "type": "address"
        },
        {
          "internalType": "uint256",
          "name": "tokenId",
          "type": "uint256"
        }
      ],
      "name": "getNFTOwner",
      "outputs": [
        {
          "internalType": "address",
          "name": "ownerAddress_",
          "type": "address"
        }
      ],
      "stateMutability": "view",
      "type": "function"
    },
    {
      "inputs": [
        {
          "internalType": "address",
          "name": "nftAddress",
          "type": "address"
        },
        {
          "internalType": "uint256",
          "name": "tokenId",
          "type": "uint256"
        }
      ],
      "name": "getRegisterData",
      "outputs": [
        {
          "components": [
            {
              "internalType": "address",
              "name": "nftAddress",
              "type": "address"
            },
            {
              "internalType": "uint256",
              "name": "tokenId",
              "type": "uint256"
            },
            {
              "internalType": "uint256",
              "name": "rentFee",
              "type": "uint256"
            },
            {
              "internalType": "address",
              "name": "feeTokenAddress",
              "type": "address"
            },
            {
              "internalType": "uint256",
              "name": "rentFeeByToken",
              "type": "uint256"
            },
            {
              "internalType": "uint256",
              "name": "rentDuration",
              "type": "uint256"
            }
          ],
          "internalType": "struct registerDataIterableMap.registerData",
          "name": "",
          "type": "tuple"
        }
      ],
      "stateMutability": "view",
      "type": "function"
    },
    {
      "inputs": [
        {
          "internalType": "address",
          "name": "nftAddress",
          "type": "address"
        },
        {
          "internalType": "uint256",
          "name": "tokenId",
          "type": "uint256"
        },
        {
          "internalType": "address",
          "name": "renteeAddress",
          "type": "address"
        }
      ],
      "name": "getRentData",
      "outputs": [
        {
          "components": [
            {
              "internalType": "address",
              "name": "nftAddress",
              "type": "address"
            },
            {
              "internalType": "uint256",
              "name": "tokenId",
              "type": "uint256"
            },
            {
              "internalType": "uint256",
              "name": "rentFee",
              "type": "uint256"
            },
            {
              "internalType": "address",
              "name": "feeTokenAddress",
              "type": "address"
            },
            {
              "internalType": "uint256",
              "name": "rentFeeByToken",
              "type": "uint256"
            },
            {
              "internalType": "bool",
              "name": "isRentByToken",
              "type": "bool"
            },
            {
              "internalType": "uint256",
              "name": "rentDuration",
              "type": "uint256"
            },
            {
              "internalType": "address",
              "name": "renterAddress",
              "type": "address"
            },
            {
              "internalType": "address",
              "name": "renteeAddress",
              "type": "address"
            },
            {
              "internalType": "address",
              "name": "serviceAddress",
              "type": "address"
            },
            {
              "internalType": "uint256",
              "name": "rentStartTimestamp",
              "type": "uint256"
            }
          ],
          "internalType": "struct rentDataIterableMap.rentData",
          "name": "",
          "type": "tuple"
        }
      ],
      "stateMutability": "view",
      "type": "function"
    },
    {
      "inputs": [
        {
          "internalType": "address",
          "name": "serviceAddress",
          "type": "address"
        }
      ],
      "name": "getService",
      "outputs": [
        {
          "components": [
            {
              "internalType": "address",
              "name": "serviceAddress",
              "type": "address"
            },
            {
              "internalType": "string",
              "name": "uri",
              "type": "string"
            }
          ],
          "internalType": "struct serviceDataIterableMap.serviceData",
          "name": "",
          "type": "tuple"
        }
      ],
      "stateMutability": "view",
      "type": "function"
    },
    {
      "inputs": [],
      "name": "getThreshold",
      "outputs": [
        {
          "internalType": "uint256",
          "name": "",
          "type": "uint256"
        }
      ],
      "stateMutability": "view",
      "type": "function"
    },
    {
      "inputs": [
        {
          "internalType": "address",
          "name": "tokenAddress_",
          "type": "address"
        }
      ],
      "name": "getTotalAccountBalance",
      "outputs": [
        {
          "internalType": "uint256",
          "name": "totalAccountBalance_",
          "type": "uint256"
        }
      ],
      "stateMutability": "view",
      "type": "function"
    },
    {
      "inputs": [],
      "name": "owner",
      "outputs": [
        {
          "internalType": "address",
          "name": "",
          "type": "address"
        }
      ],
      "stateMutability": "view",
      "type": "function"
    },
    {
      "inputs": [],
      "name": "pause",
      "outputs": [],
      "stateMutability": "nonpayable",
      "type": "function"
    },
    {
      "inputs": [],
      "name": "paused",
      "outputs": [
        {
          "internalType": "bool",
          "name": "",
          "type": "bool"
        }
      ],
      "stateMutability": "view",
      "type": "function"
    },
    {
      "inputs": [
        {
          "internalType": "address",
          "name": "collectionAddress",
          "type": "address"
        },
        {
          "internalType": "string",
          "name": "uri",
          "type": "string"
        }
      ],
      "name": "registerCollection",
      "outputs": [
        {
          "internalType": "bool",
          "name": "success",
          "type": "bool"
        }
      ],
      "stateMutability": "nonpayable",
      "type": "function"
    },
    {
      "inputs": [
        {
          "internalType": "address",
          "name": "nftAddress",
          "type": "address"
        },
        {
          "internalType": "uint256",
          "name": "tokenId",
          "type": "uint256"
        }
      ],
      "name": "registerNFT",
      "outputs": [
        {
          "internalType": "bool",
          "name": "success",
          "type": "bool"
        }
      ],
      "stateMutability": "nonpayable",
      "type": "function"
    },
    {
      "inputs": [
        {
          "internalType": "address",
          "name": "serviceAddress",
          "type": "address"
        },
        {
          "internalType": "string",
          "name": "uri",
          "type": "string"
        }
      ],
      "name": "registerService",
      "outputs": [
        {
          "internalType": "bool",
          "name": "success",
          "type": "bool"
        }
      ],
      "stateMutability": "nonpayable",
      "type": "function"
    },
    {
      "inputs": [
        {
          "internalType": "address",
          "name": "tokenAddress",
          "type": "address"
        },
        {
          "internalType": "string",
          "name": "name",
          "type": "string"
        }
      ],
      "name": "registerToken",
      "outputs": [
        {
          "internalType": "bool",
          "name": "success",
          "type": "bool"
        }
      ],
      "stateMutability": "nonpayable",
      "type": "function"
    },
    {
      "inputs": [],
      "name": "renounceOwnership",
      "outputs": [],
      "stateMutability": "nonpayable",
      "type": "function"
    },
    {
      "inputs": [
        {
          "internalType": "address",
          "name": "nftAddress",
          "type": "address"
        },
        {
          "internalType": "uint256",
          "name": "tokenId",
          "type": "uint256"
        },
        {
          "internalType": "address",
          "name": "serviceAddress",
          "type": "address"
        }
      ],
      "name": "rentNFT",
      "outputs": [
        {
          "internalType": "bool",
          "name": "success",
          "type": "bool"
        }
      ],
      "stateMutability": "payable",
      "type": "function"
    },
    {
      "inputs": [
        {
          "internalType": "address",
          "name": "nftAddress",
          "type": "address"
        },
        {
          "internalType": "uint256",
          "name": "tokenId",
          "type": "uint256"
        },
        {
          "internalType": "address",
          "name": "serviceAddress",
          "type": "address"
        },
        {
          "internalType": "uint256",
          "name": "deadline",
          "type": "uint256"
        },
        {
          "internalType": "uint8",
          "name": "v",
          "type": "uint8"
        },
        {
          "internalType": "bytes32",
          "name": "r",
          "type": "bytes32"
        },
        {
          "internalType": "bytes32",
          "name": "s",
          "type": "bytes32"
        }
      ],
      "name": "rentNFTByToken",
      "outputs": [],
      "stateMutability": "payable",
      "type": "function"
    },
    {
      "inputs": [
        {
          "internalType": "uint256",
          "name": "renterFeeQuota",
          "type": "uint256"
        },
        {
          "internalType": "uint256",
          "name": "serviceFeeQuota",
          "type": "uint256"
        },
        {
          "internalType": "uint256",
          "name": "marketFeeQuota",
          "type": "uint256"
        }
      ],
      "name": "setFeeQuota",
      "outputs": [],
      "stateMutability": "nonpayable",
      "type": "function"
    },
    {
      "inputs": [
        {
          "internalType": "address",
          "name": "shareAddress",
          "type": "address"
        }
      ],
      "name": "setMarketShareAddress",
      "outputs": [],
      "stateMutability": "nonpayable",
      "type": "function"
    },
    {
      "inputs": [
        {
          "internalType": "uint256",
          "name": "threshold_",
          "type": "uint256"
        }
      ],
      "name": "setThreshold",
      "outputs": [],
      "stateMutability": "nonpayable",
      "type": "function"
    },
    {
      "inputs": [
        {
          "internalType": "address",
          "name": "nftAddress",
          "type": "address"
        },
        {
          "internalType": "uint256",
          "name": "tokenId",
          "type": "uint256"
        },
        {
          "internalType": "address",
          "name": "renteeAddress",
          "type": "address"
        }
      ],
      "name": "settleRentData",
      "outputs": [
        {
          "internalType": "bool",
          "name": "success",
          "type": "bool"
        }
      ],
      "stateMutability": "nonpayable",
      "type": "function"
    },
    {
      "inputs": [
        {
          "internalType": "address",
          "name": "newOwner",
          "type": "address"
        }
      ],
      "name": "transferOwnership",
      "outputs": [],
      "stateMutability": "nonpayable",
      "type": "function"
    },
    {
      "inputs": [],
      "name": "unpause",
      "outputs": [],
      "stateMutability": "nonpayable",
      "type": "function"
    },
    {
      "inputs": [
        {
          "internalType": "address",
          "name": "collectionAddress",
          "type": "address"
        }
      ],
      "name": "unregisterCollection",
      "outputs": [
        {
          "internalType": "bool",
          "name": "success",
          "type": "bool"
        }
      ],
      "stateMutability": "nonpayable",
      "type": "function"
    },
    {
      "inputs": [
        {
          "internalType": "address",
          "name": "nftAddress",
          "type": "address"
        },
        {
          "internalType": "uint256",
          "name": "tokenId",
          "type": "uint256"
        }
      ],
      "name": "unregisterNFT",
      "outputs": [
        {
          "internalType": "bool",
          "name": "success",
          "type": "bool"
        }
      ],
      "stateMutability": "nonpayable",
      "type": "function"
    },
    {
      "inputs": [
        {
          "internalType": "address",
          "name": "serviceAddress",
          "type": "address"
        }
      ],
      "name": "unregisterService",
      "outputs": [
        {
          "internalType": "bool",
          "name": "success",
          "type": "bool"
        }
      ],
      "stateMutability": "nonpayable",
      "type": "function"
    },
    {
      "inputs": [
        {
          "internalType": "address",
          "name": "tokenAddress",
          "type": "address"
        }
      ],
      "name": "unregisterToken",
      "outputs": [
        {
          "internalType": "bool",
          "name": "success",
          "type": "bool"
        }
      ],
      "stateMutability": "nonpayable",
      "type": "function"
    },
    {
      "inputs": [
        {
          "internalType": "address",
          "name": "nftAddress",
          "type": "address"
        },
        {
          "internalType": "uint256",
          "name": "tokenId",
          "type": "uint256"
        },
        {
          "internalType": "address",
          "name": "renteeAddress",
          "type": "address"
        }
      ],
      "name": "unrentNFT",
      "outputs": [
        {
          "internalType": "bool",
          "name": "success",
          "type": "bool"
        }
      ],
      "stateMutability": "nonpayable",
      "type": "function"
    },
    {
      "inputs": [
        {
          "internalType": "address",
          "name": "recipient",
          "type": "address"
        },
        {
          "internalType": "address",
          "name": "tokenAddress",
          "type": "address"
        }
      ],
      "name": "withdrawMyBalance",
      "outputs": [
        {
          "internalType": "bool",
          "name": "success",
          "type": "bool"
        }
      ],
      "stateMutability": "payable",
      "type": "function"
    },
    {
      "stateMutability": "payable",
      "type": "receive"
    }
  ],
  "bytecode": "0x60c06040526005608081905264302e302e3560d81b60a0908152620000289160019190620000de565b50670de0b6b3a7640000600355620151806004556050600555600a600655600a60075560646008553480156200005d57600080fd5b5062000069336200008e565b6000805460ff60a01b19169055600280546001600160a01b03191633179055620001c1565b600080546001600160a01b038381166001600160a01b0319831681178455604051919092169283917f8be0079c531659141344cd1fd0a4f28419497f9722a3daafe3b4186f6b6457e09190a35050565b828054620000ec9062000184565b90600052602060002090601f0160209004810192826200011057600085556200015b565b82601f106200012b57805160ff19168380011785556200015b565b828001600101855582156200015b579182015b828111156200015b5782518255916020019190600101906200013e565b50620001699291506200016d565b5090565b5b808211156200016957600081556001016200016e565b600181811c908216806200019957607f821691505b60208210811415620001bb57634e487b7160e01b600052602260045260246000fd5b50919050565b615e1c80620001d16000396000f3fe6080604052600436106101e55760003560e01c806301cf2bae1461024657806306eb924f1461027957806315a52302146102a957806317a6b609146102d65780631c2c2c24146102f65780632736a862146103185780632803aa131461033a5780632d7402261461034d5780632e6379ed1461036d5780633f4ba83a1461038057806345d44eda146103955780634b6c05fa146103b55780635c975abb146103dc57806361cb6fac146103f1578063637dfb0c146104115780636558fce614610431578063684e46651461045157806370473d8614610471578063715018a61461049357806377860cdd146104a85780637e3ef7cd146104c857806381ac825c146104e857806383b2f911146104fb5780638456cb591461052857806385218afc1461053d57806385e3c1d41461056a5780638bb72e831461058c5780638da5cb5b146105ae57806395dbd440146105c3578063960bfe04146105e5578063adee9abd14610605578063d4fbeb1914610625578063e2fcbf7314610645578063e40de88714610667578063e5d1420f14610687578063e75235b8146106a7578063e7823fac146106bc578063ec51c0d1146106dc578063ee5afa521461070d578063eec310421461072d578063f2fde38b1461074f578063ffa1ad741461076f57610219565b3661021957604051349033907fd6717f327e0cb88b4a97a7f67a453e9258252c34937ccbdd86de7cb840e7def390600090a3005b60405133907fdd0c5778ddb0b0501649417aeffed44057db3d5d530231758c8dc5ef6eeb789490600090a2005b34801561025257600080fd5b50610266610261366004614b6a565b610791565b6040519081526020015b60405180910390f35b34801561028557600080fd5b50610299610294366004614c61565b610852565b6040519015158152602001610270565b3480156102b557600080fd5b506102c96102c4366004614b6a565b610a0d565b6040516102709190614d83565b3480156102e257600080fd5b506102996102f1366004614d96565b610aae565b34801561030257600080fd5b5061030b610e93565b6040516102709190614e65565b34801561032457600080fd5b50610338610333366004614eb4565b610f22565b005b610338610348366004614ee0565b610f85565b34801561035957600080fd5b50610299610368366004614c61565b6117cf565b61029961037b366004614f57565b61195d565b34801561038c57600080fd5b50610338611d4f565b3480156103a157600080fd5b506102996103b0366004614b6a565b611d61565b3480156103c157600080fd5b506002546001600160a01b03165b6040516102709190614f90565b3480156103e857600080fd5b50610299611fa6565b3480156103fd57600080fd5b5061029961040c366004614fa4565b611fb6565b34801561041d57600080fd5b506103cf61042c366004614d96565b612567565b34801561043d57600080fd5b5061029961044c366004614fe6565b6125f3565b34801561045d57600080fd5b5061029961046c366004614fa4565b6128d1565b34801561047d57600080fd5b50610486612f7b565b6040516102709190615087565b34801561049f57600080fd5b50610338613005565b3480156104b457600080fd5b506102996104c3366004614b6a565b613017565b3480156104d457600080fd5b506102666104e3366004614b6a565b61323b565b6102996104f6366004614fa4565b6132ca565b34801561050757600080fd5b5061051b610516366004614d96565b61399e565b60405161027091906150c9565b34801561053457600080fd5b50610338613a75565b34801561054957600080fd5b5061055d610558366004614fa4565b613a85565b60405161027091906150d7565b34801561057657600080fd5b5061057f613b24565b60405161027091906150e6565b34801561059857600080fd5b506105a1613baf565b6040516102709190615148565b3480156105ba57600080fd5b506103cf613c39565b3480156105cf57600080fd5b506105d8613c48565b60405161027091906151ba565b3480156105f157600080fd5b5061033861060036600461520f565b613c83565b34801561061157600080fd5b50610299610620366004614b6a565b613c90565b34801561063157600080fd5b50610299610640366004614c61565b613eb4565b34801561065157600080fd5b5061065a614042565b6040516102709190615228565b34801561067357600080fd5b506102c9610682366004614b6a565b6140cc565b34801561069357600080fd5b506102996106a2366004614d96565b614119565b3480156106b357600080fd5b50600854610266565b3480156106c857600080fd5b506103386106d7366004614f57565b6143ef565b3480156106e857600080fd5b5060055460065460075460408051938452602084019290925290820152606001610270565b34801561071957600080fd5b50610338610728366004614b6a565b6146c7565b34801561073957600080fd5b506107426146f1565b6040516102709190615280565b34801561075b57600080fd5b5061033861076a366004614b6a565b61472c565b34801561077b57600080fd5b506107846147a5565b60405161027091906152d5565b60008061079c614aab565b60005b601654811015610849576016805460159190839081106107c1576107c16152e8565b906000526020600020016040516107d89190615339565b908152604080516020928190038301812060608201835260018101546001600160a01b039081168352600282015481169483018590526003909101549282019290925293508616141561083757604082015161083490846153eb565b92505b8061084181615403565b91505061079f565b50909392505050565b600061085c614833565b610864614892565b6040516360f353e160e01b815273__$79a40a2052c9947e027843e42106f8b048$__906360f353e19061089e90600b90879060040161541e565b60206040518083038186803b1580156108b657600080fd5b505af41580156108ca573d6000803e3d6000fd5b505050506040513d601f19601f820116820180604052508101906108ee9190615445565b156109145760405162461bcd60e51b815260040161090b90615460565b60405180910390fd5b60405163287af74760e01b815260009073__$79a40a2052c9947e027843e42106f8b048$__9063287af7479061095390600b908890889060040161547d565b60206040518083038186803b15801561096b57600080fd5b505af415801561097f573d6000803e3d6000fd5b505050506040513d601f19601f820116820180604052508101906109a39190615445565b9050600181151514156109fb57836001600160a01b03167fdcc2016b74f9e1be59c35f005623093f22ee185961aa79657be041dba04ed0a4846040516109e991906152d5565b60405180910390a26001915050610a07565b6000915050610a07565b505b92915050565b60408051808201825260008152606060208201529051631eb966b960e01b815273__$a27ab5a2953dc10a9c552591268754b616$__90631eb966b990610a5a90600d90869060040161541e565b60006040518083038186803b158015610a7257600080fd5b505af4158015610a86573d6000803e3d6000fd5b505050506040513d6000823e601f3d908101601f19168201604052610a079190810190615570565b6000610ab8614892565b6040516304ecf28360e41b815273__$aabfbf51bc7bf3b8af0580fb7224204a01$__90634ecf283090610af490600f90879087906004016155a4565b60206040518083038186803b158015610b0c57600080fd5b505af4158015610b20573d6000803e3d6000fd5b505050506040513d601f19601f82011682018060405250810190610b449190615445565b15610b775760405162461bcd60e51b815260206004820152600360248201526229269960e91b604482015260640161090b565b6000610b8384336148da565b90506000610b918585612567565b90506001600160a01b038116610bd25760405162461bcd60e51b815260040161090b90602080825260049082015263524d323160e01b604082015260600190565b60018215151480610beb57506001600160a01b03811633145b80610c8157506040516360f353e160e01b815273__$79a40a2052c9947e027843e42106f8b048$__906360f353e190610c2b90600b90339060040161541e565b60206040518083038186803b158015610c4357600080fd5b505af4158015610c57573d6000803e3d6000fd5b505050506040513d601f19601f82011682018060405250810190610c7b9190615445565b15156001145b610cb35760405162461bcd60e51b815260206004820152600360248201526214934d60ea1b604482015260640161090b565b6040516360f353e160e01b815273__$79a40a2052c9947e027843e42106f8b048$__906360f353e190610ced90600b90899060040161541e565b60206040518083038186803b158015610d0557600080fd5b505af4158015610d19573d6000803e3d6000fd5b505050506040513d601f19601f82011682018060405250810190610d3d9190615445565b1515600114610d775760405162461bcd60e51b815260040161090b906020808252600490820152632926991960e11b604082015260600190565b6003546004805460405163cddd4b6760e01b815260009373__$aabfbf51bc7bf3b8af0580fb7224204a01$__9363cddd4b6793610dc393600f938d938d9391928a9283929091016155c3565b60206040518083038186803b158015610ddb57600080fd5b505af4158015610def573d6000803e3d6000fd5b505050506040513d601f19601f82011682018060405250810190610e139190615445565b905060018115151415610e8757816001600160a01b031685876001600160a01b03167f582e65d918b73308f2eb058e75e68168f22c49c2994530f72d46177c78435cbb600354600454604051610e73929190918252602082015260400190565b60405180910390a460019350505050610a07565b60009350505050610a07565b604051632570fb2d60e21b81526011600482015260609073__$c9b49513854812b7b6c4b448b2aa4684e3$__906395c3ecb49060240160006040518083038186803b158015610ee157600080fd5b505af4158015610ef5573d6000803e3d6000fd5b505050506040513d6000823e601f3d908101601f19168201604052610f1d91908101906156de565b905090565b610f2a614833565b80610f3583856153eb565b610f3f91906153eb565b606414610f775760405162461bcd60e51b815260040161090b906020808252600490820152632926989960e11b604082015260600190565b600592909255600655600755565b610f8d614892565b6040516304ecf28360e41b815273__$aabfbf51bc7bf3b8af0580fb7224204a01$__90634ecf283090610fc990600f908b908b906004016155a4565b60206040518083038186803b158015610fe157600080fd5b505af4158015610ff5573d6000803e3d6000fd5b505050506040513d601f19601f820116820180604052508101906110199190615445565b151560011461103a5760405162461bcd60e51b815260040161090b90615778565b604051638c9a6cc360e01b815273__$a27ab5a2953dc10a9c552591268754b616$__90638c9a6cc39061107490600d90899060040161541e565b60206040518083038186803b15801561108c57600080fd5b505af41580156110a0573d6000803e3d6000fd5b505050506040513d601f19601f820116820180604052508101906110c49190615445565b15156001146110e55760405162461bcd60e51b815260040161090b90615795565b341561111c5760405162461bcd60e51b815260040161090b90602080825260049082015263524d313360e01b604082015260600190565b611124614acb565b6001600160a01b038616604082015261113d8888612567565b6001600160a01b03166060820152604051630163053760e51b815260009073__$aabfbf51bc7bf3b8af0580fb7224204a01$__90632c60a6e09061118a90600f908d908d906004016155a4565b60c06040518083038186803b1580156111a257600080fd5b505af41580156111b6573d6000803e3d6000fd5b505050506040513d601f19601f820116820180604052508101906111da9190615841565b60608101519091506001600160a01b03166112075760405162461bcd60e51b815260040161090b9061585d565b80606001516001600160a01b03166370a08231336040518263ffffffff1660e01b81526004016112379190614f90565b60206040518083038186803b15801561124f57600080fd5b505afa158015611263573d6000803e3d6000fd5b505050506040513d601f19601f82011682018060405250810190611287919061587b565b60208301819052608082015111156112ca5760405162461bcd60e51b815260040161090b90602080825260049082015263524d323360e01b604082015260600190565b6060810151608082015160405163d505accf60e01b815233600482015230602482015260448101919091526064810188905260ff8716608482015260a4810186905260c481018590526001600160a01b039091169063d505accf9060e401600060405180830381600087803b15801561134257600080fd5b505af1158015611356573d6000803e3d6000fd5b5050505080606001516001600160a01b03166323b872dd333084608001516040518463ffffffff1660e01b815260040161139293929190615894565b602060405180830381600087803b1580156113ac57600080fd5b505af11580156113c0573d6000803e3d6000fd5b505050506040513d601f19601f820116820180604052508101906113e49190615445565b506000825260405163aabcf51360e01b815273__$c9b49513854812b7b6c4b448b2aa4684e3$__9063aabcf51390611427906011908d908d9033906004016158b8565b60206040518083038186803b15801561143f57600080fd5b505af4158015611453573d6000803e3d6000fd5b505050506040513d601f19601f820116820180604052508101906114779190615445565b1515600114156115ae57604051633bc1597760e01b815260009073__$c9b49513854812b7b6c4b448b2aa4684e3$__90633bc15977906114c2906011908e908e9033906004016158b8565b6101606040518083038186803b1580156114db57600080fd5b505af41580156114ef573d6000803e3d6000fd5b505050506040513d601f19601f8201168201806040525081019061151391906158df565b60c0810151845260405163cbacb72760e01b815290915073__$c9b49513854812b7b6c4b448b2aa4684e3$__9063cbacb7279061155b906011908e908e9033906004016158b8565b60206040518083038186803b15801561157357600080fd5b505af4158015611587573d6000803e3d6000fd5b505050506040513d601f19601f820116820180604052508101906115ab9190615445565b50505b6115b6614af9565b6001600160a01b03808b168252602082018a9052604080840151908301526060808401519091169082015260808083015190820152600160a08083019190915283519083015161160691906153eb565b60c082015260608301516001600160a01b0390811660e0830152336101008301528816610120820152426101408201526040516332ada61b60e01b815273__$c9b49513854812b7b6c4b448b2aa4684e3$__906332ada61b906116709060119085906004016158fc565b60206040518083038186803b15801561168857600080fd5b505af415801561169c573d6000803e3d6000fd5b505050506040513d601f19601f820116820180604052508101906116c09190615445565b506060808401519083015160808401516040516343d434b560e11b815273__$cd3810e67fa8b653e5355050e47a521f6f$__936387a8696a9361170c936013938f929190600401615911565b60206040518083038186803b15801561172457600080fd5b505af4158015611738573d6000803e3d6000fd5b505050506040513d601f19601f8201168201806040525081019061175c9190615445565b50336001600160a01b0316898b6001600160a01b0316600080516020615dc783398151915285604001518660600151876080015160018960a001518b606001518c604001518b61014001516040516117bb98979695949392919061593f565b60405180910390a450505050505050505050565b60006117d9614833565b6117e1614892565b604051638c9a6cc360e01b815273__$a27ab5a2953dc10a9c552591268754b616$__90638c9a6cc39061181b90600d90879060040161541e565b60206040518083038186803b15801561183357600080fd5b505af4158015611847573d6000803e3d6000fd5b505050506040513d601f19601f8201168201806040525081019061186b9190615445565b156118885760405162461bcd60e51b815260040161090b90615460565b6040516327a7887760e21b815260009073__$a27ab5a2953dc10a9c552591268754b616$__90639e9e21dc906118c790600d908890889060040161547d565b60206040518083038186803b1580156118df57600080fd5b505af41580156118f3573d6000803e3d6000fd5b505050506040513d601f19601f820116820180604052508101906119179190615445565b9050600181151514156109fb57836001600160a01b03167f26e277514df07793f28eff0e6f05b34a8dc0be0012b50d1b6162ce3c958b0c4e846040516109e991906152d5565b6000336001600160a01b038416148061198e5750611979613c39565b6001600160a01b0316336001600160a01b0316145b6119c35760405162461bcd60e51b815260040161090b906020808252600490820152630a49a62760e31b604082015260600190565b60405163b52bf90f60e01b815260009073__$35fde6ac6f7fb08b81f20635e2dfbb2343$__9063b52bf90f90611a029060159088908890600401615985565b60206040518083038186803b158015611a1a57600080fd5b505af4158015611a2e573d6000803e3d6000fd5b505050506040513d601f19601f82011682018060405250810190611a52919061587b565b90508015610a05576001600160a01b038316611afa576000846001600160a01b03168260405160006040518083038185875af1925050503d8060008114611ab5576040519150601f19603f3d011682016040523d82523d6000602084013e611aba565b606091505b5050905080611af45760405162461bcd60e51b815260040161090b9060208082526004908201526314934c4d60e21b604082015260600190565b50611c5c565b60405163095ea7b360e01b81526000906001600160a01b0385169063095ea7b390611b2b90309086906004016159a4565b602060405180830381600087803b158015611b4557600080fd5b505af1158015611b59573d6000803e3d6000fd5b505050506040513d601f19601f82011682018060405250810190611b7d9190615445565b905080611bb55760405162461bcd60e51b815260040161090b90602080825260049082015263524d313960e01b604082015260600190565b6040516323b872dd60e01b81526000906001600160a01b038616906323b872dd90611be89030908a908890600401615894565b602060405180830381600087803b158015611c0257600080fd5b505af1158015611c16573d6000803e3d6000fd5b505050506040513d601f19601f82011682018060405250810190611c3a9190615445565b905080611c595760405162461bcd60e51b815260040161090b9061585d565b50505b60405163bc824a9360e01b815260009073__$35fde6ac6f7fb08b81f20635e2dfbb2343$__9063bc824a9390611c9b9060159089908990600401615985565b60206040518083038186803b158015611cb357600080fd5b505af4158015611cc7573d6000803e3d6000fd5b505050506040513d601f19601f82011682018060405250810190611ceb9190615445565b905060018115151415611d445781846001600160a01b0316866001600160a01b03167ff19b643806aff6923e6a83303f2c43467bb6e47487c68586ec0bcfb7097e8f7660405160405180910390a4600192505050610a07565b600092505050610a07565b611d57614833565b611d5f614966565b565b6000611d6b614833565b604051638c9a6cc360e01b815273__$a27ab5a2953dc10a9c552591268754b616$__90638c9a6cc390611da590600d90869060040161541e565b60206040518083038186803b158015611dbd57600080fd5b505af4158015611dd1573d6000803e3d6000fd5b505050506040513d601f19601f82011682018060405250810190611df59190615445565b1515600114611e165760405162461bcd60e51b815260040161090b906159bd565b604051631eb966b960e01b815260009073__$a27ab5a2953dc10a9c552591268754b616$__90631eb966b990611e5390600d90879060040161541e565b60006040518083038186803b158015611e6b57600080fd5b505af4158015611e7f573d6000803e3d6000fd5b505050506040513d6000823e601f3d908101601f19168201604052611ea79190810190615570565b604051634c3bfbf560e11b815290915060009073__$a27ab5a2953dc10a9c552591268754b616$__90639877f7ea90611ee790600d90889060040161541e565b60206040518083038186803b158015611eff57600080fd5b505af4158015611f13573d6000803e3d6000fd5b505050506040513d601f19601f82011682018060405250810190611f379190615445565b905060018115151415611f975781600001516001600160a01b03167fd3bb6cf267814a3d42a12164c9ac01a59db6d9121ae676500da60fd56b086d3b8360200151604051611f8591906152d5565b60405180910390a25060019392505050565b5060009392505050565b919050565b600054600160a01b900460ff1690565b60405163aabcf51360e01b815260009073__$c9b49513854812b7b6c4b448b2aa4684e3$__9063aabcf51390611ff7906011908890889088906004016158b8565b60206040518083038186803b15801561200f57600080fd5b505af4158015612023573d6000803e3d6000fd5b505050506040513d601f19601f820116820180604052508101906120479190615445565b15156001146120815760405162461bcd60e51b815260040161090b906020808252600490820152630524d31360e41b604082015260600190565b604051633bc1597760e01b815260009073__$c9b49513854812b7b6c4b448b2aa4684e3$__90633bc15977906120c2906011908990899089906004016158b8565b6101606040518083038186803b1580156120db57600080fd5b505af41580156120ef573d6000803e3d6000fd5b505050506040513d601f19601f8201168201806040525081019061211391906158df565b90508060c0015181610140015161212a91906153eb565b42116121615760405162461bcd60e51b815260040161090b90602080825260049082015263524d313760e01b604082015260600190565b60008160a00151151560011515141561217f57506080810151612186565b5060408101515b60006121a06005548361219991906159da565b60646149b5565b905060006121b56006548461219991906159da565b90506000816121c484866159f9565b6121ce91906159f9565b60e0860151606087015160405163071cd41560e31b815292935073__$35fde6ac6f7fb08b81f20635e2dfbb2343$__926338e6a0a892612215926015928990600401615a10565b60206040518083038186803b15801561222d57600080fd5b505af4158015612241573d6000803e3d6000fd5b505050506040513d601f19601f820116820180604052508101906122659190615445565b50610120850151606086015160405163071cd41560e31b815273__$35fde6ac6f7fb08b81f20635e2dfbb2343$__926338e6a0a8926122ad9260159291908890600401615a10565b60206040518083038186803b1580156122c557600080fd5b505af41580156122d9573d6000803e3d6000fd5b505050506040513d601f19601f820116820180604052508101906122fd9190615445565b50600254606086015160405163071cd41560e31b815273__$35fde6ac6f7fb08b81f20635e2dfbb2343$__926338e6a0a89261234b926015926001600160a01b031691908790600401615a10565b60206040518083038186803b15801561236357600080fd5b505af4158015612377573d6000803e3d6000fd5b505050506040513d601f19601f8201168201806040525081019061239b9190615445565b5060e08501516101208601516060870151604051631a9a5d7160e21b815273__$cd3810e67fa8b653e5355050e47a521f6f$__93636a6975c4936123e6936013938b90600401615911565b60206040518083038186803b1580156123fe57600080fd5b505af4158015612412573d6000803e3d6000fd5b505050506040513d601f19601f820116820180604052508101906124369190615445565b508451602086015161010087015160405163cbacb72760e01b815273__$c9b49513854812b7b6c4b448b2aa4684e3$__9363cbacb7279361247c936011936004016158b8565b60206040518083038186803b15801561249457600080fd5b505af41580156124a8573d6000803e3d6000fd5b505050506040513d601f19601f820116820180604052508101906124cc9190615445565b508461010001516001600160a01b0316856020015186600001516001600160a01b03167f2941e86df5e844db000359f0e9abe470952bac636d89a010e9d5d513aad469fa886040015189606001518a608001518b60a001518c60c001518d60e001518e61012001518f610140015160405161254e98979695949392919061593f565b60405180910390a46001955050505050505b9392505050565b6040516318df7ec360e21b815260009073__$29098fb509e6f00a7b9223a3b1aae53a23$__9063637dfb0c906125a390869086906004016159a4565b60206040518083038186803b1580156125bb57600080fd5b505af41580156125cf573d6000803e3d6000fd5b505050506040513d601f19601f820116820180604052508101906125609190615a35565b60006125fd614892565b60006126098888612567565b9050336001600160a01b038216148061263a5750612625613c39565b6001600160a01b0316336001600160a01b0316145b6126565760405162461bcd60e51b815260040161090b90615a52565b6040516304ecf28360e41b815273__$aabfbf51bc7bf3b8af0580fb7224204a01$__90634ecf28309061269290600f908c908c906004016155a4565b60206040518083038186803b1580156126aa57600080fd5b505af41580156126be573d6000803e3d6000fd5b505050506040513d601f19601f820116820180604052508101906126e29190615445565b15156001146127035760405162461bcd60e51b815260040161090b906159bd565b6001600160a01b038516156127bd57604051631f04869b60e31b815273__$4fab912f99daae96c763763589e4636ca5$__9063f82434d89061274c90600990899060040161541e565b60206040518083038186803b15801561276457600080fd5b505af4158015612778573d6000803e3d6000fd5b505050506040513d601f19601f8201168201806040525081019061279c9190615445565b15156001146127bd5760405162461bcd60e51b815260040161090b9061585d565b6040516313d3de6d60e11b815260009073__$aabfbf51bc7bf3b8af0580fb7224204a01$__906327a7bcda9061280490600f908d908d908d908d908d908d906004016155c3565b60206040518083038186803b15801561281c57600080fd5b505af4158015612830573d6000803e3d6000fd5b505050506040513d601f19601f820116820180604052508101906128549190615445565b9050600181151514156128c057336001600160a01b0316888a6001600160a01b03167f4388754cf451950a50e2520e86758fc59ec9e88a7f6a09f2db5de37d545639298a8a8a8a896040516128ad959493929190615a6f565b60405180910390a46001925050506128c7565b6000925050505b9695505050505050565b60008080806001600160a01b0385163314801561297d575060405163aabcf51360e01b815273__$c9b49513854812b7b6c4b448b2aa4684e3$__9063aabcf51390612927906011908b908b9033906004016158b8565b60206040518083038186803b15801561293f57600080fd5b505af4158015612953573d6000803e3d6000fd5b505050506040513d601f19601f820116820180604052508101906129779190615445565b15156001145b8061299757503361298c613c39565b6001600160a01b0316145b6129cc5760405162461bcd60e51b815260040161090b90602080825260049082015263524d313560e01b604082015260600190565b604051633bc1597760e01b815260009073__$c9b49513854812b7b6c4b448b2aa4684e3$__90633bc1597790612a0d906011908c908c908c906004016158b8565b6101606040518083038186803b158015612a2657600080fd5b505af4158015612a3a573d6000803e3d6000fd5b505050506040513d601f19601f82011682018060405250810190612a5e91906158df565b90508060a001511515600115151415612a7d5780608001519150612a85565b806040015191505b610140810151429081118015612aae57508160c00151826101400151612aab91906153eb565b81105b15612b8657600082610140015182612ac691906159f9565b9050612adf612ad582866159da565b8460c001516149b5565b9550612aeb84876149c1565b610100840151606085015160405163071cd41560e31b815292975073__$35fde6ac6f7fb08b81f20635e2dfbb2343$__926338e6a0a892612b33926015928b90600401615a10565b60206040518083038186803b158015612b4b57600080fd5b505af4158015612b5f573d6000803e3d6000fd5b505050506040513d601f19601f82011682018060405250810190612b839190615445565b50505b8415612d9f576000612b9f6005548761219991906159da565b90506000612bb46006548861219991906159da565b9050600081612bc3848a6159f9565b612bcd91906159f9565b60e0860151606087015160405163071cd41560e31b815292935073__$35fde6ac6f7fb08b81f20635e2dfbb2343$__926338e6a0a892612c14926015928990600401615a10565b60206040518083038186803b158015612c2c57600080fd5b505af4158015612c40573d6000803e3d6000fd5b505050506040513d601f19601f82011682018060405250810190612c649190615445565b50610120850151606086015160405163071cd41560e31b815273__$35fde6ac6f7fb08b81f20635e2dfbb2343$__926338e6a0a892612cac9260159291908890600401615a10565b60206040518083038186803b158015612cc457600080fd5b505af4158015612cd8573d6000803e3d6000fd5b505050506040513d601f19601f82011682018060405250810190612cfc9190615445565b50600254606086015160405163071cd41560e31b815273__$35fde6ac6f7fb08b81f20635e2dfbb2343$__926338e6a0a892612d4a926015926001600160a01b031691908790600401615a10565b60206040518083038186803b158015612d6257600080fd5b505af4158015612d76573d6000803e3d6000fd5b505050506040513d601f19601f82011682018060405250810190612d9a9190615445565b505050505b604051633bc1597760e01b815260009073__$c9b49513854812b7b6c4b448b2aa4684e3$__90633bc1597790612de0906011908e908e908e906004016158b8565b6101606040518083038186803b158015612df957600080fd5b505af4158015612e0d573d6000803e3d6000fd5b505050506040513d601f19601f82011682018060405250810190612e3191906158df565b60405163cbacb72760e01b815290915060009073__$c9b49513854812b7b6c4b448b2aa4684e3$__9063cbacb72790612e75906011908f908f908f906004016158b8565b60206040518083038186803b158015612e8d57600080fd5b505af4158015612ea1573d6000803e3d6000fd5b505050506040513d601f19601f82011682018060405250810190612ec59190615445565b905060018115151415612f6b578161010001516001600160a01b0316826020015183600001516001600160a01b03167f1e47184299ef1ae0147489de864e2860294ab4125cb78ff3488bce09ea0192f68560400151866060015187608001518860a001518960c001518a60e001518b61012001518c6101400151604051612f5398979695949392919061593f565b60405180910390a46001975050505050505050612560565b6000975050505050505050612560565b604051632f6b231360e01b8152600f600482015260609073__$aabfbf51bc7bf3b8af0580fb7224204a01$__90632f6b23139060240160006040518083038186803b158015612fc957600080fd5b505af4158015612fdd573d6000803e3d6000fd5b505050506040513d6000823e601f3d908101601f19168201604052610f1d9190810190615a9b565b61300d614833565b611d5f60006149cd565b6000613021614833565b604051631f04869b60e31b815273__$4fab912f99daae96c763763589e4636ca5$__9063f82434d89061305b90600990869060040161541e565b60206040518083038186803b15801561307357600080fd5b505af4158015613087573d6000803e3d6000fd5b505050506040513d601f19601f820116820180604052508101906130ab9190615445565b15156001146130cc5760405162461bcd60e51b815260040161090b906159bd565b604051630a93aab960e31b815260009073__$4fab912f99daae96c763763589e4636ca5$__9063549d55c89061310990600990879060040161541e565b60006040518083038186803b15801561312157600080fd5b505af4158015613135573d6000803e3d6000fd5b505050506040513d6000823e601f3d908101601f1916820160405261315d9190810190615570565b6040516359c0255d60e01b815290915060009073__$4fab912f99daae96c763763589e4636ca5$__906359c0255d9061319d90600990889060040161541e565b60206040518083038186803b1580156131b557600080fd5b505af41580156131c9573d6000803e3d6000fd5b505050506040513d601f19601f820116820180604052508101906131ed9190615445565b905060018115151415611f975781600001516001600160a01b03167f037af5869c73bd98d861d265ed2fe7856d434102678eab240cfac53917ef4e838360200151604051611f8591906152d5565b60405163b52bf90f60e01b815260009073__$35fde6ac6f7fb08b81f20635e2dfbb2343$__9063b52bf90f9061327a9060159033908790600401615985565b60206040518083038186803b15801561329257600080fd5b505af41580156132a6573d6000803e3d6000fd5b505050506040513d601f19601f82011682018060405250810190610a07919061587b565b60006132d4614892565b6132dc614acb565b6040516304ecf28360e41b815273__$aabfbf51bc7bf3b8af0580fb7224204a01$__90634ecf28309061331890600f90899089906004016155a4565b60206040518083038186803b15801561333057600080fd5b505af4158015613344573d6000803e3d6000fd5b505050506040513d601f19601f820116820180604052508101906133689190615445565b15156001146133895760405162461bcd60e51b815260040161090b90615778565b604051638c9a6cc360e01b815273__$a27ab5a2953dc10a9c552591268754b616$__90638c9a6cc3906133c390600d90879060040161541e565b60206040518083038186803b1580156133db57600080fd5b505af41580156133ef573d6000803e3d6000fd5b505050506040513d601f19601f820116820180604052508101906134139190615445565b15156001146134345760405162461bcd60e51b815260040161090b90615795565b604051630163053760e51b8152349073__$aabfbf51bc7bf3b8af0580fb7224204a01$__90632c60a6e09061347290600f908a908a906004016155a4565b60c06040518083038186803b15801561348a57600080fd5b505af415801561349e573d6000803e3d6000fd5b505050506040513d601f19601f820116820180604052508101906134c29190615841565b60400151146134f95760405162461bcd60e51b81526020600482015260036024820152620a49a760eb1b604482015260640161090b565b604051630163053760e51b815260009073__$aabfbf51bc7bf3b8af0580fb7224204a01$__90632c60a6e09061353890600f908a908a906004016155a4565b60c06040518083038186803b15801561355057600080fd5b505af4158015613564573d6000803e3d6000fd5b505050506040513d601f19601f820116820180604052508101906135889190615841565b6000835260405163aabcf51360e01b815290915073__$c9b49513854812b7b6c4b448b2aa4684e3$__9063aabcf513906135cd906011908a908a9033906004016158b8565b60206040518083038186803b1580156135e557600080fd5b505af41580156135f9573d6000803e3d6000fd5b505050506040513d601f19601f8201168201806040525081019061361d9190615445565b15156001141561375457604051633bc1597760e01b815260009073__$c9b49513854812b7b6c4b448b2aa4684e3$__90633bc1597790613668906011908b908b9033906004016158b8565b6101606040518083038186803b15801561368157600080fd5b505af4158015613695573d6000803e3d6000fd5b505050506040513d601f19601f820116820180604052508101906136b991906158df565b60c0810151845260405163cbacb72760e01b815290915073__$c9b49513854812b7b6c4b448b2aa4684e3$__9063cbacb72790613701906011908b908b9033906004016158b8565b60206040518083038186803b15801561371957600080fd5b505af415801561372d573d6000803e3d6000fd5b505050506040513d601f19601f820116820180604052508101906137519190615445565b50505b61375e8686612567565b6001600160a01b03166060830152613774614af9565b6001600160a01b03808816825260208201879052604080840151908301526060808401519091169082015260808083015190820152600060a0808301919091528351908301516137c491906153eb565b60c082015260608301516001600160a01b0390811660e0830152336101008301528516610120820152426101408201526040516332ada61b60e01b815273__$c9b49513854812b7b6c4b448b2aa4684e3$__906332ada61b9061382e9060119085906004016158fc565b60206040518083038186803b15801561384657600080fd5b505af415801561385a573d6000803e3d6000fd5b505050506040513d601f19601f8201168201806040525081019061387e9190615445565b151560808401819052600114156139925760608301516040516343d434b560e11b815273__$cd3810e67fa8b653e5355050e47a521f6f$__916387a8696a916138d3916013918a906000903490600401615911565b60206040518083038186803b1580156138eb57600080fd5b505af41580156138ff573d6000803e3d6000fd5b505050506040513d601f19601f820116820180604052508101906139239190615445565b50336001600160a01b031686886001600160a01b0316600080516020615dc783398151915285604001518660600151876080015160008960a001518b606001518e8b610140015160405161397e98979695949392919061593f565b60405180910390a460019350505050612560565b60009350505050612560565b6139e96040518060c0016040528060006001600160a01b03168152602001600081526020016000815260200160006001600160a01b0316815260200160008152602001600081525090565b604051630163053760e51b815273__$aabfbf51bc7bf3b8af0580fb7224204a01$__90632c60a6e090613a2590600f90879087906004016155a4565b60c06040518083038186803b158015613a3d57600080fd5b505af4158015613a51573d6000803e3d6000fd5b505050506040513d601f19601f820116820180604052508101906125609190615841565b613a7d614833565b611d5f614a1d565b613a8d614af9565b604051633bc1597760e01b815273__$c9b49513854812b7b6c4b448b2aa4684e3$__90633bc1597790613acb906011908890889088906004016158b8565b6101606040518083038186803b158015613ae457600080fd5b505af4158015613af8573d6000803e3d6000fd5b505050506040513d601f19601f82011682018060405250810190613b1c91906158df565b949350505050565b60405163014d9d8b60e61b81526009600482015260609073__$4fab912f99daae96c763763589e4636ca5$__9063536762c0906024015b60006040518083038186803b158015613b7357600080fd5b505af4158015613b87573d6000803e3d6000fd5b505050506040513d6000823e601f3d908101601f19168201604052610f1d9190810190615b9b565b6040516344c42e0760e01b81526013600482015260609073__$cd3810e67fa8b653e5355050e47a521f6f$__906344c42e079060240160006040518083038186803b158015613bfd57600080fd5b505af4158015613c11573d6000803e3d6000fd5b505050506040513d6000823e601f3d908101601f19168201604052610f1d9190810190615be3565b6000546001600160a01b031690565b604051631d0a56e960e11b8152600d600482015260609073__$a27ab5a2953dc10a9c552591268754b616$__90633a14add290602401613b5b565b613c8b614833565b600855565b6000613c9a614833565b6040516360f353e160e01b815273__$79a40a2052c9947e027843e42106f8b048$__906360f353e190613cd490600b90869060040161541e565b60206040518083038186803b158015613cec57600080fd5b505af4158015613d00573d6000803e3d6000fd5b505050506040513d601f19601f82011682018060405250810190613d249190615445565b1515600114613d455760405162461bcd60e51b815260040161090b906159bd565b60405163044aed2360e01b815260009073__$79a40a2052c9947e027843e42106f8b048$__9063044aed2390613d8290600b90879060040161541e565b60006040518083038186803b158015613d9a57600080fd5b505af4158015613dae573d6000803e3d6000fd5b505050506040513d6000823e601f3d908101601f19168201604052613dd69190810190615570565b60405163a3fb822560e01b815290915060009073__$79a40a2052c9947e027843e42106f8b048$__9063a3fb822590613e1690600b90889060040161541e565b60206040518083038186803b158015613e2e57600080fd5b505af4158015613e42573d6000803e3d6000fd5b505050506040513d601f19601f82011682018060405250810190613e669190615445565b905060018115151415611f975781600001516001600160a01b03167fe32dbca0dcbe2dc4205cd30b4b23a82cff3e9b7e12a5682683185c6f33c978be8360200151604051611f8591906152d5565b6000613ebe614833565b613ec6614892565b604051631f04869b60e31b815273__$4fab912f99daae96c763763589e4636ca5$__9063f82434d890613f0090600990879060040161541e565b60206040518083038186803b158015613f1857600080fd5b505af4158015613f2c573d6000803e3d6000fd5b505050506040513d601f19601f82011682018060405250810190613f509190615445565b15613f6d5760405162461bcd60e51b815260040161090b90615460565b6040516331d0579b60e11b815260009073__$4fab912f99daae96c763763589e4636ca5$__906363a0af3690613fac906009908890889060040161547d565b60206040518083038186803b158015613fc457600080fd5b505af4158015613fd8573d6000803e3d6000fd5b505050506040513d601f19601f82011682018060405250810190613ffc9190615445565b9050600181151514156109fb57836001600160a01b03167ff76071867aae1eed00218b5aa8d4736b9b2161325ea3e48d283258a7e4ba75f5846040516109e991906152d5565b60405163262215ab60e21b81526015600482015260609073__$35fde6ac6f7fb08b81f20635e2dfbb2343$__9063988856ac9060240160006040518083038186803b15801561409057600080fd5b505af41580156140a4573d6000803e3d6000fd5b505050506040513d6000823e601f3d908101601f19168201604052610f1d9190810190615cc7565b6040805180820182526000815260606020820152905163044aed2360e01b815273__$79a40a2052c9947e027843e42106f8b048$__9063044aed2390610a5a90600b90869060040161541e565b60008061412684336148da565b905060006141348585612567565b90506001821515148061414f5750336001600160a01b038216145b80614172575061415d613c39565b6001600160a01b0316336001600160a01b0316145b61418e5760405162461bcd60e51b815260040161090b90615a52565b6040516304ecf28360e41b815273__$aabfbf51bc7bf3b8af0580fb7224204a01$__90634ecf2830906141ca90600f90899089906004016155a4565b60206040518083038186803b1580156141e257600080fd5b505af41580156141f6573d6000803e3d6000fd5b505050506040513d601f19601f8201168201806040525081019061421a9190615445565b151560011461423b5760405162461bcd60e51b815260040161090b906159bd565b604051630163053760e51b815260009073__$aabfbf51bc7bf3b8af0580fb7224204a01$__90632c60a6e09061427a90600f908a908a906004016155a4565b60c06040518083038186803b15801561429257600080fd5b505af41580156142a6573d6000803e3d6000fd5b505050506040513d601f19601f820116820180604052508101906142ca9190615841565b604051631f8195ef60e11b815290915060009073__$aabfbf51bc7bf3b8af0580fb7224204a01$__90633f032bde9061430c90600f908b908b906004016155a4565b60206040518083038186803b15801561432457600080fd5b505af4158015614338573d6000803e3d6000fd5b505050506040513d601f19601f8201168201806040525081019061435c9190615445565b9050600181151514156143e257336001600160a01b0316826020015183600001516001600160a01b03167f47ef5674b8623b6a0bece5fae33a1a29ad79a7846a5be46a0b2e256b94f9ee318560400151866060015187608001518860a001518a6040516143cd959493929190615a6f565b60405180910390a46001945050505050610a07565b6000945050505050610a07565b6008546143fa575050565b604051636eb1769f60e11b81526000906001600160a01b0384169063dd62ed3e9061442b9085903090600401615d8a565b60206040518083038186803b15801561444357600080fd5b505afa158015614457573d6000803e3d6000fd5b505050506040513d601f19601f8201168201806040525081019061447b919061587b565b90508061448757505050565b600061449284610791565b9050600061449e614aab565b60005b6016548110156146055760085481106144b957614605565b6016805460159190839081106144d1576144d16152e8565b906000526020600020016040516144e89190615339565b908152604080516020928190038301812060608201835260018101546001600160a01b03908116835260028201548116948301859052600390910154928201929092529350881614156145f357600061455083604001518761454a91906159da565b866149b5565b905061455c81856153eb565b8351602085015160405163071cd41560e31b815292965073__$35fde6ac6f7fb08b81f20635e2dfbb2343$__926338e6a0a8926145a0926015928790600401615a10565b60206040518083038186803b1580156145b857600080fd5b505af41580156145cc573d6000803e3d6000fd5b505050506040513d601f19601f820116820180604052508101906145f09190615445565b50505b806145fd81615403565b9150506144a1565b50600061461283866159f9565b11156146bf5760025473__$35fde6ac6f7fb08b81f20635e2dfbb2343$__906338e6a0a8906015906001600160a01b03168961464e878a6159f9565b6040518563ffffffff1660e01b815260040161466d9493929190615a10565b60206040518083038186803b15801561468557600080fd5b505af4158015614699573d6000803e3d6000fd5b505050506040513d601f19601f820116820180604052508101906146bd9190615445565b505b505050505050565b6146cf614833565b600280546001600160a01b0319166001600160a01b0392909216919091179055565b6040516306774ae360e11b8152600b600482015260609073__$79a40a2052c9947e027843e42106f8b048$__90630cee95c690602401613b5b565b614734614833565b6001600160a01b0381166147995760405162461bcd60e51b815260206004820152602660248201527f4f776e61626c653a206e6577206f776e657220697320746865207a65726f206160448201526564647265737360d01b606482015260840161090b565b6147a2816149cd565b50565b600180546147b2906152fe565b80601f01602080910402602001604051908101604052809291908181526020018280546147de906152fe565b801561482b5780601f106148005761010080835404028352916020019161482b565b820191906000526020600020905b81548152906001019060200180831161480e57829003601f168201915b505050505081565b3361483c613c39565b6001600160a01b031614611d5f5760405162461bcd60e51b815260206004820181905260248201527f4f776e61626c653a2063616c6c6572206973206e6f7420746865206f776e6572604482015260640161090b565b61489a611fa6565b15611d5f5760405162461bcd60e51b815260206004820152601060248201526f14185d5cd8589b194e881c185d5cd95960821b604482015260640161090b565b604051638bcad05360e01b815260009073__$29098fb509e6f00a7b9223a3b1aae53a23$__90638bcad053906149169086908690600401615d8a565b60206040518083038186803b15801561492e57600080fd5b505af4158015614942573d6000803e3d6000fd5b505050506040513d601f19601f820116820180604052508101906125609190615445565b61496e614a60565b6000805460ff60a01b191690557f5db9ee0a495bf2e6ff9c91a7834c1ba4fdd244a5e8aa4e537bd38aeae4b073aa335b6040516149ab9190614f90565b60405180910390a1565b60006125608284615da4565b600061256082846159f9565b600080546001600160a01b038381166001600160a01b0319831681178455604051919092169283917f8be0079c531659141344cd1fd0a4f28419497f9722a3daafe3b4186f6b6457e09190a35050565b614a25614892565b6000805460ff60a01b1916600160a01b1790557f62e78cea01bee320cd4e420270b5ea74000d11b0c9f74754ebdbfc544b05a25861499e3390565b614a68611fa6565b611d5f5760405162461bcd60e51b815260206004820152601460248201527314185d5cd8589b194e881b9bdd081c185d5cd95960621b604482015260640161090b565b604080516060810182526000808252602082018190529181019190915290565b6040805160a08101825260008082526020820181905291810182905260608101829052608081019190915290565b6040805161016081018252600080825260208201819052918101829052606081018290526080810182905260a0810182905260c0810182905260e081018290526101008101829052610120810182905261014081019190915290565b6001600160a01b03811681146147a257600080fd5b600060208284031215614b7c57600080fd5b813561256081614b55565b634e487b7160e01b600052604160045260246000fd5b60405161016081016001600160401b0381118282101715614bc057614bc0614b87565b60405290565b604051608081016001600160401b0381118282101715614bc057614bc0614b87565b604051606081016001600160401b0381118282101715614bc057614bc0614b87565b604051601f8201601f191681016001600160401b0381118282101715614c3257614c32614b87565b604052919050565b60006001600160401b03821115614c5357614c53614b87565b50601f01601f191660200190565b60008060408385031215614c7457600080fd5b8235614c7f81614b55565b915060208301356001600160401b03811115614c9a57600080fd5b8301601f81018513614cab57600080fd5b8035614cbe614cb982614c3a565b614c0a565b818152866020838501011115614cd357600080fd5b816020840160208301376000602083830101528093505050509250929050565b6001600160a01b03169052565b60005b83811015614d1b578181015183820152602001614d03565b83811115614d2a576000848401525b50505050565b60008151808452614d48816020860160208601614d00565b601f01601f19169290920160200192915050565b60018060a01b0381511682526000602082015160406020850152613b1c6040850182614d30565b6020815260006125606020830184614d5c565b60008060408385031215614da957600080fd5b8235614db481614b55565b946020939093013593505050565b614dcd828251614cf3565b60208101516020830152604081015160408301526060810151614df36060840182614cf3565b506080810151608083015260a0810151614e1160a084018215159052565b5060c081015160c083015260e0810151614e2e60e0840182614cf3565b5061010080820151614e4282850182614cf3565b505061012080820151614e5782850182614cf3565b505061014090810151910152565b6020808252825182820181905260009190848201906040850190845b81811015614ea857614e94838551614dc2565b928401926101609290920191600101614e81565b50909695505050505050565b600080600060608486031215614ec957600080fd5b505081359360208301359350604090920135919050565b600080600080600080600060e0888a031215614efb57600080fd5b8735614f0681614b55565b9650602088013595506040880135614f1d81614b55565b945060608801359350608088013560ff81168114614f3a57600080fd5b9699959850939692959460a0840135945060c09093013592915050565b60008060408385031215614f6a57600080fd5b8235614f7581614b55565b91506020830135614f8581614b55565b809150509250929050565b6001600160a01b0391909116815260200190565b600080600060608486031215614fb957600080fd5b8335614fc481614b55565b9250602084013591506040840135614fdb81614b55565b809150509250925092565b60008060008060008060c08789031215614fff57600080fd5b863561500a81614b55565b95506020870135945060408701359350606087013561502881614b55565b9598949750929560808101359460a0909101359350915050565b80516001600160a01b0390811683526020808301519084015260408083015190840152606080830151909116908301526080808201519083015260a090810151910152565b6020808252825182820181905260009190848201906040850190845b81811015614ea8576150b6838551615042565b9284019260c092909201916001016150a3565b60c08101610a078284615042565b6101608101610a078284614dc2565b6000602080830181845280855180835260408601915060408160051b870101925083870160005b8281101561513b57603f19888603018452615129858351614d5c565b9450928501929085019060010161510d565b5092979650505050505050565b602080825282518282018190526000919060409081850190868401855b828110156151ad57815180516001600160a01b039081168652878201518116888701528682015116868601526060908101519085015260809093019290850190600101615165565b5091979650505050505050565b6000602080830181845280855180835260408601915060408160051b870101925083870160005b8281101561513b57603f198886030184526151fd858351614d5c565b945092850192908501906001016151e1565b60006020828403121561522157600080fd5b5035919050565b602080825282518282018190526000919060409081850190868401855b828110156151ad57815180516001600160a01b0390811686528782015116878601528501518585015260609093019290850190600101615245565b6000602080830181845280855180835260408601915060408160051b870101925083870160005b8281101561513b57603f198886030184526152c3858351614d5c565b945092850192908501906001016152a7565b6020815260006125606020830184614d30565b634e487b7160e01b600052603260045260246000fd5b600181811c9082168061531257607f821691505b6020821081141561533357634e487b7160e01b600052602260045260246000fd5b50919050565b600080835481600182811c91508083168061535557607f831692505b602080841082141561537557634e487b7160e01b86526022600452602486fd5b818015615389576001811461539a576153c7565b60ff198616895284890196506153c7565b60008a81526020902060005b868110156153bf5781548b8201529085019083016153a6565b505084890196505b509498975050505050505050565b634e487b7160e01b600052601160045260246000fd5b600082198211156153fe576153fe6153d5565b500190565b6000600019821415615417576154176153d5565b5060010190565b9182526001600160a01b0316602082015260400190565b80518015158114611fa157600080fd5b60006020828403121561545757600080fd5b61256082615435565b602080825260039082015262524d3160e81b604082015260600190565b8381526001600160a01b03831660208201526060604082018190526000906154a790830184614d30565b95945050505050565b8051611fa181614b55565b6000604082840312156154cd57600080fd5b604080519081016001600160401b0380821183831017156154f0576154f0614b87565b816040528293508451915061550482614b55565b9082526020840151908082111561551a57600080fd5b508301601f8101851361552c57600080fd5b805161553a614cb982614c3a565b81815286602083850101111561554f57600080fd5b615560826020830160208601614d00565b8060208501525050505092915050565b60006020828403121561558257600080fd5b81516001600160401b0381111561559857600080fd5b613b1c848285016154bb565b9283526001600160a01b03919091166020830152604082015260600190565b9687526001600160a01b03958616602088015260408701949094526060860192909252909216608084015260a083019190915260c082015260e00190565b60006001600160401b0382111561561a5761561a614b87565b5060051b60200190565b6000610160828403121561563757600080fd5b61563f614b9d565b905061564a826154b0565b8152602082015160208201526040820151604082015261566c606083016154b0565b60608201526080820151608082015261568760a08301615435565b60a082015260c082015160c08201526156a260e083016154b0565b60e08201526101006156b58184016154b0565b908201526101206156c78382016154b0565b818301525061014080830151818301525092915050565b600060208083850312156156f157600080fd5b82516001600160401b0381111561570757600080fd5b8301601f8101851361571857600080fd5b8051615726614cb982615601565b818152610160918202830184019184820191908884111561574657600080fd5b938501935b8385101561576c5761575d8986615624565b8352938401939185019161574b565b50979650505050505050565b602080825260039082015262524d3760e81b604082015260600190565b60208082526003908201526229269b60e91b604082015260600190565b600060c082840312156157c457600080fd5b60405160c081016001600160401b03811182821017156157e6576157e6614b87565b806040525080915082516157f981614b55565b808252506020830151602082015260408301516040820152606083015161581f81614b55565b806060830152506080830151608082015260a083015160a08201525092915050565b600060c0828403121561585357600080fd5b61256083836157b2565b6020808252600490820152630524d32360e41b604082015260600190565b60006020828403121561588d57600080fd5b5051919050565b6001600160a01b039384168152919092166020820152604081019190915260600190565b9384526001600160a01b039283166020850152604084019190915216606082015260800190565b600061016082840312156158f257600080fd5b6125608383615624565b82815261018081016125606020830184614dc2565b9485526001600160a01b03938416602086015291831660408501529091166060830152608082015260a00190565b9788526001600160a01b039687166020890152604088019590955292151560608701526080860191909152831660a085015290911660c083015260e08201526101000190565b9283526001600160a01b03918216602084015216604082015260600190565b6001600160a01b03929092168252602082015260400190565b602080825260039082015262524d3360e81b604082015260600190565b60008160001904831182151516156159f4576159f46153d5565b500290565b600082821015615a0b57615a0b6153d5565b500390565b9384526001600160a01b03928316602085015291166040830152606082015260800190565b600060208284031215615a4757600080fd5b815161256081614b55565b602080825260039082015262524d3560e81b604082015260600190565b9485526001600160a01b0393841660208601526040850192909252606084015216608082015260a00190565b60006020808385031215615aae57600080fd5b82516001600160401b03811115615ac457600080fd5b8301601f81018513615ad557600080fd5b8051615ae3614cb982615601565b81815260c09182028301840191848201919088841115615b0257600080fd5b938501935b8385101561576c57615b1989866157b2565b83529384019391850191615b07565b6000615b36614cb984615601565b8381529050602080820190600585901b840186811115615b5557600080fd5b845b81811015615b905780516001600160401b03811115615b765760008081fd5b615b82898289016154bb565b855250928201928201615b57565b505050509392505050565b600060208284031215615bad57600080fd5b81516001600160401b03811115615bc357600080fd5b8201601f81018413615bd457600080fd5b613b1c84825160208401615b28565b60006020808385031215615bf657600080fd5b82516001600160401b03811115615c0c57600080fd5b8301601f81018513615c1d57600080fd5b8051615c2b614cb982615601565b81815260079190911b82018301908381019087831115615c4a57600080fd5b928401925b82841015615cbc5760808489031215615c685760008081fd5b615c70614bc6565b8451615c7b81614b55565b815284860151615c8a81614b55565b81870152604085810151615c9d81614b55565b9082015260608581015190820152825260809093019290840190615c4f565b979650505050505050565b60006020808385031215615cda57600080fd5b82516001600160401b03811115615cf057600080fd5b8301601f81018513615d0157600080fd5b8051615d0f614cb982615601565b81815260609182028301840191848201919088841115615d2e57600080fd5b938501935b8385101561576c5780858a031215615d4b5760008081fd5b615d53614be8565b8551615d5e81614b55565b815285870151615d6d81614b55565b818801526040868101519082015283529384019391850191615d33565b6001600160a01b0392831681529116602082015260400190565b600082615dc157634e487b7160e01b600052601260045260246000fd5b50049056fefe632cd15df82b5e105c28c0d0da9eb0228667912a4b1e430151d7c0d9227759a264697066735822122010044d3066e3885e2fb3be3fc5f8006dfd301fc6ecc0b4a946292793ab2267ee64736f6c63430008090033",
  "linkReferences": {
    "contracts/iterableMapLib.sol": {
      "accountBalanceIterableMap": [
        {
          "length": 20,
          "start": 7078
        },
        {
          "length": 20,
          "start": 7743
        },
        {
          "length": 20,
          "start": 9147
        },
        {
          "length": 20,
          "start": 9297
        },
        {
          "length": 20,
          "start": 9446
        },
        {
          "length": 20,
          "start": 11481
        },
        {
          "length": 20,
          "start": 11706
        },
        {
          "length": 20,
          "start": 11856
        },
        {
          "length": 20,
          "start": 12005
        },
        {
          "length": 20,
          "start": 13342
        },
        {
          "length": 20,
          "start": 16940
        },
        {
          "length": 20,
          "start": 18246
        },
        {
          "length": 20,
          "start": 18414
        }
      ],
      "collectionDataIterableMap": [
        {
          "length": 20,
          "start": 2628
        },
        {
          "length": 20,
          "start": 2807
        },
        {
          "length": 20,
          "start": 3537
        },
        {
          "length": 20,
          "start": 3731
        },
        {
          "length": 20,
          "start": 15994
        },
        {
          "length": 20,
          "start": 16168
        },
        {
          "length": 20,
          "start": 16316
        },
        {
          "length": 20,
          "start": 17087
        },
        {
          "length": 20,
          "start": 18651
        }
      ],
      "pendingRentFeeIterableMap": [
        {
          "length": 20,
          "start": 6320
        },
        {
          "length": 20,
          "start": 9612
        },
        {
          "length": 20,
          "start": 14964
        },
        {
          "length": 20,
          "start": 15769
        }
      ],
      "registerDataIterableMap": [
        {
          "length": 20,
          "start": 3224
        },
        {
          "length": 20,
          "start": 3937
        },
        {
          "length": 20,
          "start": 4461
        },
        {
          "length": 20,
          "start": 4910
        },
        {
          "length": 20,
          "start": 10294
        },
        {
          "length": 20,
          "start": 10656
        },
        {
          "length": 20,
          "start": 12645
        },
        {
          "length": 20,
          "start": 13500
        },
        {
          "length": 20,
          "start": 13846
        },
        {
          "length": 20,
          "start": 14044
        },
        {
          "length": 20,
          "start": 15305
        },
        {
          "length": 20,
          "start": 17262
        },
        {
          "length": 20,
          "start": 17438
        },
        {
          "length": 20,
          "start": 17584
        }
      ],
      "rentDataIterableMap": [
        {
          "length": 20,
          "start": 4221
        },
        {
          "length": 20,
          "start": 5577
        },
        {
          "length": 20,
          "start": 5732
        },
        {
          "length": 20,
          "start": 5885
        },
        {
          "length": 20,
          "start": 6166
        },
        {
          "length": 20,
          "start": 8601
        },
        {
          "length": 20,
          "start": 8804
        },
        {
          "length": 20,
          "start": 9764
        },
        {
          "length": 20,
          "start": 10953
        },
        {
          "length": 20,
          "start": 11183
        },
        {
          "length": 20,
          "start": 12162
        },
        {
          "length": 20,
          "start": 12311
        },
        {
          "length": 20,
          "start": 14191
        },
        {
          "length": 20,
          "start": 14346
        },
        {
          "length": 20,
          "start": 14499
        },
        {
          "length": 20,
          "start": 14804
        },
        {
          "length": 20,
          "start": 15469
        }
      ],
      "serviceDataIterableMap": [
        {
          "length": 20,
          "start": 3072
        },
        {
          "length": 20,
          "start": 4634
        },
        {
          "length": 20,
          "start": 6593
        },
        {
          "length": 20,
          "start": 6763
        },
        {
          "length": 20,
          "start": 8011
        },
        {
          "length": 20,
          "start": 8185
        },
        {
          "length": 20,
          "start": 8333
        },
        {
          "length": 20,
          "start": 13673
        },
        {
          "length": 20,
          "start": 15922
        }
      ],
      "tokenDataIterableMap": [
        {
          "length": 20,
          "start": 10482
        },
        {
          "length": 20,
          "start": 12801
        },
        {
          "length": 20,
          "start": 12975
        },
        {
          "length": 20,
          "start": 13123
        },
        {
          "length": 20,
          "start": 15630
        },
        {
          "length": 20,
          "start": 16550
        },
        {
          "length": 20,
          "start": 16720
        }
      ]
    },
    "contracts/utilFunctions.sol": {
      "utilFunctions": [
        {
          "length": 20,
          "start": 10058
        },
        {
          "length": 20,
          "start": 19133
        }
      ]
    }
  },
  "deployedLinkReferences": {
    "contracts/iterableMapLib.sol": {
      "accountBalanceIterableMap": [
        {
          "length": 20,
          "start": 6613
        },
        {
          "length": 20,
          "start": 7278
        },
        {
          "length": 20,
          "start": 8682
        },
        {
          "length": 20,
          "start": 8832
        },
        {
          "length": 20,
          "start": 8981
        },
        {
          "length": 20,
          "start": 11016
        },
        {
          "length": 20,
          "start": 11241
        },
        {
          "length": 20,
          "start": 11391
        },
        {
          "length": 20,
          "start": 11540
        },
        {
          "length": 20,
          "start": 12877
        },
        {
          "length": 20,
          "start": 16475
        },
        {
          "length": 20,
          "start": 17781
        },
        {
          "length": 20,
          "start": 17949
        }
      ],
      "collectionDataIterableMap": [
        {
          "length": 20,
          "start": 2163
        },
        {
          "length": 20,
          "start": 2342
        },
        {
          "length": 20,
          "start": 3072
        },
        {
          "length": 20,
          "start": 3266
        },
        {
          "length": 20,
          "start": 15529
        },
        {
          "length": 20,
          "start": 15703
        },
        {
          "length": 20,
          "start": 15851
        },
        {
          "length": 20,
          "start": 16622
        },
        {
          "length": 20,
          "start": 18186
        }
      ],
      "pendingRentFeeIterableMap": [
        {
          "length": 20,
          "start": 5855
        },
        {
          "length": 20,
          "start": 9147
        },
        {
          "length": 20,
          "start": 14499
        },
        {
          "length": 20,
          "start": 15304
        }
      ],
      "registerDataIterableMap": [
        {
          "length": 20,
          "start": 2759
        },
        {
          "length": 20,
          "start": 3472
        },
        {
          "length": 20,
          "start": 3996
        },
        {
          "length": 20,
          "start": 4445
        },
        {
          "length": 20,
          "start": 9829
        },
        {
          "length": 20,
          "start": 10191
        },
        {
          "length": 20,
          "start": 12180
        },
        {
          "length": 20,
          "start": 13035
        },
        {
          "length": 20,
          "start": 13381
        },
        {
          "length": 20,
          "start": 13579
        },
        {
          "length": 20,
          "start": 14840
        },
        {
          "length": 20,
          "start": 16797
        },
        {
          "length": 20,
          "start": 16973
        },
        {
          "length": 20,
          "start": 17119
        }
      ],
      "rentDataIterableMap": [
        {
          "length": 20,
          "start": 3756
        },
        {
          "length": 20,
          "start": 5112
        },
        {
          "length": 20,
          "start": 5267
        },
        {
          "length": 20,
          "start": 5420
        },
        {
          "length": 20,
          "start": 5701
        },
        {
          "length": 20,
          "start": 8136
        },
        {
          "length": 20,
          "start": 8339
        },
        {
          "length": 20,
          "start": 9299
        },
        {
          "length": 20,
          "start": 10488
        },
        {
          "length": 20,
          "start": 10718
        },
        {
          "length": 20,
          "start": 11697
        },
        {
          "length": 20,
          "start": 11846
        },
        {
          "length": 20,
          "start": 13726
        },
        {
          "length": 20,
          "start": 13881
        },
        {
          "length": 20,
          "start": 14034
        },
        {
          "length": 20,
          "start": 14339
        },
        {
          "length": 20,
          "start": 15004
        }
      ],
      "serviceDataIterableMap": [
        {
          "length": 20,
          "start": 2607
        },
        {
          "length": 20,
          "start": 4169
        },
        {
          "length": 20,
          "start": 6128
        },
        {
          "length": 20,
          "start": 6298
        },
        {
          "length": 20,
          "start": 7546
        },
        {
          "length": 20,
          "start": 7720
        },
        {
          "length": 20,
          "start": 7868
        },
        {
          "length": 20,
          "start": 13208
        },
        {
          "length": 20,
          "start": 15457
        }
      ],
      "tokenDataIterableMap": [
        {
          "length": 20,
          "start": 10017
        },
        {
          "length": 20,
          "start": 12336
        },
        {
          "length": 20,
          "start": 12510
        },
        {
          "length": 20,
          "start": 12658
        },
        {
          "length": 20,
          "start": 15165
        },
        {
          "length": 20,
          "start": 16085
        },
        {
          "length": 20,
          "start": 16255
        }
      ]
    },
    "contracts/utilFunctions.sol": {
      "utilFunctions": [
        {
          "length": 20,
          "start": 9593
        },
        {
          "length": 20,
          "start": 18668
        }
      ]
    }
  }
}